{
  "address": "0x603D1517726A1b3A4BFA097eaBdB8A2d9F633Cf1",
  "abi": [
    {
      "inputs": [
        {
          "internalType": "address",
          "name": "_yieldCalculator",
          "type": "address"
        }
      ],
      "stateMutability": "nonpayable",
      "type": "constructor"
    },
    {
      "inputs": [],
      "name": "PoolTracker_pairAlreadyExists",
      "type": "error"
    },
    {
      "anonymous": false,
      "inputs": [
        {
          "indexed": false,
          "internalType": "contract LiquidityPool",
          "name": "pool",
          "type": "address"
        },
        {
          "indexed": false,
          "internalType": "address",
          "name": "assetOne",
          "type": "address"
        },
        {
          "indexed": false,
          "internalType": "address",
          "name": "assetTwo",
          "type": "address"
        }
      ],
      "name": "poolCreated",
      "type": "event"
    },
    {
      "inputs": [
        {
          "internalType": "address",
          "name": "tokenAddress",
          "type": "address"
        },
        {
          "internalType": "address",
          "name": "priceFeed",
          "type": "address"
        }
      ],
      "name": "addRoutingAddress",
      "outputs": [],
      "stateMutability": "nonpayable",
      "type": "function"
    },
    {
      "inputs": [
        {
          "internalType": "address",
          "name": "_assetOneAddress",
          "type": "address"
        },
        {
          "internalType": "address",
          "name": "_assetTwoAddress",
          "type": "address"
        },
        {
          "internalType": "uint256",
          "name": "amountOne",
          "type": "uint256"
        },
        {
          "internalType": "uint256",
          "name": "amountTwo",
          "type": "uint256"
        }
      ],
      "name": "createPool",
      "outputs": [],
      "stateMutability": "nonpayable",
      "type": "function"
    },
    {
      "inputs": [],
      "name": "destinationChain",
      "outputs": [
        {
          "internalType": "uint16",
          "name": "",
          "type": "uint16"
        }
      ],
      "stateMutability": "view",
      "type": "function"
    },
    {
      "inputs": [
        {
          "internalType": "address",
          "name": "token1",
          "type": "address"
        },
        {
          "internalType": "address",
          "name": "token2",
          "type": "address"
        }
      ],
      "name": "exists",
      "outputs": [
        {
          "internalType": "bool",
          "name": "",
          "type": "bool"
        }
      ],
      "stateMutability": "view",
      "type": "function"
    },
    {
      "inputs": [
        {
          "internalType": "address",
          "name": "tokenAddress",
          "type": "address"
        }
      ],
      "name": "getPoolPairs",
      "outputs": [
        {
          "internalType": "address[]",
          "name": "",
          "type": "address[]"
        }
      ],
      "stateMutability": "view",
      "type": "function"
    },
    {
      "inputs": [
        {
          "internalType": "address",
          "name": "tokenAddress",
          "type": "address"
        }
      ],
      "name": "getPoolPairsLength",
      "outputs": [
        {
          "internalType": "uint256",
          "name": "",
          "type": "uint256"
        }
      ],
      "stateMutability": "view",
      "type": "function"
    },
    {
      "inputs": [],
      "name": "getPools",
      "outputs": [
        {
          "internalType": "address[]",
          "name": "",
          "type": "address[]"
        }
      ],
      "stateMutability": "view",
      "type": "function"
    },
    {
      "inputs": [],
      "name": "getRoutingAddressesLength",
      "outputs": [
        {
          "internalType": "uint256",
          "name": "",
          "type": "uint256"
        }
      ],
      "stateMutability": "view",
      "type": "function"
    },
    {
      "inputs": [
        {
          "internalType": "address",
          "name": "",
          "type": "address"
        },
        {
          "internalType": "address",
          "name": "",
          "type": "address"
        }
      ],
      "name": "pairToPool",
      "outputs": [
        {
          "internalType": "contract LiquidityPool",
          "name": "",
          "type": "address"
        }
      ],
      "stateMutability": "view",
      "type": "function"
    },
    {
      "inputs": [
        {
          "internalType": "address",
          "name": "",
          "type": "address"
        },
        {
          "internalType": "uint256",
          "name": "",
          "type": "uint256"
        }
      ],
      "name": "poolPairs",
      "outputs": [
        {
          "internalType": "address",
          "name": "",
          "type": "address"
        }
      ],
      "stateMutability": "view",
      "type": "function"
    },
    {
      "inputs": [
        {
          "internalType": "uint256",
          "name": "",
          "type": "uint256"
        }
      ],
      "name": "pools",
      "outputs": [
        {
          "internalType": "address",
          "name": "",
          "type": "address"
        }
      ],
      "stateMutability": "view",
      "type": "function"
    },
    {
      "inputs": [
        {
          "internalType": "uint256",
          "name": "",
          "type": "uint256"
        }
      ],
      "name": "routingAddresses",
      "outputs": [
        {
          "internalType": "address",
          "name": "tokenAddress",
          "type": "address"
        },
        {
          "internalType": "address",
          "name": "priceFeed",
          "type": "address"
        }
      ],
      "stateMutability": "view",
      "type": "function"
    },
    {
      "inputs": [],
      "name": "tokenList",
      "outputs": [
        {
          "internalType": "address[]",
          "name": "",
          "type": "address[]"
        }
      ],
      "stateMutability": "view",
      "type": "function"
    },
    {
      "inputs": [
        {
          "internalType": "uint256",
          "name": "",
          "type": "uint256"
        }
      ],
      "name": "tokens",
      "outputs": [
        {
          "internalType": "address",
          "name": "",
          "type": "address"
        }
      ],
      "stateMutability": "view",
      "type": "function"
    },
    {
      "inputs": [],
      "name": "withdrawEther",
      "outputs": [],
      "stateMutability": "nonpayable",
      "type": "function"
    },
    {
      "inputs": [],
      "name": "yieldCalculator",
      "outputs": [
        {
          "internalType": "address",
          "name": "",
          "type": "address"
        }
      ],
      "stateMutability": "view",
      "type": "function"
    },
    {
      "inputs": [],
      "name": "zkBridge",
      "outputs": [
        {
          "internalType": "contract IZKBridge",
          "name": "",
          "type": "address"
        }
      ],
      "stateMutability": "view",
      "type": "function"
    }
  ],
  "transactionHash": "0xec7bc5011f9d4368433dd2ee2beb1e964e0133222d55897596094b347698471a",
  "args": [
    "0xe6B0e68651FD1163c588Cf8E04d413d3a43EFCad"
  ],
  "numDeployments": 4,
  "solcInputHash": "7ecac49222deb10e278b0c2d5195fc14",
  "bytecode": "0x60806040526017600060156101000a81548161ffff021916908361ffff16021790555073b20f0105f3598652a3be569132f7b3f341106ddc600160006101000a81548173ffffffffffffffffffffffffffffffffffffffff021916908373ffffffffffffffffffffffffffffffffffffffff1602179055503480156200008457600080fd5b5060405162005738380380620057388339818101604052810190620000aa91906200019c565b336000806101000a81548173ffffffffffffffffffffffffffffffffffffffff021916908373ffffffffffffffffffffffffffffffffffffffff16021790555080600260006101000a81548173ffffffffffffffffffffffffffffffffffffffff021916908373ffffffffffffffffffffffffffffffffffffffff16021790555050620001ce565b600080fd5b600073ffffffffffffffffffffffffffffffffffffffff82169050919050565b6000620001648262000137565b9050919050565b620001768162000157565b81146200018257600080fd5b50565b60008151905062000196816200016b565b92915050565b600060208284031215620001b557620001b462000132565b5b6000620001c58482850162000185565b91505092915050565b61555a80620001de6000396000f3fe60806040523480156200001157600080fd5b5060043610620001245760003560e01c80638b273a6811620000b15780639e2c58ca116200007b5780639e2c58ca1462000320578063ac4afa381462000342578063b42446591462000378578063f5ff5061146200039a578063fd1337a614620003d05762000124565b80638b273a68146200025b5780638c75d89d1462000291578063930186f214620002c75780639412306014620002fe5762000124565b80636fbe6fea11620000f35780636fbe6fea14620001d95780637362377b14620001f95780637663f8221462000205578063884db063146200023b5762000124565b80631b9db73f14620001295780634f64b2be146200015f578063620e3a641462000195578063673a2a1f14620001b7575b600080fd5b620001476004803603810190620001419190620017d4565b620003f2565b604051620001569190620018d4565b60405180910390f35b6200017d600480360381019062000177919062001933565b620004c1565b6040516200018c919062001976565b60405180910390f35b6200019f62000501565b604051620001ae919062001976565b60405180910390f35b620001c162000527565b604051620001d09190620018d4565b60405180910390f35b620001f76004803603810190620001f1919062001993565b620005b7565b005b62000203620009e1565b005b6200022360048036038101906200021d919062001993565b62000af0565b604051620002329190620019f7565b60405180910390f35b62000259600480360381019062000253919062001a14565b62000c1a565b005b62000279600480360381019062000273919062001993565b6200143f565b60405162000288919062001af1565b60405180910390f35b620002af6004803603810190620002a9919062001b0e565b62001481565b604051620002be919062001976565b60405180910390f35b620002e56004803603810190620002df919062001933565b620014d0565b604051620002f592919062001b55565b60405180910390f35b6200030862001545565b60405162000317919062001b93565b60405180910390f35b6200032a62001552565b604051620003399190620018d4565b60405180910390f35b6200036060048036038101906200035a919062001933565b620015e2565b6040516200036f919062001976565b60405180910390f35b6200038262001622565b60405162000391919062001be9565b60405180910390f35b620003b86004803603810190620003b29190620017d4565b62001648565b604051620003c7919062001b93565b60405180910390f35b620003da62001694565b604051620003e9919062001c25565b60405180910390f35b6060600360008373ffffffffffffffffffffffffffffffffffffffff1673ffffffffffffffffffffffffffffffffffffffff168152602001908152602001600020805480602002602001604051908101604052809291908181526020018280548015620004b557602002820191906000526020600020905b8160009054906101000a900473ffffffffffffffffffffffffffffffffffffffff1673ffffffffffffffffffffffffffffffffffffffff16815260200190600101908083116200046a575b50505050509050919050565b60058181548110620004d257600080fd5b906000526020600020016000915054906101000a900473ffffffffffffffffffffffffffffffffffffffff1681565b600260009054906101000a900473ffffffffffffffffffffffffffffffffffffffff1681565b60606006805480602002602001604051908101604052809291908181526020018280548015620005ad57602002820191906000526020600020905b8160009054906101000a900473ffffffffffffffffffffffffffffffffffffffff1673ffffffffffffffffffffffffffffffffffffffff168152602001906001019080831162000562575b5050505050905090565b60008054906101000a900473ffffffffffffffffffffffffffffffffffffffff1673ffffffffffffffffffffffffffffffffffffffff163373ffffffffffffffffffffffffffffffffffffffff16146200061057600080fd5b600060078054905014156200072157600760405180604001604052808473ffffffffffffffffffffffffffffffffffffffff1681526020018373ffffffffffffffffffffffffffffffffffffffff16815250908060018154018082558091505060019003906000526020600020906002020160009091909190915060008201518160000160006101000a81548173ffffffffffffffffffffffffffffffffffffffff021916908373ffffffffffffffffffffffffffffffffffffffff16021790555060208201518160010160006101000a81548173ffffffffffffffffffffffffffffffffffffffff021916908373ffffffffffffffffffffffffffffffffffffffff1602179055505050620009dd565b60005b600780549050811015620009db578273ffffffffffffffffffffffffffffffffffffffff166007828154811062000760576200075f62001c42565b5b906000526020600020906002020160000160009054906101000a900473ffffffffffffffffffffffffffffffffffffffff1673ffffffffffffffffffffffffffffffffffffffff161415620008ac5760405180604001604052808473ffffffffffffffffffffffffffffffffffffffff1681526020018373ffffffffffffffffffffffffffffffffffffffff168152506007828154811062000807576200080662001c42565b5b906000526020600020906002020160008201518160000160006101000a81548173ffffffffffffffffffffffffffffffffffffffff021916908373ffffffffffffffffffffffffffffffffffffffff16021790555060208201518160010160006101000a81548173ffffffffffffffffffffffffffffffffffffffff021916908373ffffffffffffffffffffffffffffffffffffffff160217905550905050620009db565b6001600780549050620008c0919062001ca0565b811415620009c557600760405180604001604052808573ffffffffffffffffffffffffffffffffffffffff1681526020018473ffffffffffffffffffffffffffffffffffffffff16815250908060018154018082558091505060019003906000526020600020906002020160009091909190915060008201518160000160006101000a81548173ffffffffffffffffffffffffffffffffffffffff021916908373ffffffffffffffffffffffffffffffffffffffff16021790555060208201518160010160006101000a81548173ffffffffffffffffffffffffffffffffffffffff021916908373ffffffffffffffffffffffffffffffffffffffff16021790555050505b8080620009d29062001cdb565b91505062000724565b505b5050565b60008054906101000a900473ffffffffffffffffffffffffffffffffffffffff1673ffffffffffffffffffffffffffffffffffffffff163373ffffffffffffffffffffffffffffffffffffffff161462000a3a57600080fd5b60003373ffffffffffffffffffffffffffffffffffffffff164760405162000a629062001d5e565b60006040518083038185875af1925050503d806000811462000aa1576040519150601f19603f3d011682016040523d82523d6000602084013e62000aa6565b606091505b505090508062000aed576040517f08c379a000000000000000000000000000000000000000000000000000000000815260040162000ae49062001dd6565b60405180910390fd5b50565b60008060005b600360008673ffffffffffffffffffffffffffffffffffffffff1673ffffffffffffffffffffffffffffffffffffffff1681526020019081526020016000208054905081101562000c0f578373ffffffffffffffffffffffffffffffffffffffff16600360008773ffffffffffffffffffffffffffffffffffffffff1673ffffffffffffffffffffffffffffffffffffffff168152602001908152602001600020828154811062000bac5762000bab62001c42565b5b9060005260206000200160009054906101000a900473ffffffffffffffffffffffffffffffffffffffff1673ffffffffffffffffffffffffffffffffffffffff16141562000bf957600191505b808062000c069062001cdb565b91505062000af6565b508091505092915050565b600060149054906101000a900460ff161562000c6d576040517f08c379a000000000000000000000000000000000000000000000000000000000815260040162000c649062001e48565b60405180910390fd5b6001600060146101000a81548160ff02191690831515021790555062000c94848462000af0565b1562000ccc576040517f2f5f48b800000000000000000000000000000000000000000000000000000000815260040160405180910390fd5b8373ffffffffffffffffffffffffffffffffffffffff166323b872dd3330856040518463ffffffff1660e01b815260040162000d0b9392919062001e6a565b602060405180830381600087803b15801562000d2657600080fd5b505af115801562000d3b573d6000803e3d6000fd5b505050506040513d601f19601f8201168201806040525081019062000d61919062001ed8565b508273ffffffffffffffffffffffffffffffffffffffff166323b872dd3330846040518463ffffffff1660e01b815260040162000da19392919062001e6a565b602060405180830381600087803b15801562000dbc57600080fd5b505af115801562000dd1573d6000803e3d6000fd5b505050506040513d601f19601f8201168201806040525081019062000df7919062001ed8565b506000848460405162000e0a906200175c565b62000e1792919062001b55565b604051809103906000f08015801562000e34573d6000803e3d6000fd5b5090506006819080600181540180825580915050600190039060005260206000200160009091909190916101000a81548173ffffffffffffffffffffffffffffffffffffffff021916908373ffffffffffffffffffffffffffffffffffffffff1602179055508473ffffffffffffffffffffffffffffffffffffffff1663095ea7b382856040518363ffffffff1660e01b815260040162000ed792919062001f0a565b602060405180830381600087803b15801562000ef257600080fd5b505af115801562000f07573d6000803e3d6000fd5b505050506040513d601f19601f8201168201806040525081019062000f2d919062001ed8565b508373ffffffffffffffffffffffffffffffffffffffff1663095ea7b382846040518363ffffffff1660e01b815260040162000f6b92919062001f0a565b602060405180830381600087803b15801562000f8657600080fd5b505af115801562000f9b573d6000803e3d6000fd5b505050506040513d601f19601f8201168201806040525081019062000fc1919062001ed8565b508073ffffffffffffffffffffffffffffffffffffffff1663a40f4fa184846040518363ffffffff1660e01b815260040162000fff92919062001f37565b600060405180830381600087803b1580156200101a57600080fd5b505af11580156200102f573d6000803e3d6000fd5b50505050600360008673ffffffffffffffffffffffffffffffffffffffff1673ffffffffffffffffffffffffffffffffffffffff168152602001908152602001600020849080600181540180825580915050600190039060005260206000200160009091909190916101000a81548173ffffffffffffffffffffffffffffffffffffffff021916908373ffffffffffffffffffffffffffffffffffffffff160217905550600360008573ffffffffffffffffffffffffffffffffffffffff1673ffffffffffffffffffffffffffffffffffffffff168152602001908152602001600020859080600181540180825580915050600190039060005260206000200160009091909190916101000a81548173ffffffffffffffffffffffffffffffffffffffff021916908373ffffffffffffffffffffffffffffffffffffffff16021790555080600460008773ffffffffffffffffffffffffffffffffffffffff1673ffffffffffffffffffffffffffffffffffffffff16815260200190815260200160002060008673ffffffffffffffffffffffffffffffffffffffff1673ffffffffffffffffffffffffffffffffffffffff16815260200190815260200160002060006101000a81548173ffffffffffffffffffffffffffffffffffffffff021916908373ffffffffffffffffffffffffffffffffffffffff16021790555080600460008673ffffffffffffffffffffffffffffffffffffffff1673ffffffffffffffffffffffffffffffffffffffff16815260200190815260200160002060008773ffffffffffffffffffffffffffffffffffffffff1673ffffffffffffffffffffffffffffffffffffffff16815260200190815260200160002060006101000a81548173ffffffffffffffffffffffffffffffffffffffff021916908373ffffffffffffffffffffffffffffffffffffffff16021790555060001515620012f886620016a8565b1515141562001365576005859080600181540180825580915050600190039060005260206000200160009091909190916101000a81548173ffffffffffffffffffffffffffffffffffffffff021916908373ffffffffffffffffffffffffffffffffffffffff1602179055505b600015156200137485620016a8565b15151415620013e1576005849080600181540180825580915050600190039060005260206000200160009091909190916101000a81548173ffffffffffffffffffffffffffffffffffffffff021916908373ffffffffffffffffffffffffffffffffffffffff1602179055505b7f1bfa76d353829689440900638fb4e4d604519997726fa1ee0f885e3df12ed7f8818686604051620014169392919062001f64565b60405180910390a15060008060146101000a81548160ff02191690831515021790555050505050565b60046020528160005260406000206020528060005260406000206000915091509054906101000a900473ffffffffffffffffffffffffffffffffffffffff1681565b600360205281600052604060002081815481106200149e57600080fd5b906000526020600020016000915091509054906101000a900473ffffffffffffffffffffffffffffffffffffffff1681565b60078181548110620014e157600080fd5b90600052602060002090600202016000915090508060000160009054906101000a900473ffffffffffffffffffffffffffffffffffffffff16908060010160009054906101000a900473ffffffffffffffffffffffffffffffffffffffff16905082565b6000600780549050905090565b60606005805480602002602001604051908101604052809291908181526020018280548015620015d857602002820191906000526020600020905b8160009054906101000a900473ffffffffffffffffffffffffffffffffffffffff1673ffffffffffffffffffffffffffffffffffffffff16815260200190600101908083116200158d575b5050505050905090565b60068181548110620015f357600080fd5b906000526020600020016000915054906101000a900473ffffffffffffffffffffffffffffffffffffffff1681565b600160009054906101000a900473ffffffffffffffffffffffffffffffffffffffff1681565b6000600360008373ffffffffffffffffffffffffffffffffffffffff1673ffffffffffffffffffffffffffffffffffffffff168152602001908152602001600020805490509050919050565b600060159054906101000a900461ffff1681565b60008060005b600580549050811015620017525760058181548110620016d357620016d262001c42565b5b9060005260206000200160009054906101000a900473ffffffffffffffffffffffffffffffffffffffff1673ffffffffffffffffffffffffffffffffffffffff168473ffffffffffffffffffffffffffffffffffffffff1614156200173c576001915062001752565b8080620017499062001cdb565b915050620016ae565b5080915050919050565b6135838062001fa283390190565b600080fd5b600073ffffffffffffffffffffffffffffffffffffffff82169050919050565b60006200179c826200176f565b9050919050565b620017ae816200178f565b8114620017ba57600080fd5b50565b600081359050620017ce81620017a3565b92915050565b600060208284031215620017ed57620017ec6200176a565b5b6000620017fd84828501620017bd565b91505092915050565b600081519050919050565b600082825260208201905092915050565b6000819050602082019050919050565b6200183d816200178f565b82525050565b600062001851838362001832565b60208301905092915050565b6000602082019050919050565b6000620018778262001806565b62001883818562001811565b9350620018908362001822565b8060005b83811015620018c7578151620018ab888262001843565b9750620018b8836200185d565b92505060018101905062001894565b5085935050505092915050565b60006020820190508181036000830152620018f081846200186a565b905092915050565b6000819050919050565b6200190d81620018f8565b81146200191957600080fd5b50565b6000813590506200192d8162001902565b92915050565b6000602082840312156200194c576200194b6200176a565b5b60006200195c848285016200191c565b91505092915050565b62001970816200178f565b82525050565b60006020820190506200198d600083018462001965565b92915050565b60008060408385031215620019ad57620019ac6200176a565b5b6000620019bd85828601620017bd565b9250506020620019d085828601620017bd565b9150509250929050565b60008115159050919050565b620019f181620019da565b82525050565b600060208201905062001a0e6000830184620019e6565b92915050565b6000806000806080858703121562001a315762001a306200176a565b5b600062001a4187828801620017bd565b945050602062001a5487828801620017bd565b935050604062001a67878288016200191c565b925050606062001a7a878288016200191c565b91505092959194509250565b6000819050919050565b600062001ab162001aab62001aa5846200176f565b62001a86565b6200176f565b9050919050565b600062001ac58262001a90565b9050919050565b600062001ad98262001ab8565b9050919050565b62001aeb8162001acc565b82525050565b600060208201905062001b08600083018462001ae0565b92915050565b6000806040838503121562001b285762001b276200176a565b5b600062001b3885828601620017bd565b925050602062001b4b858286016200191c565b9150509250929050565b600060408201905062001b6c600083018562001965565b62001b7b602083018462001965565b9392505050565b62001b8d81620018f8565b82525050565b600060208201905062001baa600083018462001b82565b92915050565b600062001bbd8262001a90565b9050919050565b600062001bd18262001bb0565b9050919050565b62001be38162001bc4565b82525050565b600060208201905062001c00600083018462001bd8565b92915050565b600061ffff82169050919050565b62001c1f8162001c06565b82525050565b600060208201905062001c3c600083018462001c14565b92915050565b7f4e487b7100000000000000000000000000000000000000000000000000000000600052603260045260246000fd5b7f4e487b7100000000000000000000000000000000000000000000000000000000600052601160045260246000fd5b600062001cad82620018f8565b915062001cba83620018f8565b92508282101562001cd05762001ccf62001c71565b5b828203905092915050565b600062001ce882620018f8565b91507fffffffffffffffffffffffffffffffffffffffffffffffffffffffffffffffff82141562001d1e5762001d1d62001c71565b5b600182019050919050565b600081905092915050565b50565b600062001d4660008362001d29565b915062001d538262001d34565b600082019050919050565b600062001d6b8262001d37565b9150819050919050565b600082825260208201905092915050565b7f4661696c656420746f2073656e64204574686572000000000000000000000000600082015250565b600062001dbe60148362001d75565b915062001dcb8262001d86565b602082019050919050565b6000602082019050818103600083015262001df18162001daf565b9050919050565b7f4e6f2072652d656e7472616e6379000000000000000000000000000000000000600082015250565b600062001e30600e8362001d75565b915062001e3d8262001df8565b602082019050919050565b6000602082019050818103600083015262001e638162001e21565b9050919050565b600060608201905062001e81600083018662001965565b62001e90602083018562001965565b62001e9f604083018462001b82565b949350505050565b62001eb281620019da565b811462001ebe57600080fd5b50565b60008151905062001ed28162001ea7565b92915050565b60006020828403121562001ef15762001ef06200176a565b5b600062001f018482850162001ec1565b91505092915050565b600060408201905062001f21600083018562001965565b62001f30602083018462001b82565b9392505050565b600060408201905062001f4e600083018562001b82565b62001f5d602083018462001b82565b9392505050565b600060608201905062001f7b600083018662001ae0565b62001f8a602083018562001965565b62001f99604083018462001965565b94935050505056fe608060405266038d7ea4c680006005553480156200001c57600080fd5b506040516200358338038062003583833981810160405281019062000042919062000184565b816000806101000a81548173ffffffffffffffffffffffffffffffffffffffff021916908373ffffffffffffffffffffffffffffffffffffffff16021790555080600160006101000a81548173ffffffffffffffffffffffffffffffffffffffff021916908373ffffffffffffffffffffffffffffffffffffffff16021790555033600660006101000a81548173ffffffffffffffffffffffffffffffffffffffff021916908373ffffffffffffffffffffffffffffffffffffffff16021790555066038d7ea4c680006005819055505050620001cb565b600080fd5b600073ffffffffffffffffffffffffffffffffffffffff82169050919050565b60006200014c826200011f565b9050919050565b6200015e816200013f565b81146200016a57600080fd5b50565b6000815190506200017e8162000153565b92915050565b600080604083850312156200019e576200019d6200011a565b5b6000620001ae858286016200016d565b9250506020620001c1858286016200016d565b9150509250929050565b6133a880620001db6000396000f3fe6080604052600436106101c65760003560e01c80638477a634116100f7578063a97533b811610095578063e35ba8ab11610064578063e35ba8ab146106c3578063e4a76726146106ee578063f318e55714610717578063ffebfc8c14610742576101fd565b8063a97533b814610612578063aa03f2ed1461063d578063ce5efee314610668578063dc17162414610693576101fd565b80639a61c36a116100d15780639a61c36a146105585780639c8f9f2314610595578063a40f4fa1146105be578063a8754803146105e7576101fd565b80638477a634146104b35780638da5cb5b146104f057806395cc4c5e1461051b576101fd565b8063405eae91116101645780634d2d757c1161013e5780634d2d757c1461041657806354cf2aeb146104415780637c2628711461046c57806381bace7d14610476576101fd565b8063405eae911461039057806340702adc146103bb5780634257dc4c146103e6576101fd565b806328593984116101a057806328593984146102c257806328da1aef146102ed5780632d4ce6691461032a5780632de9952a14610367576101fd565b8063131a6f011461022f5780631a6865021461025a57806324aabb9214610285576101fd565b366101fd576040517fdfaf840900000000000000000000000000000000000000000000000000000000815260040160405180910390fd5b6040517fdfaf840900000000000000000000000000000000000000000000000000000000815260040160405180910390fd5b34801561023b57600080fd5b5061024461077f565b6040516102519190612959565b60405180910390f35b34801561026657600080fd5b5061026f610831565b60405161027c9190612959565b60405180910390f35b34801561029157600080fd5b506102ac60048036038101906102a791906129dc565b610837565b6040516102b99190612959565b60405180910390f35b3480156102ce57600080fd5b506102d761084f565b6040516102e49190612959565b60405180910390f35b3480156102f957600080fd5b50610314600480360381019061030f9190612a35565b610855565b6040516103219190612959565b60405180910390f35b34801561033657600080fd5b50610351600480360381019061034c91906129dc565b6109c4565b60405161035e9190612959565b60405180910390f35b34801561037357600080fd5b5061038e60048036038101906103899190612b54565b610a56565b005b34801561039c57600080fd5b506103a5610c00565b6040516103b29190612bf7565b60405180910390f35b3480156103c757600080fd5b506103d0610caf565b6040516103dd9190612959565b60405180910390f35b61040060048036038101906103fb9190612c12565b610cb5565b60405161040d9190612959565b60405180910390f35b34801561042257600080fd5b5061042b6110c7565b6040516104389190612bf7565b60405180910390f35b34801561044d57600080fd5b50610456611130565b6040516104639190612959565b60405180910390f35b610474611136565b005b34801561048257600080fd5b5061049d600480360381019061049891906129dc565b61160e565b6040516104aa9190612959565b60405180910390f35b3480156104bf57600080fd5b506104da60048036038101906104d591906129dc565b611717565b6040516104e79190612959565b60405180910390f35b3480156104fc57600080fd5b5061050561172f565b6040516105129190612c4e565b60405180910390f35b34801561052757600080fd5b50610542600480360381019061053d9190612a35565b611755565b60405161054f9190612959565b60405180910390f35b34801561056457600080fd5b5061057f600480360381019061057a91906129dc565b61183e565b60405161058c9190612959565b60405180910390f35b3480156105a157600080fd5b506105bc60048036038101906105b79190612c12565b611856565b005b3480156105ca57600080fd5b506105e560048036038101906105e09190612c69565b611e02565b005b3480156105f357600080fd5b506105fc612107565b6040516106099190612c4e565b60405180910390f35b34801561061e57600080fd5b5061062761212d565b6040516106349190612959565b60405180910390f35b34801561064957600080fd5b50610652612161565b60405161065f9190612959565b60405180910390f35b34801561067457600080fd5b5061067d612212565b60405161068a9190612c4e565b60405180910390f35b6106ad60048036038101906106a89190612c12565b612236565b6040516106ba9190612959565b60405180910390f35b3480156106cf57600080fd5b506106d8612648565b6040516106e59190612959565b60405180910390f35b3480156106fa57600080fd5b5061071560048036038101906107109190612ca9565b61267c565b005b34801561072357600080fd5b5061072c612920565b6040516107399190612959565b60405180910390f35b34801561074e57600080fd5b50610769600480360381019061076491906129dc565b612928565b6040516107769190612959565b60405180910390f35b6000600160009054906101000a900473ffffffffffffffffffffffffffffffffffffffff1673ffffffffffffffffffffffffffffffffffffffff166370a08231306040518263ffffffff1660e01b81526004016107dc9190612c4e565b60206040518083038186803b1580156107f457600080fd5b505afa158015610808573d6000803e3d6000fd5b505050506040513d601f19601f8201168201806040525081019061082c9190612d11565b905090565b60035481565b60076020528060005260406000206000915090505481565b60045481565b60008060009054906101000a900473ffffffffffffffffffffffffffffffffffffffff1673ffffffffffffffffffffffffffffffffffffffff168373ffffffffffffffffffffffffffffffffffffffff1614156108f1576000826108b7612161565b6108c19190612d6d565b90506000816003546108d39190612df2565b9050806108de61077f565b6108e89190612e23565b925050506109be565b600160009054906101000a900473ffffffffffffffffffffffffffffffffffffffff1673ffffffffffffffffffffffffffffffffffffffff168373ffffffffffffffffffffffffffffffffffffffff16141561098c5760008261095261077f565b61095c9190612d6d565b905060008160035461096e9190612df2565b905080610979612161565b6109839190612e23565b925050506109be565b6040517fd526485500000000000000000000000000000000000000000000000000000000815260040160405180910390fd5b92915050565b60008173ffffffffffffffffffffffffffffffffffffffff166370a08231306040518263ffffffff1660e01b81526004016109ff9190612c4e565b60206040518083038186803b158015610a1757600080fd5b505afa158015610a2b573d6000803e3d6000fd5b505050506040513d601f19601f82011682018060405250810190610a4f9190612d11565b9050919050565b6000808383810190610a689190612e95565b9150915047821115610aa6576040517fbf0ebd8400000000000000000000000000000000000000000000000000000000815260040160405180910390fd5b81600860008373ffffffffffffffffffffffffffffffffffffffff1673ffffffffffffffffffffffffffffffffffffffff1681526020019081526020016000206000828254610af59190612d6d565b9250508190555060008173ffffffffffffffffffffffffffffffffffffffff1683604051610b2290612f06565b60006040518083038185875af1925050503d8060008114610b5f576040519150601f19603f3d011682016040523d82523d6000602084013e610b64565b606091505b5050905080610ba8576040517f08c379a0000000000000000000000000000000000000000000000000000000008152600401610b9f90612f78565b60405180910390fd5b3373ffffffffffffffffffffffffffffffffffffffff167fbf630ce062dbeaeb6c23a21390208b25de2ac16fb8502eab6054a70d9e34b8ec84604051610bee9190612959565b60405180910390a25050505050505050565b6000600960003373ffffffffffffffffffffffffffffffffffffffff1673ffffffffffffffffffffffffffffffffffffffff1681526020019081526020016000205060004290508062015180600960003373ffffffffffffffffffffffffffffffffffffffff1673ffffffffffffffffffffffffffffffffffffffff16815260200190815260200160002054610c969190612d6d565b1015610ca6576001915050610cac565b60009150505b90565b60025481565b6000600660149054906101000a900460ff1615610d07576040517f08c379a0000000000000000000000000000000000000000000000000000000008152600401610cfe90612fe4565b60405180910390fd5b6001600660146101000a81548160ff021916908315150217905550600554341015610d5e576040517fb08ede0900000000000000000000000000000000000000000000000000000000815260040160405180910390fd5b60055460046000828254610d729190612d6d565b92505081905550600060055434610d899190612e23565b90506000610d9561077f565b9050600084610da2612161565b610dac9190612d6d565b9050600081600354610dbe9190612df2565b905060008184610dce9190612e23565b905060008054906101000a900473ffffffffffffffffffffffffffffffffffffffff1673ffffffffffffffffffffffffffffffffffffffff166323b872dd33308a6040518463ffffffff1660e01b8152600401610e2d93929190613004565b602060405180830381600087803b158015610e4757600080fd5b505af1158015610e5b573d6000803e3d6000fd5b505050506040513d601f19601f82011682018060405250810190610e7f9190613067565b50600160009054906101000a900473ffffffffffffffffffffffffffffffffffffffff1673ffffffffffffffffffffffffffffffffffffffff1663a9059cbb33836040518363ffffffff1660e01b8152600401610edd929190613094565b602060405180830381600087803b158015610ef757600080fd5b505af1158015610f0b573d6000803e3d6000fd5b505050506040513d601f19601f82011682018060405250810190610f2f9190613067565b5060003373ffffffffffffffffffffffffffffffffffffffff1686604051610f5690612f06565b60006040518083038185875af1925050503d8060008114610f93576040519150601f19603f3d011682016040523d82523d6000602084013e610f98565b606091505b5050905080610fdc576040517f08c379a0000000000000000000000000000000000000000000000000000000008152600401610fd390612f78565b60405180910390fd5b7f6f32bb515641ec539b66bf327d21765de8c4200f94d348cee1dc835bb7532ab160008054906101000a900473ffffffffffffffffffffffffffffffffffffffff1661102661212d565b604051611034929190613094565b60405180910390a17f6f32bb515641ec539b66bf327d21765de8c4200f94d348cee1dc835bb7532ab1600160009054906101000a900473ffffffffffffffffffffffffffffffffffffffff16611088612648565b604051611096929190613094565b60405180910390a18196505050505050506000600660146101000a81548160ff021916908315150217905550919050565b60006301e13380600a60003373ffffffffffffffffffffffffffffffffffffffff1673ffffffffffffffffffffffffffffffffffffffff168152602001908152602001600020546111189190612d6d565b421115611128576001905061112d565b600090505b90565b60055481565b60001515611142610c00565b1515141561117c576040517ffdbfe33900000000000000000000000000000000000000000000000000000000815260040160405180910390fd5b6000600660009054906101000a900473ffffffffffffffffffffffffffffffffffffffff1673ffffffffffffffffffffffffffffffffffffffff1663fd1337a66040518163ffffffff1660e01b815260040160206040518083038186803b1580156111e657600080fd5b505afa1580156111fa573d6000803e3d6000fd5b505050506040513d601f19601f8201168201806040525081019061121e91906130d2565b90506000600660009054906101000a900473ffffffffffffffffffffffffffffffffffffffff1673ffffffffffffffffffffffffffffffffffffffff1663b42446596040518163ffffffff1660e01b815260040160206040518083038186803b15801561128a57600080fd5b505afa15801561129e573d6000803e3d6000fd5b505050506040513d601f19601f820116820180604052508101906112c2919061313d565b90506000600660009054906101000a900473ffffffffffffffffffffffffffffffffffffffff1673ffffffffffffffffffffffffffffffffffffffff1663620e3a646040518163ffffffff1660e01b815260040160206040518083038186803b15801561132e57600080fd5b505afa158015611342573d6000803e3d6000fd5b505050506040513d601f19601f82011682018060405250810190611366919061317f565b905060003360405160200161137b9190612c4e565b604051602081830303815290604052905060008373ffffffffffffffffffffffffffffffffffffffff1663207bae8a866040518263ffffffff1660e01b81526004016113c791906131bb565b60206040518083038186803b1580156113df57600080fd5b505afa1580156113f3573d6000803e3d6000fd5b505050506040513d601f19601f820116820180604052508101906114179190612d11565b90508373ffffffffffffffffffffffffffffffffffffffff1663b1d995dd828786866040518563ffffffff1660e01b81526004016114579392919061326f565b6020604051808303818588803b15801561147057600080fd5b505af1158015611484573d6000803e3d6000fd5b50505050506040513d601f19601f820116820180604052508101906114a991906132c2565b5060008473ffffffffffffffffffffffffffffffffffffffff1663207bae8a876040518263ffffffff1660e01b81526004016114e591906131bb565b60206040518083038186803b1580156114fd57600080fd5b505afa158015611511573d6000803e3d6000fd5b505050506040513d601f19601f820116820180604052508101906115359190612d11565b90506000600660009054906101000a900473ffffffffffffffffffffffffffffffffffffffff1673ffffffffffffffffffffffffffffffffffffffff168260405161157f90612f06565b60006040518083038185875af1925050503d80600081146115bc576040519150601f19603f3d011682016040523d82523d6000602084013e6115c1565b606091505b5050905080611605576040517f08c379a00000000000000000000000000000000000000000000000000000000081526004016115fc90612f78565b60405180910390fd5b50505050505050565b6000600660009054906101000a900473ffffffffffffffffffffffffffffffffffffffff1673ffffffffffffffffffffffffffffffffffffffff163373ffffffffffffffffffffffffffffffffffffffff161415801561169957503373ffffffffffffffffffffffffffffffffffffffff168273ffffffffffffffffffffffffffffffffffffffff16145b156116d0576040517f2ffae41300000000000000000000000000000000000000000000000000000000815260040160405180910390fd5b600760008373ffffffffffffffffffffffffffffffffffffffff1673ffffffffffffffffffffffffffffffffffffffff168152602001908152602001600020549050919050565b600a6020528060005260406000206000915090505481565b600660009054906101000a900473ffffffffffffffffffffffffffffffffffffffff1681565b60008060008054906101000a900473ffffffffffffffffffffffffffffffffffffffff1673ffffffffffffffffffffffffffffffffffffffff168473ffffffffffffffffffffffffffffffffffffffff1614156117e0576117b4612161565b670de0b6b3a76400006117c561077f565b6117cf91906132ef565b6117d99190612df2565b9050611810565b6117e861077f565b670de0b6b3a76400006117f9612161565b61180391906132ef565b61180d9190612df2565b90505b6000670de0b6b3a7640000828561182791906132ef565b6118319190612df2565b9050809250505092915050565b60086020528060005260406000206000915090505481565b600660149054906101000a900460ff16156118a6576040517f08c379a000000000000000000000000000000000000000000000000000000000815260040161189d90612fe4565b60405180910390fd5b6001600660146101000a81548160ff0219169083151502179055506000600760003373ffffffffffffffffffffffffffffffffffffffff1673ffffffffffffffffffffffffffffffffffffffff1681526020019081526020016000205490506000600354670de0b6b3a76400008361191e91906132ef565b6119289190612df2565b905060006064848361193a91906132ef565b6119449190612df2565b90506000670de0b6b3a7640000611959612161565b8361196491906132ef565b61196e9190612df2565b90506000670de0b6b3a764000061198361077f565b8461198e91906132ef565b6119989190612df2565b9050600660009054906101000a900473ffffffffffffffffffffffffffffffffffffffff1673ffffffffffffffffffffffffffffffffffffffff163373ffffffffffffffffffffffffffffffffffffffff16148015611a025750600015156119fe6110c7565b1515145b8015611a6457506002548183611a1891906132ef565b600760003373ffffffffffffffffffffffffffffffffffffffff1673ffffffffffffffffffffffffffffffffffffffff16815260200190815260200160002054611a629190612e23565b105b15611a9b576040517fbf0ebd8400000000000000000000000000000000000000000000000000000000815260040160405180910390fd5b8160008054906101000a900473ffffffffffffffffffffffffffffffffffffffff1673ffffffffffffffffffffffffffffffffffffffff166370a08231306040518263ffffffff1660e01b8152600401611af59190612c4e565b60206040518083038186803b158015611b0d57600080fd5b505afa158015611b21573d6000803e3d6000fd5b505050506040513d601f19601f82011682018060405250810190611b459190612d11565b1080611bfa575080600160009054906101000a900473ffffffffffffffffffffffffffffffffffffffff1673ffffffffffffffffffffffffffffffffffffffff166370a08231306040518263ffffffff1660e01b8152600401611ba89190612c4e565b60206040518083038186803b158015611bc057600080fd5b505afa158015611bd4573d6000803e3d6000fd5b505050506040513d601f19601f82011682018060405250810190611bf89190612d11565b105b15611c31576040517fbf0ebd8400000000000000000000000000000000000000000000000000000000815260040160405180910390fd5b60008054906101000a900473ffffffffffffffffffffffffffffffffffffffff1673ffffffffffffffffffffffffffffffffffffffff1663a9059cbb33846040518363ffffffff1660e01b8152600401611c8c929190613094565b602060405180830381600087803b158015611ca657600080fd5b505af1158015611cba573d6000803e3d6000fd5b505050506040513d601f19601f82011682018060405250810190611cde9190613067565b50600160009054906101000a900473ffffffffffffffffffffffffffffffffffffffff1673ffffffffffffffffffffffffffffffffffffffff1663a9059cbb33836040518363ffffffff1660e01b8152600401611d3c929190613094565b602060405180830381600087803b158015611d5657600080fd5b505af1158015611d6a573d6000803e3d6000fd5b505050506040513d601f19601f82011682018060405250810190611d8e9190613067565b503373ffffffffffffffffffffffffffffffffffffffff167fbad053f5b243c76f17611a28d4554167bd09e3491be13032dd4af620e8e228728383604051611dd7929190613349565b60405180910390a250505050506000600660146101000a81548160ff02191690831515021790555050565b600660009054906101000a9050506000600a6000600660009054906101000a900473ffffffffffffffffffffffffffffffffffffffff1673ffffffffffffffffffffffffffffffffffffffff1673ffffffffffffffffffffffffffffffffffffffff168152602001908152602001600020541115611eac576040517f17ebf42200000000000000000000000000000000000000000000000000000000815260040160405180910390fd5b42600a60003373ffffffffffffffffffffffffffffffffffffffff1673ffffffffffffffffffffffffffffffffffffffff1681526020019081526020016000208190555060008054906101000a900473ffffffffffffffffffffffffffffffffffffffff1673ffffffffffffffffffffffffffffffffffffffff166323b872dd3330856040518463ffffffff1660e01b8152600401611f4d93929190613004565b602060405180830381600087803b158015611f6757600080fd5b505af1158015611f7b573d6000803e3d6000fd5b505050506040513d601f19601f82011682018060405250810190611f9f9190613067565b50600160009054906101000a900473ffffffffffffffffffffffffffffffffffffffff1673ffffffffffffffffffffffffffffffffffffffff166323b872dd3330846040518463ffffffff1660e01b8152600401611fff93929190613004565b602060405180830381600087803b15801561201957600080fd5b505af115801561202d573d6000803e3d6000fd5b505050506040513d601f19601f820116820180604052508101906120519190613067565b50808261205e91906132ef565b600281905550600254600381905550600254600760003373ffffffffffffffffffffffffffffffffffffffff1673ffffffffffffffffffffffffffffffffffffffff168152602001908152602001600020819055503373ffffffffffffffffffffffffffffffffffffffff167fb27d7e2f60a2022903d49f653fbb6f06e4fd14fd5f2291655fb7c499645ba61483836040516120fb929190613349565b60405180910390a25050565b600160009054906101000a900473ffffffffffffffffffffffffffffffffffffffff1681565b6000612137612161565b670de0b6b3a764000061214861077f565b61215291906132ef565b61215c9190612df2565b905090565b60008060009054906101000a900473ffffffffffffffffffffffffffffffffffffffff1673ffffffffffffffffffffffffffffffffffffffff166370a08231306040518263ffffffff1660e01b81526004016121bd9190612c4e565b60206040518083038186803b1580156121d557600080fd5b505afa1580156121e9573d6000803e3d6000fd5b505050506040513d601f19601f8201168201806040525081019061220d9190612d11565b905090565b60008054906101000a900473ffffffffffffffffffffffffffffffffffffffff1681565b6000600660149054906101000a900460ff1615612288576040517f08c379a000000000000000000000000000000000000000000000000000000000815260040161227f90612fe4565b60405180910390fd5b6001600660146101000a81548160ff0219169083151502179055506005543410156122df576040517fb08ede0900000000000000000000000000000000000000000000000000000000815260040160405180910390fd5b600554600460008282546122f39190612d6d565b9250508190555060006005543461230a9190612e23565b90506000612316612161565b905060008461232361077f565b61232d9190612d6d565b905060008160035461233f9190612df2565b90506000818461234f9190612e23565b9050600160009054906101000a900473ffffffffffffffffffffffffffffffffffffffff1673ffffffffffffffffffffffffffffffffffffffff166323b872dd33308a6040518463ffffffff1660e01b81526004016123b093929190613004565b602060405180830381600087803b1580156123ca57600080fd5b505af11580156123de573d6000803e3d6000fd5b505050506040513d601f19601f820116820180604052508101906124029190613067565b5060008054906101000a900473ffffffffffffffffffffffffffffffffffffffff1673ffffffffffffffffffffffffffffffffffffffff1663a9059cbb33836040518363ffffffff1660e01b815260040161245e929190613094565b602060405180830381600087803b15801561247857600080fd5b505af115801561248c573d6000803e3d6000fd5b505050506040513d601f19601f820116820180604052508101906124b09190613067565b5060003373ffffffffffffffffffffffffffffffffffffffff16866040516124d790612f06565b60006040518083038185875af1925050503d8060008114612514576040519150601f19603f3d011682016040523d82523d6000602084013e612519565b606091505b505090508061255d576040517f08c379a000000000000000000000000000000000000000000000000000000000815260040161255490612f78565b60405180910390fd5b7f6f32bb515641ec539b66bf327d21765de8c4200f94d348cee1dc835bb7532ab160008054906101000a900473ffffffffffffffffffffffffffffffffffffffff166125a761212d565b6040516125b5929190613094565b60405180910390a17f6f32bb515641ec539b66bf327d21765de8c4200f94d348cee1dc835bb7532ab1600160009054906101000a900473ffffffffffffffffffffffffffffffffffffffff16612609612648565b604051612617929190613094565b60405180910390a18196505050505050506000600660146101000a81548160ff021916908315150217905550919050565b600061265261077f565b670de0b6b3a7640000612663612161565b61266d91906132ef565b6126779190612df2565b905090565b600660149054906101000a900460ff16156126cc576040517f08c379a00000000000000000000000000000000000000000000000000000000081526004016126c390612fe4565b60405180910390fd5b6001600660146101000a81548160ff0219169083151502179055508173ffffffffffffffffffffffffffffffffffffffff166323b872dd333061270f8786611755565b6040518463ffffffff1660e01b815260040161272d93929190613004565b602060405180830381600087803b15801561274757600080fd5b505af115801561275b573d6000803e3d6000fd5b505050506040513d601f19601f8201168201806040525081019061277f9190613067565b508273ffffffffffffffffffffffffffffffffffffffff166323b872dd3330846040518463ffffffff1660e01b81526004016127bd93929190613004565b602060405180830381600087803b1580156127d757600080fd5b505af11580156127eb573d6000803e3d6000fd5b505050506040513d601f19601f8201168201806040525081019061280f9190613067565b5061281a8382611755565b8161282591906132ef565b600760003373ffffffffffffffffffffffffffffffffffffffff1673ffffffffffffffffffffffffffffffffffffffff16815260200190815260200160002060008282546128739190612d6d565b925050819055506128848382611755565b8161288f91906132ef565b600360008282546128a09190612d6d565b925050819055503373ffffffffffffffffffffffffffffffffffffffff167fb27d7e2f60a2022903d49f653fbb6f06e4fd14fd5f2291655fb7c499645ba6146128e98584611755565b836040516128f8929190613349565b60405180910390a26000600660146101000a81548160ff021916908315150217905550505050565b600047905090565b60096020528060005260406000206000915090505481565b6000819050919050565b61295381612940565b82525050565b600060208201905061296e600083018461294a565b92915050565b600080fd5b600080fd5b600073ffffffffffffffffffffffffffffffffffffffff82169050919050565b60006129a98261297e565b9050919050565b6129b98161299e565b81146129c457600080fd5b50565b6000813590506129d6816129b0565b92915050565b6000602082840312156129f2576129f1612974565b5b6000612a00848285016129c7565b91505092915050565b612a1281612940565b8114612a1d57600080fd5b50565b600081359050612a2f81612a09565b92915050565b60008060408385031215612a4c57612a4b612974565b5b6000612a5a858286016129c7565b9250506020612a6b85828601612a20565b9150509250929050565b600061ffff82169050919050565b612a8c81612a75565b8114612a9757600080fd5b50565b600081359050612aa981612a83565b92915050565b600067ffffffffffffffff82169050919050565b612acc81612aaf565b8114612ad757600080fd5b50565b600081359050612ae981612ac3565b92915050565b600080fd5b600080fd5b600080fd5b60008083601f840112612b1457612b13612aef565b5b8235905067ffffffffffffffff811115612b3157612b30612af4565b5b602083019150836001820283011115612b4d57612b4c612af9565b5b9250929050565b600080600080600060808688031215612b7057612b6f612974565b5b6000612b7e88828901612a9a565b9550506020612b8f888289016129c7565b9450506040612ba088828901612ada565b935050606086013567ffffffffffffffff811115612bc157612bc0612979565b5b612bcd88828901612afe565b92509250509295509295909350565b60008115159050919050565b612bf181612bdc565b82525050565b6000602082019050612c0c6000830184612be8565b92915050565b600060208284031215612c2857612c27612974565b5b6000612c3684828501612a20565b91505092915050565b612c488161299e565b82525050565b6000602082019050612c636000830184612c3f565b92915050565b60008060408385031215612c8057612c7f612974565b5b6000612c8e85828601612a20565b9250506020612c9f85828601612a20565b9150509250929050565b600080600060608486031215612cc257612cc1612974565b5b6000612cd0868287016129c7565b9350506020612ce1868287016129c7565b9250506040612cf286828701612a20565b9150509250925092565b600081519050612d0b81612a09565b92915050565b600060208284031215612d2757612d26612974565b5b6000612d3584828501612cfc565b91505092915050565b7f4e487b7100000000000000000000000000000000000000000000000000000000600052601160045260246000fd5b6000612d7882612940565b9150612d8383612940565b9250827fffffffffffffffffffffffffffffffffffffffffffffffffffffffffffffffff03821115612db857612db7612d3e565b5b828201905092915050565b7f4e487b7100000000000000000000000000000000000000000000000000000000600052601260045260246000fd5b6000612dfd82612940565b9150612e0883612940565b925082612e1857612e17612dc3565b5b828204905092915050565b6000612e2e82612940565b9150612e3983612940565b925082821015612e4c57612e4b612d3e565b5b828203905092915050565b6000612e628261297e565b9050919050565b612e7281612e57565b8114612e7d57600080fd5b50565b600081359050612e8f81612e69565b92915050565b60008060408385031215612eac57612eab612974565b5b6000612eba85828601612a20565b9250506020612ecb85828601612e80565b9150509250929050565b600081905092915050565b50565b6000612ef0600083612ed5565b9150612efb82612ee0565b600082019050919050565b6000612f1182612ee3565b9150819050919050565b600082825260208201905092915050565b7f4661696c656420746f2073656e64204574686572000000000000000000000000600082015250565b6000612f62601483612f1b565b9150612f6d82612f2c565b602082019050919050565b60006020820190508181036000830152612f9181612f55565b9050919050565b7f4e6f2072652d656e7472616e6379000000000000000000000000000000000000600082015250565b6000612fce600e83612f1b565b9150612fd982612f98565b602082019050919050565b60006020820190508181036000830152612ffd81612fc1565b9050919050565b60006060820190506130196000830186612c3f565b6130266020830185612c3f565b613033604083018461294a565b949350505050565b61304481612bdc565b811461304f57600080fd5b50565b6000815190506130618161303b565b92915050565b60006020828403121561307d5761307c612974565b5b600061308b84828501613052565b91505092915050565b60006040820190506130a96000830185612c3f565b6130b6602083018461294a565b9392505050565b6000815190506130cc81612a83565b92915050565b6000602082840312156130e8576130e7612974565b5b60006130f6848285016130bd565b91505092915050565b600061310a8261299e565b9050919050565b61311a816130ff565b811461312557600080fd5b50565b60008151905061313781613111565b92915050565b60006020828403121561315357613152612974565b5b600061316184828501613128565b91505092915050565b600081519050613179816129b0565b92915050565b60006020828403121561319557613194612974565b5b60006131a38482850161316a565b91505092915050565b6131b581612a75565b82525050565b60006020820190506131d060008301846131ac565b92915050565b600081519050919050565b600082825260208201905092915050565b60005b838110156132105780820151818401526020810190506131f5565b8381111561321f576000848401525b50505050565b6000601f19601f8301169050919050565b6000613241826131d6565b61324b81856131e1565b935061325b8185602086016131f2565b61326481613225565b840191505092915050565b600060608201905061328460008301866131ac565b6132916020830185612c3f565b81810360408301526132a38184613236565b9050949350505050565b6000815190506132bc81612ac3565b92915050565b6000602082840312156132d8576132d7612974565b5b60006132e6848285016132ad565b91505092915050565b60006132fa82612940565b915061330583612940565b9250817fffffffffffffffffffffffffffffffffffffffffffffffffffffffffffffffff048311821515161561333e5761333d612d3e565b5b828202905092915050565b600060408201905061335e600083018561294a565b61336b602083018461294a565b939250505056fea2646970667358221220010fdc27ff5c802343ead69c8a7d88624884924a4eeefa60419523dbb171a2c064736f6c63430008090033a26469706673582212207b3ad532d0205b4b71d84a08eca1cdb991437d0d959ebf53b934ab7df9e08f0d64736f6c63430008090033",
  "devdoc": {
    "details": "Manages the creation and tracking of liquidity pools within a decentralized finance ecosystem. Utilizes Chainlink for accurate price feeds and OpenZeppelin's ERC20 for token interactions. Implements reentrancy guards to mitigate potential security vulnerabilities in contract interactions.",
    "kind": "dev",
    "methods": {
      "addRoutingAddress(address,address)": {
        "details": "Allows the contract owner to add or update the routing address for a token. This is used for token swaps and price feed lookups.",
        "params": {
          "priceFeed": "The Chainlink price feed address for the token.",
          "tokenAddress": "The token for which to set the routing."
        }
      },
      "createPool(address,address,uint256,uint256)": {
        "details": "Creates a liquidity pool for a given pair of ERC20 tokens. This function handles the initial transfer of token amounts from the caller, sets up the liquidity pool, and updates internal mappings. Emits a PoolCreated event upon successful creation. Requirements: - The token pair must not already have an existing pool. - The caller must have approved the contract to spend the necessary token amounts.",
        "params": {
          "_assetOneAddress": "The address of the first token in the pair.",
          "_assetTwoAddress": "The address of the second token in the pair.",
          "amountOne": "The amount of the first token to add to the pool.",
          "amountTwo": "The amount of the second token to add to the pool."
        }
      },
      "exists(address,address)": {
        "details": "Checks if a liquidity pool exists for a given pair of tokens.",
        "params": {
          "token1": "The address of the first token.",
          "token2": "The address of the second token."
        },
        "returns": {
          "_0": "bool Returns true if the pool exists, false otherwise."
        }
      },
      "getPoolPairsLength(address)": {
        "details": "Returns length or poolPairs array",
        "returns": {
          "_0": "uint256 Returns length."
        }
      },
      "getPools()": {
        "details": "Retrieve pool addresses",
        "returns": {
          "_0": "array Returns pools array"
        }
      },
      "getRoutingAddressesLength()": {
        "details": "Returns length or routingAddresses array",
        "returns": {
          "_0": "uint256 Returns length."
        }
      },
      "tokenList()": {
        "details": "Returns all array of all tradable tokens on the platform",
        "returns": {
          "_0": "array Returns tokens array."
        }
      },
      "withdrawEther()": {
        "details": "owner can withdraw the fees to deposit to yield Calculator"
      }
    },
    "title": "PoolTracker",
    "version": 1
  },
  "userdoc": {
    "kind": "user",
    "methods": {},
    "version": 1
  },
  "storageLayout": {
    "storage": [
      {
        "astId": 2023,
        "contract": "contracts/Dex/PoolTracker.sol:PoolTracker",
        "label": "owner",
        "offset": 0,
        "slot": "0",
        "type": "t_address"
      },
      {
        "astId": 2025,
        "contract": "contracts/Dex/PoolTracker.sol:PoolTracker",
        "label": "locked",
        "offset": 20,
        "slot": "0",
        "type": "t_bool"
      },
      {
        "astId": 2028,
        "contract": "contracts/Dex/PoolTracker.sol:PoolTracker",
        "label": "destinationChain",
        "offset": 21,
        "slot": "0",
        "type": "t_uint16"
      },
      {
        "astId": 2034,
        "contract": "contracts/Dex/PoolTracker.sol:PoolTracker",
        "label": "zkBridge",
        "offset": 0,
        "slot": "1",
        "type": "t_contract(IZKBridge)147"
      },
      {
        "astId": 2036,
        "contract": "contracts/Dex/PoolTracker.sol:PoolTracker",
        "label": "yieldCalculator",
        "offset": 0,
        "slot": "2",
        "type": "t_address"
      },
      {
        "astId": 2088,
        "contract": "contracts/Dex/PoolTracker.sol:PoolTracker",
        "label": "poolPairs",
        "offset": 0,
        "slot": "3",
        "type": "t_mapping(t_address,t_array(t_address)dyn_storage)"
      },
      {
        "astId": 2095,
        "contract": "contracts/Dex/PoolTracker.sol:PoolTracker",
        "label": "pairToPool",
        "offset": 0,
        "slot": "4",
        "type": "t_mapping(t_address,t_mapping(t_address,t_contract(LiquidityPool)1402))"
      },
      {
        "astId": 2098,
        "contract": "contracts/Dex/PoolTracker.sol:PoolTracker",
        "label": "tokens",
        "offset": 0,
        "slot": "5",
        "type": "t_array(t_address)dyn_storage"
      },
      {
        "astId": 2101,
        "contract": "contracts/Dex/PoolTracker.sol:PoolTracker",
        "label": "pools",
        "offset": 0,
        "slot": "6",
        "type": "t_array(t_address)dyn_storage"
      },
      {
        "astId": 2351,
        "contract": "contracts/Dex/PoolTracker.sol:PoolTracker",
        "label": "routingAddresses",
        "offset": 0,
        "slot": "7",
        "type": "t_array(t_struct(routingAddress)2347_storage)dyn_storage"
      }
    ],
    "types": {
      "t_address": {
        "encoding": "inplace",
        "label": "address",
        "numberOfBytes": "20"
      },
      "t_array(t_address)dyn_storage": {
        "base": "t_address",
        "encoding": "dynamic_array",
        "label": "address[]",
        "numberOfBytes": "32"
      },
      "t_array(t_struct(routingAddress)2347_storage)dyn_storage": {
        "base": "t_struct(routingAddress)2347_storage",
        "encoding": "dynamic_array",
        "label": "struct PoolTracker.routingAddress[]",
        "numberOfBytes": "32"
      },
      "t_bool": {
        "encoding": "inplace",
        "label": "bool",
        "numberOfBytes": "1"
      },
      "t_contract(IZKBridge)147": {
        "encoding": "inplace",
        "label": "contract IZKBridge",
        "numberOfBytes": "20"
      },
      "t_contract(LiquidityPool)1402": {
        "encoding": "inplace",
        "label": "contract LiquidityPool",
        "numberOfBytes": "20"
      },
      "t_mapping(t_address,t_array(t_address)dyn_storage)": {
        "encoding": "mapping",
        "key": "t_address",
        "label": "mapping(address => address[])",
        "numberOfBytes": "32",
        "value": "t_array(t_address)dyn_storage"
      },
      "t_mapping(t_address,t_contract(LiquidityPool)1402)": {
        "encoding": "mapping",
        "key": "t_address",
        "label": "mapping(address => contract LiquidityPool)",
        "numberOfBytes": "32",
        "value": "t_contract(LiquidityPool)1402"
      },
      "t_mapping(t_address,t_mapping(t_address,t_contract(LiquidityPool)1402))": {
        "encoding": "mapping",
        "key": "t_address",
        "label": "mapping(address => mapping(address => contract LiquidityPool))",
        "numberOfBytes": "32",
        "value": "t_mapping(t_address,t_contract(LiquidityPool)1402)"
      },
      "t_struct(routingAddress)2347_storage": {
        "encoding": "inplace",
        "label": "struct PoolTracker.routingAddress",
        "members": [
          {
            "astId": 2344,
            "contract": "contracts/Dex/PoolTracker.sol:PoolTracker",
            "label": "tokenAddress",
            "offset": 0,
            "slot": "0",
            "type": "t_address"
          },
          {
            "astId": 2346,
            "contract": "contracts/Dex/PoolTracker.sol:PoolTracker",
            "label": "priceFeed",
            "offset": 0,
            "slot": "1",
            "type": "t_address"
          }
        ],
        "numberOfBytes": "64"
      },
      "t_uint16": {
        "encoding": "inplace",
        "label": "uint16",
        "numberOfBytes": "2"
      }
    }
  }
}