{
  "address": "0x53CD8F14FD463c89853D706b9556ea80889e6F1d",
  "abi": [
    {
      "inputs": [
        {
          "internalType": "address",
          "name": "_poolTracker",
          "type": "address"
        },
        {
          "internalType": "address",
          "name": "_ethPriceFeed",
          "type": "address"
        },
        {
          "internalType": "address",
          "name": "_swapRouter",
          "type": "address"
        }
      ],
      "stateMutability": "nonpayable",
      "type": "constructor"
    },
    {
      "inputs": [
        {
          "internalType": "address",
          "name": "tokenAddress",
          "type": "address"
        },
        {
          "internalType": "address",
          "name": "tokenAddress2",
          "type": "address"
        }
      ],
      "name": "dailyRate",
      "outputs": [
        {
          "internalType": "uint256",
          "name": "",
          "type": "uint256"
        }
      ],
      "stateMutability": "view",
      "type": "function"
    },
    {
      "inputs": [
        {
          "internalType": "address",
          "name": "tokenAddress",
          "type": "address"
        },
        {
          "internalType": "address",
          "name": "tokenAddress2",
          "type": "address"
        }
      ],
      "name": "dailyRoi",
      "outputs": [
        {
          "internalType": "uint256",
          "name": "",
          "type": "uint256"
        }
      ],
      "stateMutability": "view",
      "type": "function"
    },
    {
      "inputs": [],
      "name": "ethPriceFeed",
      "outputs": [
        {
          "internalType": "address",
          "name": "",
          "type": "address"
        }
      ],
      "stateMutability": "view",
      "type": "function"
    },
    {
      "inputs": [
        {
          "internalType": "address",
          "name": "tokenAddress",
          "type": "address"
        }
      ],
      "name": "marketCap",
      "outputs": [
        {
          "internalType": "uint256",
          "name": "",
          "type": "uint256"
        }
      ],
      "stateMutability": "view",
      "type": "function"
    },
    {
      "inputs": [
        {
          "internalType": "address",
          "name": "tokenAddress",
          "type": "address"
        },
        {
          "internalType": "address",
          "name": "tokenAddress2",
          "type": "address"
        }
      ],
      "name": "pairMarketCap",
      "outputs": [
        {
          "internalType": "uint256",
          "name": "",
          "type": "uint256"
        }
      ],
      "stateMutability": "view",
      "type": "function"
    },
    {
      "inputs": [
        {
          "internalType": "address",
          "name": "tokenAddress",
          "type": "address"
        },
        {
          "internalType": "address",
          "name": "tokenAddress2",
          "type": "address"
        }
      ],
      "name": "pairTvl",
      "outputs": [
        {
          "internalType": "uint256",
          "name": "",
          "type": "uint256"
        }
      ],
      "stateMutability": "view",
      "type": "function"
    },
    {
      "inputs": [
        {
          "internalType": "address",
          "name": "tokenAddress",
          "type": "address"
        },
        {
          "internalType": "address",
          "name": "tokenAddress2",
          "type": "address"
        }
      ],
      "name": "pairTvlRatio",
      "outputs": [
        {
          "internalType": "uint256",
          "name": "",
          "type": "uint256"
        }
      ],
      "stateMutability": "view",
      "type": "function"
    },
    {
      "inputs": [],
      "name": "poolTracker",
      "outputs": [
        {
          "internalType": "contract PoolTracker",
          "name": "",
          "type": "address"
        }
      ],
      "stateMutability": "view",
      "type": "function"
    },
    {
      "inputs": [],
      "name": "swapRouter",
      "outputs": [
        {
          "internalType": "contract SwapRouter",
          "name": "",
          "type": "address"
        }
      ],
      "stateMutability": "view",
      "type": "function"
    },
    {
      "inputs": [
        {
          "internalType": "address",
          "name": "tokenAddress",
          "type": "address"
        },
        {
          "internalType": "address",
          "name": "tokenAddress2",
          "type": "address"
        }
      ],
      "name": "totalRoi",
      "outputs": [
        {
          "internalType": "uint256",
          "name": "",
          "type": "uint256"
        }
      ],
      "stateMutability": "view",
      "type": "function"
    },
    {
      "inputs": [
        {
          "internalType": "address",
          "name": "tokenAddress",
          "type": "address"
        }
      ],
      "name": "tvl",
      "outputs": [
        {
          "internalType": "uint256",
          "name": "",
          "type": "uint256"
        }
      ],
      "stateMutability": "view",
      "type": "function"
    },
    {
      "inputs": [
        {
          "internalType": "address",
          "name": "tokenAddress",
          "type": "address"
        }
      ],
      "name": "tvlRatio",
      "outputs": [
        {
          "internalType": "uint256",
          "name": "",
          "type": "uint256"
        }
      ],
      "stateMutability": "view",
      "type": "function"
    },
    {
      "inputs": [
        {
          "internalType": "address",
          "name": "tokenAddress",
          "type": "address"
        },
        {
          "internalType": "uint256",
          "name": "tokenAmount",
          "type": "uint256"
        }
      ],
      "name": "usdValue",
      "outputs": [
        {
          "internalType": "uint256",
          "name": "",
          "type": "uint256"
        }
      ],
      "stateMutability": "view",
      "type": "function"
    }
  ],
  "transactionHash": "0xb56eab8044df87503c45bfe9e0969badd9881692c66a0d15e7cf1b2ca5066e1d",
  "args": [
    "0x603D1517726A1b3A4BFA097eaBdB8A2d9F633Cf1",
    "0x143db3CEEfbdfe5631aDD3E50f7614B6ba708BA7",
    "0x4B31F790563Ca71FE10cA47D358e818F710ded62"
  ],
  "numDeployments": 11,
  "solcInputHash": "f0a7192d4cafea1c59406f0a93a82552",
  "bytecode": "0x60806040523480156200001157600080fd5b50604051620021583803806200215883398181016040528101906200003791906200016c565b826000806101000a81548173ffffffffffffffffffffffffffffffffffffffff021916908373ffffffffffffffffffffffffffffffffffffffff16021790555080600160006101000a81548173ffffffffffffffffffffffffffffffffffffffff021916908373ffffffffffffffffffffffffffffffffffffffff16021790555081600260006101000a81548173ffffffffffffffffffffffffffffffffffffffff021916908373ffffffffffffffffffffffffffffffffffffffff160217905550505050620001c8565b600080fd5b600073ffffffffffffffffffffffffffffffffffffffff82169050919050565b6000620001348262000107565b9050919050565b620001468162000127565b81146200015257600080fd5b50565b60008151905062000166816200013b565b92915050565b60008060006060848603121562000188576200018762000102565b5b6000620001988682870162000155565b9350506020620001ab8682870162000155565b9250506040620001be8682870162000155565b9150509250925092565b611f8080620001d86000396000f3fe608060405234801561001057600080fd5b50600436106100cf5760003560e01c8063af7665ce1161008c578063c31c9c0711610066578063c31c9c0714610260578063c4fb32c31461027e578063e75db616146102ae578063ef610d8d146102de576100cf565b8063af7665ce146101e2578063bca04ec414610200578063c26fa28d14610230576100cf565b80631212033b146100d457806328a724ac146101045780634e5a9729146101225780636d3e08b7146101525780637c56176114610182578063931f63f8146101b2575b600080fd5b6100ee60048036038101906100e99190611909565b61030e565b6040516100fb9190611962565b60405180910390f35b61010c610441565b60405161011991906119dc565b60405180910390f35b61013c60048036038101906101379190611909565b610465565b6040516101499190611962565b60405180910390f35b61016c60048036038101906101679190611909565b61065e565b6040516101799190611962565b60405180910390f35b61019c60048036038101906101979190611909565b6108da565b6040516101a99190611962565b60405180910390f35b6101cc60048036038101906101c79190611909565b61090e565b6040516101d99190611962565b60405180910390f35b6101ea610be6565b6040516101f79190611a06565b60405180910390f35b61021a60048036038101906102159190611a21565b610c0c565b6040516102279190611962565b60405180910390f35b61024a60048036038101906102459190611909565b610c3d565b6040516102579190611962565b60405180910390f35b610268610cad565b6040516102759190611a81565b60405180910390f35b61029860048036038101906102939190611a21565b610cd3565b6040516102a59190611962565b60405180910390f35b6102c860048036038101906102c39190611a21565b610d63565b6040516102d59190611962565b60405180910390f35b6102f860048036038101906102f39190611ac8565b61103e565b6040516103059190611962565b60405180910390f35b6000808373ffffffffffffffffffffffffffffffffffffffff166318160ddd6040518163ffffffff1660e01b815260040160206040518083038186803b15801561035757600080fd5b505afa15801561036b573d6000803e3d6000fd5b505050506040513d601f19601f8201168201806040525081019061038f9190611b1d565b905060008373ffffffffffffffffffffffffffffffffffffffff166318160ddd6040518163ffffffff1660e01b815260040160206040518083038186803b1580156103d957600080fd5b505afa1580156103ed573d6000803e3d6000fd5b505050506040513d601f19601f820116820180604052508101906104119190611b1d565b9050600061041f858361103e565b610429878561103e565b6104339190611b79565b905080935050505092915050565b60008054906101000a900473ffffffffffffffffffffffffffffffffffffffff1681565b60008060008054906101000a900473ffffffffffffffffffffffffffffffffffffffff1673ffffffffffffffffffffffffffffffffffffffff16638b273a6885856040518363ffffffff1660e01b81526004016104c3929190611bcf565b60206040518083038186803b1580156104db57600080fd5b505afa1580156104ef573d6000803e3d6000fd5b505050506040513d601f19601f820116820180604052508101906105139190611c48565b905060008473ffffffffffffffffffffffffffffffffffffffff166370a08231836040518263ffffffff1660e01b81526004016105509190611a06565b60206040518083038186803b15801561056857600080fd5b505afa15801561057c573d6000803e3d6000fd5b505050506040513d601f19601f820116820180604052508101906105a09190611b1d565b905060008473ffffffffffffffffffffffffffffffffffffffff166370a08231846040518263ffffffff1660e01b81526004016105dd9190611a06565b60206040518083038186803b1580156105f557600080fd5b505afa158015610609573d6000803e3d6000fd5b505050506040513d601f19601f8201168201806040525081019061062d9190611b1d565b9050600061063b868361103e565b610645888561103e565b61064f9190611b79565b90508094505050505092915050565b60008060008054906101000a900473ffffffffffffffffffffffffffffffffffffffff1673ffffffffffffffffffffffffffffffffffffffff16638b273a6885856040518363ffffffff1660e01b81526004016106bc929190611bcf565b60206040518083038186803b1580156106d457600080fd5b505afa1580156106e8573d6000803e3d6000fd5b505050506040513d601f19601f8201168201806040525081019061070c9190611c48565b905060008173ffffffffffffffffffffffffffffffffffffffff1663285939846040518163ffffffff1660e01b815260040160206040518083038186803b15801561075657600080fd5b505afa15801561076a573d6000803e3d6000fd5b505050506040513d601f19601f8201168201806040525081019061078e9190611b1d565b905060008273ffffffffffffffffffffffffffffffffffffffff16638477a6348473ffffffffffffffffffffffffffffffffffffffff16638da5cb5b6040518163ffffffff1660e01b815260040160206040518083038186803b1580156107f457600080fd5b505afa158015610808573d6000803e3d6000fd5b505050506040513d601f19601f8201168201806040525081019061082c9190611c8a565b6040518263ffffffff1660e01b81526004016108489190611a06565b60206040518083038186803b15801561086057600080fd5b505afa158015610874573d6000803e3d6000fd5b505050506040513d601f19601f820116820180604052508101906108989190611b1d565b905060006018603c83426108ac9190611cb7565b6108b69190611d1a565b6108c09190611d1a565b905080836108ce9190611d1a565b94505050505092915050565b60006108e6838361030e565b60646108f28585610465565b6108fc9190611d4b565b6109069190611d1a565b905092915050565b60008060008054906101000a900473ffffffffffffffffffffffffffffffffffffffff1673ffffffffffffffffffffffffffffffffffffffff16638b273a6885856040518363ffffffff1660e01b815260040161096c929190611bcf565b60206040518083038186803b15801561098457600080fd5b505afa158015610998573d6000803e3d6000fd5b505050506040513d601f19601f820116820180604052508101906109bc9190611c48565b905060006109eb600260009054906101000a900473ffffffffffffffffffffffffffffffffffffffff16611816565b8273ffffffffffffffffffffffffffffffffffffffff1663285939846040518163ffffffff1660e01b815260040160206040518083038186803b158015610a3157600080fd5b505afa158015610a45573d6000803e3d6000fd5b505050506040513d601f19601f82011682018060405250810190610a699190611b1d565b610a739190611d4b565b905060008573ffffffffffffffffffffffffffffffffffffffff166370a08231846040518263ffffffff1660e01b8152600401610ab09190611a06565b60206040518083038186803b158015610ac857600080fd5b505afa158015610adc573d6000803e3d6000fd5b505050506040513d601f19601f82011682018060405250810190610b009190611b1d565b905060008573ffffffffffffffffffffffffffffffffffffffff166370a08231856040518263ffffffff1660e01b8152600401610b3d9190611a06565b60206040518083038186803b158015610b5557600080fd5b505afa158015610b69573d6000803e3d6000fd5b505050506040513d601f19601f82011682018060405250810190610b8d9190611b1d565b9050610b99868261103e565b610ba3888461103e565b610bad9190611b79565b6a52b7d2dcc80cd2e4000000606485610bc69190611d4b565b610bd09190611d4b565b610bda9190611d1a565b94505050505092915050565b600260009054906101000a900473ffffffffffffffffffffffffffffffffffffffff1681565b6000610c1782610cd3565b6064610c2284610d63565b610c2c9190611d4b565b610c369190611d1a565b9050919050565b6000610c498383610465565b670de0b6b3a7640000610c5c858561065e565b610c87600260009054906101000a900473ffffffffffffffffffffffffffffffffffffffff16611816565b610c919190611d4b565b610c9b9190611d4b565b610ca59190611d1a565b905092915050565b600160009054906101000a900473ffffffffffffffffffffffffffffffffffffffff1681565b6000610d5c828373ffffffffffffffffffffffffffffffffffffffff166318160ddd6040518163ffffffff1660e01b815260040160206040518083038186803b158015610d1f57600080fd5b505afa158015610d33573d6000803e3d6000fd5b505050506040513d601f19601f82011682018060405250810190610d579190611b1d565b61103e565b9050919050565b60008060008060009054906101000a900473ffffffffffffffffffffffffffffffffffffffff1673ffffffffffffffffffffffffffffffffffffffff1663f5ff5061856040518263ffffffff1660e01b8152600401610dc29190611a06565b60206040518083038186803b158015610dda57600080fd5b505afa158015610dee573d6000803e3d6000fd5b505050506040513d601f19601f82011682018060405250810190610e129190611b1d565b905060005b8181101561102a5760008060009054906101000a900473ffffffffffffffffffffffffffffffffffffffff1673ffffffffffffffffffffffffffffffffffffffff16638c75d89d87846040518363ffffffff1660e01b8152600401610e7d929190611da5565b60206040518083038186803b158015610e9557600080fd5b505afa158015610ea9573d6000803e3d6000fd5b505050506040513d601f19601f82011682018060405250810190610ecd9190611c8a565b905060008060009054906101000a900473ffffffffffffffffffffffffffffffffffffffff1673ffffffffffffffffffffffffffffffffffffffff16638b273a6888846040518363ffffffff1660e01b8152600401610f2d929190611bcf565b60206040518083038186803b158015610f4557600080fd5b505afa158015610f59573d6000803e3d6000fd5b505050506040513d601f19601f82011682018060405250810190610f7d9190611c48565b90508673ffffffffffffffffffffffffffffffffffffffff166370a08231826040518263ffffffff1660e01b8152600401610fb89190611a06565b60206040518083038186803b158015610fd057600080fd5b505afa158015610fe4573d6000803e3d6000fd5b505050506040513d601f19601f820116820180604052508101906110089190611b1d565b856110139190611b79565b94505050808061102290611dce565b915050610e17565b50611035848361103e565b92505050919050565b6000805b60008054906101000a900473ffffffffffffffffffffffffffffffffffffffff1673ffffffffffffffffffffffffffffffffffffffff1663941230606040518163ffffffff1660e01b815260040160206040518083038186803b1580156110a857600080fd5b505afa1580156110bc573d6000803e3d6000fd5b505050506040513d601f19601f820116820180604052508101906110e09190611b1d565b8110156111fd5760008060008054906101000a900473ffffffffffffffffffffffffffffffffffffffff1673ffffffffffffffffffffffffffffffffffffffff1663930186f2846040518263ffffffff1660e01b81526004016111439190611962565b604080518083038186803b15801561115a57600080fd5b505afa15801561116e573d6000803e3d6000fd5b505050506040513d601f19601f820116820180604052508101906111929190611e17565b915091508573ffffffffffffffffffffffffffffffffffffffff168273ffffffffffffffffffffffffffffffffffffffff1614156111e857846111d482611816565b6111de9190611d4b565b9350505050611810565b505080806111f590611dce565b915050611042565b5060005b60008054906101000a900473ffffffffffffffffffffffffffffffffffffffff1673ffffffffffffffffffffffffffffffffffffffff1663941230606040518163ffffffff1660e01b815260040160206040518083038186803b15801561126757600080fd5b505afa15801561127b573d6000803e3d6000fd5b505050506040513d601f19601f8201168201806040525081019061129f9190611b1d565b81101561180a5760008060008054906101000a900473ffffffffffffffffffffffffffffffffffffffff1673ffffffffffffffffffffffffffffffffffffffff1663930186f2846040518263ffffffff1660e01b81526004016113029190611962565b604080518083038186803b15801561131957600080fd5b505afa15801561132d573d6000803e3d6000fd5b505050506040513d601f19601f820116820180604052508101906113519190611e17565b91509150600073ffffffffffffffffffffffffffffffffffffffff1660008054906101000a900473ffffffffffffffffffffffffffffffffffffffff1673ffffffffffffffffffffffffffffffffffffffff16638b273a6888856040518363ffffffff1660e01b81526004016113c8929190611bcf565b60206040518083038186803b1580156113e057600080fd5b505afa1580156113f4573d6000803e3d6000fd5b505050506040513d601f19601f820116820180604052508101906114189190611c48565b73ffffffffffffffffffffffffffffffffffffffff16146117f55760008060009054906101000a900473ffffffffffffffffffffffffffffffffffffffff1673ffffffffffffffffffffffffffffffffffffffff16638b273a6888856040518363ffffffff1660e01b8152600401611491929190611bcf565b60206040518083038186803b1580156114a957600080fd5b505afa1580156114bd573d6000803e3d6000fd5b505050506040513d601f19601f820116820180604052508101906114e19190611c48565b905060008773ffffffffffffffffffffffffffffffffffffffff168273ffffffffffffffffffffffffffffffffffffffff1663ce5efee36040518163ffffffff1660e01b815260040160206040518083038186803b15801561154257600080fd5b505afa158015611556573d6000803e3d6000fd5b505050506040513d601f19601f8201168201806040525081019061157a9190611c8a565b73ffffffffffffffffffffffffffffffffffffffff1614156116c1578173ffffffffffffffffffffffffffffffffffffffff1663131a6f016040518163ffffffff1660e01b815260040160206040518083038186803b1580156115dc57600080fd5b505afa1580156115f0573d6000803e3d6000fd5b505050506040513d601f19601f820116820180604052508101906116149190611b1d565b8273ffffffffffffffffffffffffffffffffffffffff1663aa03f2ed6040518163ffffffff1660e01b815260040160206040518083038186803b15801561165a57600080fd5b505afa15801561166e573d6000803e3d6000fd5b505050506040513d601f19601f820116820180604052508101906116929190611b1d565b8861169c86611816565b6116a69190611d4b565b6116b09190611d4b565b6116ba9190611d1a565b90506117e8565b8173ffffffffffffffffffffffffffffffffffffffff1663aa03f2ed6040518163ffffffff1660e01b815260040160206040518083038186803b15801561170757600080fd5b505afa15801561171b573d6000803e3d6000fd5b505050506040513d601f19601f8201168201806040525081019061173f9190611b1d565b8273ffffffffffffffffffffffffffffffffffffffff1663131a6f016040518163ffffffff1660e01b815260040160206040518083038186803b15801561178557600080fd5b505afa158015611799573d6000803e3d6000fd5b505050506040513d601f19601f820116820180604052508101906117bd9190611b1d565b886117c786611816565b6117d19190611d4b565b6117db9190611d4b565b6117e59190611d1a565b90505b8095505050505050611810565b5050808061180290611dce565b915050611201565b50600090505b92915050565b6000808273ffffffffffffffffffffffffffffffffffffffff1663feaf968c6040518163ffffffff1660e01b815260040160a06040518083038186803b15801561185f57600080fd5b505afa158015611873573d6000803e3d6000fd5b505050506040513d601f19601f820116820180604052508101906118979190611ecf565b50505091505080915050919050565b600080fd5b600073ffffffffffffffffffffffffffffffffffffffff82169050919050565b60006118d6826118ab565b9050919050565b6118e6816118cb565b81146118f157600080fd5b50565b600081359050611903816118dd565b92915050565b600080604083850312156119205761191f6118a6565b5b600061192e858286016118f4565b925050602061193f858286016118f4565b9150509250929050565b6000819050919050565b61195c81611949565b82525050565b60006020820190506119776000830184611953565b92915050565b6000819050919050565b60006119a261199d611998846118ab565b61197d565b6118ab565b9050919050565b60006119b482611987565b9050919050565b60006119c6826119a9565b9050919050565b6119d6816119bb565b82525050565b60006020820190506119f160008301846119cd565b92915050565b611a00816118cb565b82525050565b6000602082019050611a1b60008301846119f7565b92915050565b600060208284031215611a3757611a366118a6565b5b6000611a45848285016118f4565b91505092915050565b6000611a5982611987565b9050919050565b6000611a6b82611a4e565b9050919050565b611a7b81611a60565b82525050565b6000602082019050611a966000830184611a72565b92915050565b611aa581611949565b8114611ab057600080fd5b50565b600081359050611ac281611a9c565b92915050565b60008060408385031215611adf57611ade6118a6565b5b6000611aed858286016118f4565b9250506020611afe85828601611ab3565b9150509250929050565b600081519050611b1781611a9c565b92915050565b600060208284031215611b3357611b326118a6565b5b6000611b4184828501611b08565b91505092915050565b7f4e487b7100000000000000000000000000000000000000000000000000000000600052601160045260246000fd5b6000611b8482611949565b9150611b8f83611949565b9250827fffffffffffffffffffffffffffffffffffffffffffffffffffffffffffffffff03821115611bc457611bc3611b4a565b5b828201905092915050565b6000604082019050611be460008301856119f7565b611bf160208301846119f7565b9392505050565b6000611c03826118ab565b9050919050565b6000611c1582611bf8565b9050919050565b611c2581611c0a565b8114611c3057600080fd5b50565b600081519050611c4281611c1c565b92915050565b600060208284031215611c5e57611c5d6118a6565b5b6000611c6c84828501611c33565b91505092915050565b600081519050611c84816118dd565b92915050565b600060208284031215611ca057611c9f6118a6565b5b6000611cae84828501611c75565b91505092915050565b6000611cc282611949565b9150611ccd83611949565b925082821015611ce057611cdf611b4a565b5b828203905092915050565b7f4e487b7100000000000000000000000000000000000000000000000000000000600052601260045260246000fd5b6000611d2582611949565b9150611d3083611949565b925082611d4057611d3f611ceb565b5b828204905092915050565b6000611d5682611949565b9150611d6183611949565b9250817fffffffffffffffffffffffffffffffffffffffffffffffffffffffffffffffff0483118215151615611d9a57611d99611b4a565b5b828202905092915050565b6000604082019050611dba60008301856119f7565b611dc76020830184611953565b9392505050565b6000611dd982611949565b91507fffffffffffffffffffffffffffffffffffffffffffffffffffffffffffffffff821415611e0c57611e0b611b4a565b5b600182019050919050565b60008060408385031215611e2e57611e2d6118a6565b5b6000611e3c85828601611c75565b9250506020611e4d85828601611c75565b9150509250929050565b600069ffffffffffffffffffff82169050919050565b611e7681611e57565b8114611e8157600080fd5b50565b600081519050611e9381611e6d565b92915050565b6000819050919050565b611eac81611e99565b8114611eb757600080fd5b50565b600081519050611ec981611ea3565b92915050565b600080600080600060a08688031215611eeb57611eea6118a6565b5b6000611ef988828901611e84565b9550506020611f0a88828901611eba565b9450506040611f1b88828901611b08565b9350506060611f2c88828901611b08565b9250506080611f3d88828901611e84565b915050929550929590935056fea26469706673582212200b6b93ec36cea90d580fb3d16a245e1583461714666e95a93ad029a8d9b3593164736f6c63430008090033",
  "devdoc": {
    "details": "Smart contract for computing various on chain metrics related to liquidity pools and tokens.",
    "kind": "dev",
    "methods": {
      "constructor": {
        "details": "Constructor function initializes the PoolTracker and ETH price feed addresses.",
        "params": {
          "_ethPriceFeed": "Address of the ETH price feed contract.",
          "_poolTracker": "Address of the PoolTracker contract."
        }
      },
      "dailyRate(address,address)": {
        "details": "Computes the daily yield rate for a liquidity pool with two tokens.",
        "params": {
          "tokenAddress": "Address of the first token.",
          "tokenAddress2": "Address of the second token."
        },
        "returns": {
          "_0": "The daily yield rate of the liquidity pool."
        }
      },
      "dailyRoi(address,address)": {
        "details": "Computes the daily ROI for a liquidity pool with two tokens.",
        "params": {
          "tokenAddress": "Address of the first token.",
          "tokenAddress2": "Address of the second token."
        },
        "returns": {
          "_0": "The daily ROI of the liquidity pool."
        }
      },
      "marketCap(address)": {
        "details": "Computes the market capitalization of a token.",
        "params": {
          "tokenAddress": "Address of the token."
        },
        "returns": {
          "_0": "The market capitalization of the token."
        }
      },
      "pairMarketCap(address,address)": {
        "details": "Computes the combined market capitalization of two tokens.",
        "params": {
          "tokenAddress": "Address of the first token.",
          "tokenAddress2": "Address of the second token."
        },
        "returns": {
          "_0": "The combined market capitalization of the two tokens."
        }
      },
      "pairTvl(address,address)": {
        "details": "Computes the combined TVL of two tokens in a liquidity pool.",
        "params": {
          "tokenAddress": "Address of the first token.",
          "tokenAddress2": "Address of the second token."
        },
        "returns": {
          "_0": "The combined TVL of the two tokens."
        }
      },
      "pairTvlRatio(address,address)": {
        "details": "Computes the TVL ratio of a pool, which is pair TVL divided by pair market capitalization.",
        "params": {
          "tokenAddress": "Address of the token."
        },
        "returns": {
          "_0": "The TVL ratio of the token."
        }
      },
      "totalRoi(address,address)": {
        "details": "Computes the total return on investment (ROI) for a liquidity pool with two tokens.",
        "params": {
          "tokenAddress": "Address of the first token.",
          "tokenAddress2": "Address of the second token."
        },
        "returns": {
          "_0": "The total ROI of the liquidity pool."
        }
      },
      "tvl(address)": {
        "details": "Computes the total value locked (TVL) in a liquidity pool for a given token.",
        "params": {
          "tokenAddress": "Address of the token."
        },
        "returns": {
          "_0": "The TVL of the token."
        }
      },
      "tvlRatio(address)": {
        "details": "Computes the TVL ratio of a token, which is TVL divided by market capitalization.",
        "params": {
          "tokenAddress": "Address of the token."
        },
        "returns": {
          "_0": "The TVL ratio of the token."
        }
      },
      "usdValue(address,uint256)": {
        "details": "Computes the USD value of a token based on its amount and price feed.",
        "params": {
          "tokenAddress": "Address of the token.",
          "tokenAmount": "Amount of the token."
        },
        "returns": {
          "_0": "The USD value of the token."
        }
      }
    },
    "title": "PoolMetrics",
    "version": 1
  },
  "userdoc": {
    "kind": "user",
    "methods": {},
    "version": 1
  },
  "storageLayout": {
    "storage": [
      {
        "astId": 1289,
        "contract": "contracts/Dex/PoolMetrics.sol:PoolMetrics",
        "label": "poolTracker",
        "offset": 0,
        "slot": "0",
        "type": "t_contract(PoolTracker)2389"
      },
      {
        "astId": 1292,
        "contract": "contracts/Dex/PoolMetrics.sol:PoolMetrics",
        "label": "swapRouter",
        "offset": 0,
        "slot": "1",
        "type": "t_contract(SwapRouter)3197"
      },
      {
        "astId": 1294,
        "contract": "contracts/Dex/PoolMetrics.sol:PoolMetrics",
        "label": "ethPriceFeed",
        "offset": 0,
        "slot": "2",
        "type": "t_address"
      }
    ],
    "types": {
      "t_address": {
        "encoding": "inplace",
        "label": "address",
        "numberOfBytes": "20"
      },
      "t_contract(PoolTracker)2389": {
        "encoding": "inplace",
        "label": "contract PoolTracker",
        "numberOfBytes": "20"
      },
      "t_contract(SwapRouter)3197": {
        "encoding": "inplace",
        "label": "contract SwapRouter",
        "numberOfBytes": "20"
      }
    }
  }
}