{
  "address": "0xC0E280A27D717cC55Df6625339a6185bc5fB7625",
  "abi": [
    {
      "inputs": [
        {
          "internalType": "address",
          "name": "tracker",
          "type": "address"
        }
      ],
      "stateMutability": "nonpayable",
      "type": "constructor"
    },
    {
      "inputs": [],
      "name": "SwapRouter_tokensCantBeSwapped",
      "type": "error"
    },
    {
      "anonymous": false,
      "inputs": [
        {
          "indexed": false,
          "internalType": "address",
          "name": "userAddress",
          "type": "address"
        },
        {
          "indexed": false,
          "internalType": "address",
          "name": "address1",
          "type": "address"
        },
        {
          "indexed": false,
          "internalType": "address",
          "name": "address2",
          "type": "address"
        },
        {
          "indexed": false,
          "internalType": "uint256",
          "name": "address1Amount",
          "type": "uint256"
        },
        {
          "indexed": false,
          "internalType": "uint256",
          "name": "address2Amount",
          "type": "uint256"
        }
      ],
      "name": "swap",
      "type": "event"
    },
    {
      "stateMutability": "payable",
      "type": "fallback"
    },
    {
      "inputs": [
        {
          "internalType": "address",
          "name": "address1",
          "type": "address"
        },
        {
          "internalType": "address",
          "name": "address2",
          "type": "address"
        },
        {
          "internalType": "uint256",
          "name": "inputAmount",
          "type": "uint256"
        }
      ],
      "name": "getSwapAmount",
      "outputs": [
        {
          "internalType": "uint256",
          "name": "",
          "type": "uint256"
        }
      ],
      "stateMutability": "view",
      "type": "function"
    },
    {
      "inputs": [
        {
          "internalType": "address",
          "name": "address1",
          "type": "address"
        },
        {
          "internalType": "address",
          "name": "address2",
          "type": "address"
        }
      ],
      "name": "getSwapFee",
      "outputs": [
        {
          "internalType": "uint256",
          "name": "",
          "type": "uint256"
        }
      ],
      "stateMutability": "view",
      "type": "function"
    },
    {
      "inputs": [
        {
          "internalType": "address",
          "name": "address1",
          "type": "address"
        },
        {
          "internalType": "address",
          "name": "address2",
          "type": "address"
        },
        {
          "internalType": "uint256",
          "name": "inputAmount",
          "type": "uint256"
        }
      ],
      "name": "swapAsset",
      "outputs": [],
      "stateMutability": "payable",
      "type": "function"
    },
    {
      "stateMutability": "payable",
      "type": "receive"
    }
  ],
  "transactionHash": "0xd03bee131aa7eff19cf325887ad0df372076b043b79841bead791340c46f80d5",
  "args": [
    "0x46439AdBfA62FF3DC6Cd66A95e36279956ea32ba"
  ],
  "numDeployments": 2,
  "solcInputHash": "a491286b4e87cc4d72fac35e4211eb53",
  "bytecode": "0x60806040523480156200001157600080fd5b5060405162002de938038062002de98339818101604052810190620000379190620000e8565b806000806101000a81548173ffffffffffffffffffffffffffffffffffffffff021916908373ffffffffffffffffffffffffffffffffffffffff160217905550506200011a565b600080fd5b600073ffffffffffffffffffffffffffffffffffffffff82169050919050565b6000620000b08262000083565b9050919050565b620000c281620000a3565b8114620000ce57600080fd5b50565b600081519050620000e281620000b7565b92915050565b6000602082840312156200010157620001006200007e565b5b60006200011184828501620000d1565b91505092915050565b612cbf806200012a6000396000f3fe6080604052600436106100385760003560e01c80632de192dc14610041578063635bc0c21461007e578063fe9f5c05146100bb5761003f565b3661003f57005b005b34801561004d57600080fd5b5061006860048036038101906100639190612795565b6100d7565b60405161007591906127ee565b60405180910390f35b34801561008a57600080fd5b506100a560048036038101906100a09190612835565b610714565b6040516100b291906127ee565b60405180910390f35b6100d560048036038101906100d09190612835565b610d5b565b005b60008060008054906101000a900473ffffffffffffffffffffffffffffffffffffffff1673ffffffffffffffffffffffffffffffffffffffff16637663f82285856040518363ffffffff1660e01b8152600401610135929190612897565b60206040518083038186803b15801561014d57600080fd5b505afa158015610161573d6000803e3d6000fd5b505050506040513d601f19601f8201168201806040525081019061018591906128f8565b156102cb5760008060009054906101000a900473ffffffffffffffffffffffffffffffffffffffff1673ffffffffffffffffffffffffffffffffffffffff16638b273a6886866040518363ffffffff1660e01b81526004016101e8929190612897565b60206040518083038186803b15801561020057600080fd5b505afa158015610214573d6000803e3d6000fd5b505050506040513d601f19601f820116820180604052508101906102389190612975565b90508073ffffffffffffffffffffffffffffffffffffffff166354cf2aeb6040518163ffffffff1660e01b815260040160206040518083038186803b15801561028057600080fd5b505afa158015610294573d6000803e3d6000fd5b505050506040513d601f19601f820116820180604052508101906102b891906129b7565b826102c39190612a13565b91505061070a565b600073ffffffffffffffffffffffffffffffffffffffff1660008054906101000a900473ffffffffffffffffffffffffffffffffffffffff1673ffffffffffffffffffffffffffffffffffffffff16635553246086866040518363ffffffff1660e01b815260040161033e929190612897565b60206040518083038186803b15801561035657600080fd5b505afa15801561036a573d6000803e3d6000fd5b505050506040513d601f19601f8201168201806040525081019061038e9190612a7e565b73ffffffffffffffffffffffffffffffffffffffff16146106d75760008060009054906101000a900473ffffffffffffffffffffffffffffffffffffffff1673ffffffffffffffffffffffffffffffffffffffff16635553246086866040518363ffffffff1660e01b8152600401610407929190612897565b60206040518083038186803b15801561041f57600080fd5b505afa158015610433573d6000803e3d6000fd5b505050506040513d601f19601f820116820180604052508101906104579190612a7e565b905060008060009054906101000a900473ffffffffffffffffffffffffffffffffffffffff1673ffffffffffffffffffffffffffffffffffffffff16638b273a6887846040518363ffffffff1660e01b81526004016104b7929190612897565b60206040518083038186803b1580156104cf57600080fd5b505afa1580156104e3573d6000803e3d6000fd5b505050506040513d601f19601f820116820180604052508101906105079190612975565b905060008060009054906101000a900473ffffffffffffffffffffffffffffffffffffffff1673ffffffffffffffffffffffffffffffffffffffff16638b273a6887856040518363ffffffff1660e01b8152600401610567929190612897565b60206040518083038186803b15801561057f57600080fd5b505afa158015610593573d6000803e3d6000fd5b505050506040513d601f19601f820116820180604052508101906105b79190612975565b90508173ffffffffffffffffffffffffffffffffffffffff166354cf2aeb6040518163ffffffff1660e01b815260040160206040518083038186803b1580156105ff57600080fd5b505afa158015610613573d6000803e3d6000fd5b505050506040513d601f19601f8201168201806040525081019061063791906129b7565b846106429190612a13565b93508073ffffffffffffffffffffffffffffffffffffffff166354cf2aeb6040518163ffffffff1660e01b815260040160206040518083038186803b15801561068a57600080fd5b505afa15801561069e573d6000803e3d6000fd5b505050506040513d601f19601f820116820180604052508101906106c291906129b7565b846106cd9190612a13565b9350505050610709565b6040517f8bb120b500000000000000000000000000000000000000000000000000000000815260040160405180910390fd5b5b8091505092915050565b60008060008054906101000a900473ffffffffffffffffffffffffffffffffffffffff1673ffffffffffffffffffffffffffffffffffffffff16637663f82286866040518363ffffffff1660e01b8152600401610772929190612897565b60206040518083038186803b15801561078a57600080fd5b505afa15801561079e573d6000803e3d6000fd5b505050506040513d601f19601f820116820180604052508101906107c291906128f8565b1561090a5760008060009054906101000a900473ffffffffffffffffffffffffffffffffffffffff1673ffffffffffffffffffffffffffffffffffffffff16638b273a6887876040518363ffffffff1660e01b8152600401610825929190612897565b60206040518083038186803b15801561083d57600080fd5b505afa158015610851573d6000803e3d6000fd5b505050506040513d601f19601f820116820180604052508101906108759190612975565b90508073ffffffffffffffffffffffffffffffffffffffff166328da1aef87866040518363ffffffff1660e01b81526004016108b2929190612aab565b60206040518083038186803b1580156108ca57600080fd5b505afa1580156108de573d6000803e3d6000fd5b505050506040513d601f19601f8201168201806040525081019061090291906129b7565b915050610d50565b600073ffffffffffffffffffffffffffffffffffffffff1660008054906101000a900473ffffffffffffffffffffffffffffffffffffffff1673ffffffffffffffffffffffffffffffffffffffff16635553246087876040518363ffffffff1660e01b815260040161097d929190612897565b60206040518083038186803b15801561099557600080fd5b505afa1580156109a9573d6000803e3d6000fd5b505050506040513d601f19601f820116820180604052508101906109cd9190612a7e565b73ffffffffffffffffffffffffffffffffffffffff1614610d1d5760008060009054906101000a900473ffffffffffffffffffffffffffffffffffffffff1673ffffffffffffffffffffffffffffffffffffffff16635553246087876040518363ffffffff1660e01b8152600401610a46929190612897565b60206040518083038186803b158015610a5e57600080fd5b505afa158015610a72573d6000803e3d6000fd5b505050506040513d601f19601f82011682018060405250810190610a969190612a7e565b905060008060009054906101000a900473ffffffffffffffffffffffffffffffffffffffff1673ffffffffffffffffffffffffffffffffffffffff16638b273a6888846040518363ffffffff1660e01b8152600401610af6929190612897565b60206040518083038186803b158015610b0e57600080fd5b505afa158015610b22573d6000803e3d6000fd5b505050506040513d601f19601f82011682018060405250810190610b469190612975565b905060008060009054906101000a900473ffffffffffffffffffffffffffffffffffffffff1673ffffffffffffffffffffffffffffffffffffffff16638b273a6888856040518363ffffffff1660e01b8152600401610ba6929190612897565b60206040518083038186803b158015610bbe57600080fd5b505afa158015610bd2573d6000803e3d6000fd5b505050506040513d601f19601f82011682018060405250810190610bf69190612975565b905060008273ffffffffffffffffffffffffffffffffffffffff166328da1aef8a896040518363ffffffff1660e01b8152600401610c35929190612aab565b60206040518083038186803b158015610c4d57600080fd5b505afa158015610c61573d6000803e3d6000fd5b505050506040513d601f19601f82011682018060405250810190610c8591906129b7565b90508173ffffffffffffffffffffffffffffffffffffffff166328da1aef85836040518363ffffffff1660e01b8152600401610cc2929190612aab565b60206040518083038186803b158015610cda57600080fd5b505afa158015610cee573d6000803e3d6000fd5b505050506040513d601f19601f82011682018060405250810190610d1291906129b7565b945050505050610d4f565b6040517f8bb120b500000000000000000000000000000000000000000000000000000000815260040160405180910390fd5b5b809150509392505050565b600060149054906101000a900460ff1615610dab576040517f08c379a0000000000000000000000000000000000000000000000000000000008152600401610da290612b31565b60405180910390fd5b6001600060146101000a81548160ff02191690831515021790555060008054906101000a900473ffffffffffffffffffffffffffffffffffffffff1673ffffffffffffffffffffffffffffffffffffffff16637663f82284846040518363ffffffff1660e01b8152600401610e21929190612897565b60206040518083038186803b158015610e3957600080fd5b505afa158015610e4d573d6000803e3d6000fd5b505050506040513d601f19601f82011682018060405250810190610e7191906128f8565b156116e15760008060009054906101000a900473ffffffffffffffffffffffffffffffffffffffff1673ffffffffffffffffffffffffffffffffffffffff16638b273a6885856040518363ffffffff1660e01b8152600401610ed4929190612897565b60206040518083038186803b158015610eec57600080fd5b505afa158015610f00573d6000803e3d6000fd5b505050506040513d601f19601f82011682018060405250810190610f249190612975565b905060008373ffffffffffffffffffffffffffffffffffffffff166370a08231306040518263ffffffff1660e01b8152600401610f619190612b51565b60206040518083038186803b158015610f7957600080fd5b505afa158015610f8d573d6000803e3d6000fd5b505050506040513d601f19601f82011682018060405250810190610fb191906129b7565b90508473ffffffffffffffffffffffffffffffffffffffff168273ffffffffffffffffffffffffffffffffffffffff1663ce5efee36040518163ffffffff1660e01b815260040160206040518083038186803b15801561101057600080fd5b505afa158015611024573d6000803e3d6000fd5b505050506040513d601f19601f820116820180604052508101906110489190612a7e565b73ffffffffffffffffffffffffffffffffffffffff161415611270578473ffffffffffffffffffffffffffffffffffffffff166323b872dd3330866040518463ffffffff1660e01b81526004016110a193929190612b6c565b602060405180830381600087803b1580156110bb57600080fd5b505af11580156110cf573d6000803e3d6000fd5b505050506040513d601f19601f820116820180604052508101906110f391906128f8565b508473ffffffffffffffffffffffffffffffffffffffff1663095ea7b383856040518363ffffffff1660e01b815260040161112f929190612aab565b602060405180830381600087803b15801561114957600080fd5b505af115801561115d573d6000803e3d6000fd5b505050506040513d601f19601f8201168201806040525081019061118191906128f8565b508173ffffffffffffffffffffffffffffffffffffffff16634257dc4c8373ffffffffffffffffffffffffffffffffffffffff166354cf2aeb6040518163ffffffff1660e01b815260040160206040518083038186803b1580156111e457600080fd5b505afa1580156111f8573d6000803e3d6000fd5b505050506040513d601f19601f8201168201806040525081019061121c91906129b7565b856040518363ffffffff1660e01b815260040161123991906127ee565b6000604051808303818588803b15801561125257600080fd5b505af1158015611266573d6000803e3d6000fd5b5050505050611478565b8473ffffffffffffffffffffffffffffffffffffffff166323b872dd3330866040518463ffffffff1660e01b81526004016112ad93929190612b6c565b602060405180830381600087803b1580156112c757600080fd5b505af11580156112db573d6000803e3d6000fd5b505050506040513d601f19601f820116820180604052508101906112ff91906128f8565b508473ffffffffffffffffffffffffffffffffffffffff1663095ea7b383856040518363ffffffff1660e01b815260040161133b929190612aab565b602060405180830381600087803b15801561135557600080fd5b505af1158015611369573d6000803e3d6000fd5b505050506040513d601f19601f8201168201806040525081019061138d91906128f8565b508173ffffffffffffffffffffffffffffffffffffffff1663dc1716248373ffffffffffffffffffffffffffffffffffffffff166354cf2aeb6040518163ffffffff1660e01b815260040160206040518083038186803b1580156113f057600080fd5b505afa158015611404573d6000803e3d6000fd5b505050506040513d601f19601f8201168201806040525081019061142891906129b7565b856040518363ffffffff1660e01b815260040161144591906127ee565b6000604051808303818588803b15801561145e57600080fd5b505af1158015611472573d6000803e3d6000fd5b50505050505b6000818573ffffffffffffffffffffffffffffffffffffffff166370a08231306040518263ffffffff1660e01b81526004016114b49190612b51565b60206040518083038186803b1580156114cc57600080fd5b505afa1580156114e0573d6000803e3d6000fd5b505050506040513d601f19601f8201168201806040525081019061150491906129b7565b61150e9190612ba3565b90508473ffffffffffffffffffffffffffffffffffffffff1663a9059cbb33836040518363ffffffff1660e01b815260040161154b929190612aab565b602060405180830381600087803b15801561156557600080fd5b505af1158015611579573d6000803e3d6000fd5b505050506040513d601f19601f8201168201806040525081019061159d91906128f8565b5060008373ffffffffffffffffffffffffffffffffffffffff166354cf2aeb6040518163ffffffff1660e01b815260040160206040518083038186803b1580156115e657600080fd5b505afa1580156115fa573d6000803e3d6000fd5b505050506040513d601f19601f8201168201806040525081019061161e91906129b7565b346116299190612ba3565b905060003373ffffffffffffffffffffffffffffffffffffffff168260405161165190612c08565b60006040518083038185875af1925050503d806000811461168e576040519150601f19603f3d011682016040523d82523d6000602084013e611693565b606091505b50509050806116d7576040517f08c379a00000000000000000000000000000000000000000000000000000000081526004016116ce90612c69565b60405180910390fd5b5050505050612713565b600073ffffffffffffffffffffffffffffffffffffffff1660008054906101000a900473ffffffffffffffffffffffffffffffffffffffff1673ffffffffffffffffffffffffffffffffffffffff16635553246085856040518363ffffffff1660e01b8152600401611754929190612897565b60206040518083038186803b15801561176c57600080fd5b505afa158015611780573d6000803e3d6000fd5b505050506040513d601f19601f820116820180604052508101906117a49190612a7e565b73ffffffffffffffffffffffffffffffffffffffff16146126e05760008060009054906101000a900473ffffffffffffffffffffffffffffffffffffffff1673ffffffffffffffffffffffffffffffffffffffff16635553246085856040518363ffffffff1660e01b815260040161181d929190612897565b60206040518083038186803b15801561183557600080fd5b505afa158015611849573d6000803e3d6000fd5b505050506040513d601f19601f8201168201806040525081019061186d9190612a7e565b905060008060009054906101000a900473ffffffffffffffffffffffffffffffffffffffff1673ffffffffffffffffffffffffffffffffffffffff16638b273a6886846040518363ffffffff1660e01b81526004016118cd929190612897565b60206040518083038186803b1580156118e557600080fd5b505afa1580156118f9573d6000803e3d6000fd5b505050506040513d601f19601f8201168201806040525081019061191d9190612975565b905060008060009054906101000a900473ffffffffffffffffffffffffffffffffffffffff1673ffffffffffffffffffffffffffffffffffffffff16638b273a6886856040518363ffffffff1660e01b815260040161197d929190612897565b60206040518083038186803b15801561199557600080fd5b505afa1580156119a9573d6000803e3d6000fd5b505050506040513d601f19601f820116820180604052508101906119cd9190612975565b905060008373ffffffffffffffffffffffffffffffffffffffff166370a08231306040518263ffffffff1660e01b8152600401611a0a9190612b51565b60206040518083038186803b158015611a2257600080fd5b505afa158015611a36573d6000803e3d6000fd5b505050506040513d601f19601f82011682018060405250810190611a5a91906129b7565b905060008673ffffffffffffffffffffffffffffffffffffffff166370a08231306040518263ffffffff1660e01b8152600401611a979190612b51565b60206040518083038186803b158015611aaf57600080fd5b505afa158015611ac3573d6000803e3d6000fd5b505050506040513d601f19601f82011682018060405250810190611ae791906129b7565b90508773ffffffffffffffffffffffffffffffffffffffff168473ffffffffffffffffffffffffffffffffffffffff1663ce5efee36040518163ffffffff1660e01b815260040160206040518083038186803b158015611b4657600080fd5b505afa158015611b5a573d6000803e3d6000fd5b505050506040513d601f19601f82011682018060405250810190611b7e9190612a7e565b73ffffffffffffffffffffffffffffffffffffffff161415611da6578773ffffffffffffffffffffffffffffffffffffffff166323b872dd3330896040518463ffffffff1660e01b8152600401611bd793929190612b6c565b602060405180830381600087803b158015611bf157600080fd5b505af1158015611c05573d6000803e3d6000fd5b505050506040513d601f19601f82011682018060405250810190611c2991906128f8565b508773ffffffffffffffffffffffffffffffffffffffff1663095ea7b385886040518363ffffffff1660e01b8152600401611c65929190612aab565b602060405180830381600087803b158015611c7f57600080fd5b505af1158015611c93573d6000803e3d6000fd5b505050506040513d601f19601f82011682018060405250810190611cb791906128f8565b508373ffffffffffffffffffffffffffffffffffffffff16634257dc4c8573ffffffffffffffffffffffffffffffffffffffff166354cf2aeb6040518163ffffffff1660e01b815260040160206040518083038186803b158015611d1a57600080fd5b505afa158015611d2e573d6000803e3d6000fd5b505050506040513d601f19601f82011682018060405250810190611d5291906129b7565b886040518363ffffffff1660e01b8152600401611d6f91906127ee565b6000604051808303818588803b158015611d8857600080fd5b505af1158015611d9c573d6000803e3d6000fd5b5050505050611fae565b8773ffffffffffffffffffffffffffffffffffffffff166323b872dd3330896040518463ffffffff1660e01b8152600401611de393929190612b6c565b602060405180830381600087803b158015611dfd57600080fd5b505af1158015611e11573d6000803e3d6000fd5b505050506040513d601f19601f82011682018060405250810190611e3591906128f8565b508773ffffffffffffffffffffffffffffffffffffffff1663095ea7b385886040518363ffffffff1660e01b8152600401611e71929190612aab565b602060405180830381600087803b158015611e8b57600080fd5b505af1158015611e9f573d6000803e3d6000fd5b505050506040513d601f19601f82011682018060405250810190611ec391906128f8565b508373ffffffffffffffffffffffffffffffffffffffff1663dc1716248573ffffffffffffffffffffffffffffffffffffffff166354cf2aeb6040518163ffffffff1660e01b815260040160206040518083038186803b158015611f2657600080fd5b505afa158015611f3a573d6000803e3d6000fd5b505050506040513d601f19601f82011682018060405250810190611f5e91906129b7565b886040518363ffffffff1660e01b8152600401611f7b91906127ee565b6000604051808303818588803b158015611f9457600080fd5b505af1158015611fa8573d6000803e3d6000fd5b50505050505b6000828673ffffffffffffffffffffffffffffffffffffffff166370a08231306040518263ffffffff1660e01b8152600401611fea9190612b51565b60206040518083038186803b15801561200257600080fd5b505afa158015612016573d6000803e3d6000fd5b505050506040513d601f19601f8201168201806040525081019061203a91906129b7565b6120449190612ba3565b90508873ffffffffffffffffffffffffffffffffffffffff168473ffffffffffffffffffffffffffffffffffffffff1663ce5efee36040518163ffffffff1660e01b815260040160206040518083038186803b1580156120a357600080fd5b505afa1580156120b7573d6000803e3d6000fd5b505050506040513d601f19601f820116820180604052508101906120db9190612a7e565b73ffffffffffffffffffffffffffffffffffffffff161415612273578573ffffffffffffffffffffffffffffffffffffffff1663095ea7b385836040518363ffffffff1660e01b8152600401612132929190612aab565b602060405180830381600087803b15801561214c57600080fd5b505af1158015612160573d6000803e3d6000fd5b505050506040513d601f19601f8201168201806040525081019061218491906128f8565b508373ffffffffffffffffffffffffffffffffffffffff16634257dc4c8573ffffffffffffffffffffffffffffffffffffffff166354cf2aeb6040518163ffffffff1660e01b815260040160206040518083038186803b1580156121e757600080fd5b505afa1580156121fb573d6000803e3d6000fd5b505050506040513d601f19601f8201168201806040525081019061221f91906129b7565b836040518363ffffffff1660e01b815260040161223c91906127ee565b6000604051808303818588803b15801561225557600080fd5b505af1158015612269573d6000803e3d6000fd5b50505050506123eb565b8573ffffffffffffffffffffffffffffffffffffffff1663095ea7b385836040518363ffffffff1660e01b81526004016122ae929190612aab565b602060405180830381600087803b1580156122c857600080fd5b505af11580156122dc573d6000803e3d6000fd5b505050506040513d601f19601f8201168201806040525081019061230091906128f8565b508373ffffffffffffffffffffffffffffffffffffffff1663dc1716248573ffffffffffffffffffffffffffffffffffffffff166354cf2aeb6040518163ffffffff1660e01b815260040160206040518083038186803b15801561236357600080fd5b505afa158015612377573d6000803e3d6000fd5b505050506040513d601f19601f8201168201806040525081019061239b91906129b7565b836040518363ffffffff1660e01b81526004016123b891906127ee565b6000604051808303818588803b1580156123d157600080fd5b505af11580156123e5573d6000803e3d6000fd5b50505050505b6000828973ffffffffffffffffffffffffffffffffffffffff166370a08231306040518263ffffffff1660e01b81526004016124279190612b51565b60206040518083038186803b15801561243f57600080fd5b505afa158015612453573d6000803e3d6000fd5b505050506040513d601f19601f8201168201806040525081019061247791906129b7565b6124819190612ba3565b90508873ffffffffffffffffffffffffffffffffffffffff1663a9059cbb33836040518363ffffffff1660e01b81526004016124be929190612aab565b602060405180830381600087803b1580156124d857600080fd5b505af11580156124ec573d6000803e3d6000fd5b505050506040513d601f19601f8201168201806040525081019061251091906128f8565b5060008573ffffffffffffffffffffffffffffffffffffffff166354cf2aeb6040518163ffffffff1660e01b815260040160206040518083038186803b15801561255957600080fd5b505afa15801561256d573d6000803e3d6000fd5b505050506040513d601f19601f8201168201806040525081019061259191906129b7565b8773ffffffffffffffffffffffffffffffffffffffff166354cf2aeb6040518163ffffffff1660e01b815260040160206040518083038186803b1580156125d757600080fd5b505afa1580156125eb573d6000803e3d6000fd5b505050506040513d601f19601f8201168201806040525081019061260f91906129b7565b3461261a9190612ba3565b6126249190612ba3565b905060003373ffffffffffffffffffffffffffffffffffffffff168260405161264c90612c08565b60006040518083038185875af1925050503d8060008114612689576040519150601f19603f3d011682016040523d82523d6000602084013e61268e565b606091505b50509050806126d2576040517f08c379a00000000000000000000000000000000000000000000000000000000081526004016126c990612c69565b60405180910390fd5b505050505050505050612712565b6040517f8bb120b500000000000000000000000000000000000000000000000000000000815260040160405180910390fd5b5b60008060146101000a81548160ff021916908315150217905550505050565b600080fd5b600073ffffffffffffffffffffffffffffffffffffffff82169050919050565b600061276282612737565b9050919050565b61277281612757565b811461277d57600080fd5b50565b60008135905061278f81612769565b92915050565b600080604083850312156127ac576127ab612732565b5b60006127ba85828601612780565b92505060206127cb85828601612780565b9150509250929050565b6000819050919050565b6127e8816127d5565b82525050565b600060208201905061280360008301846127df565b92915050565b612812816127d5565b811461281d57600080fd5b50565b60008135905061282f81612809565b92915050565b60008060006060848603121561284e5761284d612732565b5b600061285c86828701612780565b935050602061286d86828701612780565b925050604061287e86828701612820565b9150509250925092565b61289181612757565b82525050565b60006040820190506128ac6000830185612888565b6128b96020830184612888565b9392505050565b60008115159050919050565b6128d5816128c0565b81146128e057600080fd5b50565b6000815190506128f2816128cc565b92915050565b60006020828403121561290e5761290d612732565b5b600061291c848285016128e3565b91505092915050565b600061293082612737565b9050919050565b600061294282612925565b9050919050565b61295281612937565b811461295d57600080fd5b50565b60008151905061296f81612949565b92915050565b60006020828403121561298b5761298a612732565b5b600061299984828501612960565b91505092915050565b6000815190506129b181612809565b92915050565b6000602082840312156129cd576129cc612732565b5b60006129db848285016129a2565b91505092915050565b7f4e487b7100000000000000000000000000000000000000000000000000000000600052601160045260246000fd5b6000612a1e826127d5565b9150612a29836127d5565b9250827fffffffffffffffffffffffffffffffffffffffffffffffffffffffffffffffff03821115612a5e57612a5d6129e4565b5b828201905092915050565b600081519050612a7881612769565b92915050565b600060208284031215612a9457612a93612732565b5b6000612aa284828501612a69565b91505092915050565b6000604082019050612ac06000830185612888565b612acd60208301846127df565b9392505050565b600082825260208201905092915050565b7f4e6f2072652d656e7472616e6379000000000000000000000000000000000000600082015250565b6000612b1b600e83612ad4565b9150612b2682612ae5565b602082019050919050565b60006020820190508181036000830152612b4a81612b0e565b9050919050565b6000602082019050612b666000830184612888565b92915050565b6000606082019050612b816000830186612888565b612b8e6020830185612888565b612b9b60408301846127df565b949350505050565b6000612bae826127d5565b9150612bb9836127d5565b925082821015612bcc57612bcb6129e4565b5b828203905092915050565b600081905092915050565b50565b6000612bf2600083612bd7565b9150612bfd82612be2565b600082019050919050565b6000612c1382612be5565b9150819050919050565b7f4661696c656420746f2073656e64204574686572000000000000000000000000600082015250565b6000612c53601483612ad4565b9150612c5e82612c1d565b602082019050919050565b60006020820190508181036000830152612c8281612c46565b905091905056fea26469706673582212209fdf2a639a533e1be4496d5035cda2ca1710bf113a43c518bd66ccd74b66803764736f6c63430008090033",
  "devdoc": {
    "details": "This contract facilitates token swaps by interacting with liquidity pools. It supports direct swaps between two tokens in a single pool, or routed swaps through an intermediary token. Utilizes the PoolTracker contract to find liquidity pools and perform the necessary asset exchanges.",
    "kind": "dev",
    "methods": {
      "constructor": {
        "params": {
          "tracker": "The PoolTracker contract address."
        }
      },
      "getSwapAmount(address,address,uint256)": {
        "details": "Considers direct swaps and routed swaps through an intermediary token, utilizing PoolTracker for calculations.",
        "params": {
          "address1": "The token being sold.",
          "address2": "The token being bought.",
          "inputAmount": "The amount of `address1` tokens to swap."
        },
        "returns": {
          "_0": "output The estimated amount of `address2` tokens to be received."
        }
      },
      "getSwapFee(address,address)": {
        "details": "Calculates the total swap fee, accounting for both direct and routed swaps, by querying the associated pools.",
        "params": {
          "address1": "The source token address.",
          "address2": "The destination token address."
        },
        "returns": {
          "_0": "fee The total swap fee for the transaction."
        }
      },
      "swapAsset(address,address,uint256)": {
        "details": "This function supports direct swaps between tokens in a single pool or routed swaps through an intermediary token. Uses PoolTracker to determine the best swap path and perform the exchange.",
        "params": {
          "address1": "The token being sold by the user.",
          "address2": "The token being purchased by the user.",
          "inputAmount": "The amount of `address1` tokens to swap."
        }
      }
    },
    "title": "SwapRouter",
    "version": 1
  },
  "userdoc": {
    "kind": "user",
    "methods": {
      "constructor": {
        "notice": "Constructs the SwapRouter and initializes the PoolTracker reference."
      },
      "getSwapAmount(address,address,uint256)": {
        "notice": "Estimates the output amount for a swap from `address1` to `address2` given an `inputAmount` of `address1`."
      },
      "getSwapFee(address,address)": {
        "notice": "Retrieves the swap fee required for a swap between `address1` and `address2`."
      },
      "swapAsset(address,address,uint256)": {
        "notice": "Swaps `inputAmount` of `address1` tokens for `address2` tokens."
      }
    },
    "version": 1
  },
  "storageLayout": {
    "storage": [
      {
        "astId": 2494,
        "contract": "contracts/Dex/WeaveSwap.sol:SwapRouter",
        "label": "poolTracker",
        "offset": 0,
        "slot": "0",
        "type": "t_contract(PoolTracker)2469"
      },
      {
        "astId": 2496,
        "contract": "contracts/Dex/WeaveSwap.sol:SwapRouter",
        "label": "locked",
        "offset": 20,
        "slot": "0",
        "type": "t_bool"
      }
    ],
    "types": {
      "t_bool": {
        "encoding": "inplace",
        "label": "bool",
        "numberOfBytes": "1"
      },
      "t_contract(PoolTracker)2469": {
        "encoding": "inplace",
        "label": "contract PoolTracker",
        "numberOfBytes": "20"
      }
    }
  }
}