{
  "address": "0x4B31F790563Ca71FE10cA47D358e818F710ded62",
  "abi": [
    {
      "inputs": [
        {
          "internalType": "address",
          "name": "tracker",
          "type": "address"
        }
      ],
      "stateMutability": "nonpayable",
      "type": "constructor"
    },
    {
      "inputs": [],
      "name": "PoolTracker_cantSwapSameToken",
      "type": "error"
    },
    {
      "inputs": [],
      "name": "SwapRouter_tokensCantBeSwapped",
      "type": "error"
    },
    {
      "anonymous": false,
      "inputs": [
        {
          "indexed": false,
          "internalType": "address",
          "name": "userAddress",
          "type": "address"
        },
        {
          "indexed": false,
          "internalType": "address",
          "name": "address1",
          "type": "address"
        },
        {
          "indexed": false,
          "internalType": "address",
          "name": "address2",
          "type": "address"
        },
        {
          "indexed": false,
          "internalType": "uint256",
          "name": "address1Amount",
          "type": "uint256"
        },
        {
          "indexed": false,
          "internalType": "uint256",
          "name": "address2Amount",
          "type": "uint256"
        }
      ],
      "name": "swap",
      "type": "event"
    },
    {
      "stateMutability": "payable",
      "type": "fallback"
    },
    {
      "inputs": [
        {
          "internalType": "address",
          "name": "address1",
          "type": "address"
        },
        {
          "internalType": "address",
          "name": "address2",
          "type": "address"
        },
        {
          "internalType": "uint256",
          "name": "inputAmount",
          "type": "uint256"
        }
      ],
      "name": "getSwapAmount",
      "outputs": [
        {
          "internalType": "uint256",
          "name": "",
          "type": "uint256"
        }
      ],
      "stateMutability": "view",
      "type": "function"
    },
    {
      "inputs": [
        {
          "internalType": "address",
          "name": "address1",
          "type": "address"
        },
        {
          "internalType": "address",
          "name": "address2",
          "type": "address"
        }
      ],
      "name": "getSwapFee",
      "outputs": [
        {
          "internalType": "uint256",
          "name": "",
          "type": "uint256"
        }
      ],
      "stateMutability": "view",
      "type": "function"
    },
    {
      "inputs": [
        {
          "internalType": "address",
          "name": "address1",
          "type": "address"
        },
        {
          "internalType": "address",
          "name": "address2",
          "type": "address"
        },
        {
          "internalType": "uint256",
          "name": "inputAmount",
          "type": "uint256"
        }
      ],
      "name": "swapAsset",
      "outputs": [],
      "stateMutability": "payable",
      "type": "function"
    },
    {
      "inputs": [
        {
          "internalType": "address",
          "name": "address1",
          "type": "address"
        },
        {
          "internalType": "address",
          "name": "address2",
          "type": "address"
        }
      ],
      "name": "tokenToRoute",
      "outputs": [
        {
          "internalType": "address",
          "name": "",
          "type": "address"
        }
      ],
      "stateMutability": "view",
      "type": "function"
    },
    {
      "stateMutability": "payable",
      "type": "receive"
    }
  ],
  "transactionHash": "0x31db2bb4f89d554c9748bca59f7dce84fa18caf7108c71298375c504cff99857",
  "args": [
    "0x603D1517726A1b3A4BFA097eaBdB8A2d9F633Cf1"
  ],
  "numDeployments": 4,
  "solcInputHash": "f0a7192d4cafea1c59406f0a93a82552",
  "bytecode": "0x60806040523480156200001157600080fd5b50604051620033c7380380620033c78339818101604052810190620000379190620000e8565b806000806101000a81548173ffffffffffffffffffffffffffffffffffffffff021916908373ffffffffffffffffffffffffffffffffffffffff160217905550506200011a565b600080fd5b600073ffffffffffffffffffffffffffffffffffffffff82169050919050565b6000620000b08262000083565b9050919050565b620000c281620000a3565b8114620000ce57600080fd5b50565b600081519050620000e281620000b7565b92915050565b6000602082840312156200010157620001006200007e565b5b60006200011184828501620000d1565b91505092915050565b61329d806200012a6000396000f3fe6080604052600436106100435760003560e01c80632de192dc1461004c5780635553246014610089578063635bc0c2146100c6578063fe9f5c05146101035761004a565b3661004a57005b005b34801561005857600080fd5b50610073600480360381019061006e919061287b565b61011f565b60405161008091906128d4565b60405180910390f35b34801561009557600080fd5b506100b060048036038101906100ab919061287b565b610619565b6040516100bd91906128fe565b60405180910390f35b3480156100d257600080fd5b506100ed60048036038101906100e89190612945565b610d0b565b6040516100fa91906128d4565b60405180910390f35b61011d60048036038101906101189190612945565b61120f565b005b60008060008054906101000a900473ffffffffffffffffffffffffffffffffffffffff1673ffffffffffffffffffffffffffffffffffffffff16637663f82285856040518363ffffffff1660e01b815260040161017d929190612998565b60206040518083038186803b15801561019557600080fd5b505afa1580156101a9573d6000803e3d6000fd5b505050506040513d601f19601f820116820180604052508101906101cd91906129f9565b156103135760008060009054906101000a900473ffffffffffffffffffffffffffffffffffffffff1673ffffffffffffffffffffffffffffffffffffffff16638b273a6886866040518363ffffffff1660e01b8152600401610230929190612998565b60206040518083038186803b15801561024857600080fd5b505afa15801561025c573d6000803e3d6000fd5b505050506040513d601f19601f820116820180604052508101906102809190612a76565b90508073ffffffffffffffffffffffffffffffffffffffff166354cf2aeb6040518163ffffffff1660e01b815260040160206040518083038186803b1580156102c857600080fd5b505afa1580156102dc573d6000803e3d6000fd5b505050506040513d601f19601f820116820180604052508101906103009190612ab8565b8261030b9190612b14565b91505061060f565b600073ffffffffffffffffffffffffffffffffffffffff166103358585610619565b73ffffffffffffffffffffffffffffffffffffffff16146105dc57600061035c8585610619565b905060008060009054906101000a900473ffffffffffffffffffffffffffffffffffffffff1673ffffffffffffffffffffffffffffffffffffffff16638b273a6887846040518363ffffffff1660e01b81526004016103bc929190612998565b60206040518083038186803b1580156103d457600080fd5b505afa1580156103e8573d6000803e3d6000fd5b505050506040513d601f19601f8201168201806040525081019061040c9190612a76565b905060008060009054906101000a900473ffffffffffffffffffffffffffffffffffffffff1673ffffffffffffffffffffffffffffffffffffffff16638b273a6887856040518363ffffffff1660e01b815260040161046c929190612998565b60206040518083038186803b15801561048457600080fd5b505afa158015610498573d6000803e3d6000fd5b505050506040513d601f19601f820116820180604052508101906104bc9190612a76565b90508173ffffffffffffffffffffffffffffffffffffffff166354cf2aeb6040518163ffffffff1660e01b815260040160206040518083038186803b15801561050457600080fd5b505afa158015610518573d6000803e3d6000fd5b505050506040513d601f19601f8201168201806040525081019061053c9190612ab8565b846105479190612b14565b93508073ffffffffffffffffffffffffffffffffffffffff166354cf2aeb6040518163ffffffff1660e01b815260040160206040518083038186803b15801561058f57600080fd5b505afa1580156105a3573d6000803e3d6000fd5b505050506040513d601f19601f820116820180604052508101906105c79190612ab8565b846105d29190612b14565b935050505061060e565b6040517f8bb120b500000000000000000000000000000000000000000000000000000000815260040160405180910390fd5b5b8091505092915050565b60008173ffffffffffffffffffffffffffffffffffffffff168373ffffffffffffffffffffffffffffffffffffffff161415610681576040517fef107d8100000000000000000000000000000000000000000000000000000000815260040160405180910390fd5b60008060009054906101000a900473ffffffffffffffffffffffffffffffffffffffff1673ffffffffffffffffffffffffffffffffffffffff16631b9db73f856040518263ffffffff1660e01b81526004016106dd91906128fe565b60006040518083038186803b1580156106f557600080fd5b505afa158015610709573d6000803e3d6000fd5b505050506040513d6000823e3d601f19601f820116820180604052508101906107329190612cd8565b905060008060009054906101000a900473ffffffffffffffffffffffffffffffffffffffff1673ffffffffffffffffffffffffffffffffffffffff16631b9db73f856040518263ffffffff1660e01b815260040161079091906128fe565b60006040518083038186803b1580156107a857600080fd5b505afa1580156107bc573d6000803e3d6000fd5b505050506040513d6000823e3d601f19601f820116820180604052508101906107e59190612cd8565b905060008060005b8451811015610cfd5760005b8451811015610ce95784818151811061081557610814612d21565b5b602002602001015173ffffffffffffffffffffffffffffffffffffffff1686838151811061084657610845612d21565b5b602002602001015173ffffffffffffffffffffffffffffffffffffffff161415610cd65760005b60008054906101000a900473ffffffffffffffffffffffffffffffffffffffff1673ffffffffffffffffffffffffffffffffffffffff1663941230606040518163ffffffff1660e01b815260040160206040518083038186803b1580156108d357600080fd5b505afa1580156108e7573d6000803e3d6000fd5b505050506040513d601f19601f8201168201806040525081019061090b9190612ab8565b811015610cd45760008060008054906101000a900473ffffffffffffffffffffffffffffffffffffffff1673ffffffffffffffffffffffffffffffffffffffff1663930186f2846040518263ffffffff1660e01b815260040161096e91906128d4565b604080518083038186803b15801561098557600080fd5b505afa158015610999573d6000803e3d6000fd5b505050506040513d601f19601f820116820180604052508101906109bd9190612d50565b915091508885815181106109d4576109d3612d21565b5b602002602001015173ffffffffffffffffffffffffffffffffffffffff168273ffffffffffffffffffffffffffffffffffffffff161415610cbf5760008060008054906101000a900473ffffffffffffffffffffffffffffffffffffffff1673ffffffffffffffffffffffffffffffffffffffff16638b273a688f866040518363ffffffff1660e01b8152600401610a6d929190612998565b60206040518083038186803b158015610a8557600080fd5b505afa158015610a99573d6000803e3d6000fd5b505050506040513d601f19601f82011682018060405250810190610abd9190612a76565b905060008060009054906101000a900473ffffffffffffffffffffffffffffffffffffffff1673ffffffffffffffffffffffffffffffffffffffff16638b273a688f876040518363ffffffff1660e01b8152600401610b1d929190612998565b60206040518083038186803b158015610b3557600080fd5b505afa158015610b49573d6000803e3d6000fd5b505050506040513d601f19601f82011682018060405250810190610b6d9190612a76565b905060008573ffffffffffffffffffffffffffffffffffffffff166370a08231846040518263ffffffff1660e01b8152600401610baa91906128fe565b60206040518083038186803b158015610bc257600080fd5b505afa158015610bd6573d6000803e3d6000fd5b505050506040513d601f19601f82011682018060405250810190610bfa9190612ab8565b905060008673ffffffffffffffffffffffffffffffffffffffff166370a08231846040518263ffffffff1660e01b8152600401610c3791906128fe565b60206040518083038186803b158015610c4f57600080fd5b505afa158015610c63573d6000803e3d6000fd5b505050506040513d601f19601f82011682018060405250810190610c879190612ab8565b9050610c9286612779565b8183610c9e9190612d9a565b610ca89190612e2e565b94508a851315610cb957869b50849a505b50505050505b50508080610ccc90612f45565b91505061086d565b505b8080610ce190612f45565b9150506107f9565b508080610cf590612f45565b9150506107ed565b508194505050505092915050565b60008060008054906101000a900473ffffffffffffffffffffffffffffffffffffffff1673ffffffffffffffffffffffffffffffffffffffff16637663f82286866040518363ffffffff1660e01b8152600401610d69929190612998565b60206040518083038186803b158015610d8157600080fd5b505afa158015610d95573d6000803e3d6000fd5b505050506040513d601f19601f82011682018060405250810190610db991906129f9565b15610f015760008060009054906101000a900473ffffffffffffffffffffffffffffffffffffffff1673ffffffffffffffffffffffffffffffffffffffff16638b273a6887876040518363ffffffff1660e01b8152600401610e1c929190612998565b60206040518083038186803b158015610e3457600080fd5b505afa158015610e48573d6000803e3d6000fd5b505050506040513d601f19601f82011682018060405250810190610e6c9190612a76565b90508073ffffffffffffffffffffffffffffffffffffffff166328da1aef87866040518363ffffffff1660e01b8152600401610ea9929190612f8e565b60206040518083038186803b158015610ec157600080fd5b505afa158015610ed5573d6000803e3d6000fd5b505050506040513d601f19601f82011682018060405250810190610ef99190612ab8565b915050611204565b600073ffffffffffffffffffffffffffffffffffffffff16610f238686610619565b73ffffffffffffffffffffffffffffffffffffffff16146111d1576000610f4a8686610619565b905060008060009054906101000a900473ffffffffffffffffffffffffffffffffffffffff1673ffffffffffffffffffffffffffffffffffffffff16638b273a6888846040518363ffffffff1660e01b8152600401610faa929190612998565b60206040518083038186803b158015610fc257600080fd5b505afa158015610fd6573d6000803e3d6000fd5b505050506040513d601f19601f82011682018060405250810190610ffa9190612a76565b905060008060009054906101000a900473ffffffffffffffffffffffffffffffffffffffff1673ffffffffffffffffffffffffffffffffffffffff16638b273a6888856040518363ffffffff1660e01b815260040161105a929190612998565b60206040518083038186803b15801561107257600080fd5b505afa158015611086573d6000803e3d6000fd5b505050506040513d601f19601f820116820180604052508101906110aa9190612a76565b905060008273ffffffffffffffffffffffffffffffffffffffff166328da1aef8a896040518363ffffffff1660e01b81526004016110e9929190612f8e565b60206040518083038186803b15801561110157600080fd5b505afa158015611115573d6000803e3d6000fd5b505050506040513d601f19601f820116820180604052508101906111399190612ab8565b90508173ffffffffffffffffffffffffffffffffffffffff166328da1aef85836040518363ffffffff1660e01b8152600401611176929190612f8e565b60206040518083038186803b15801561118e57600080fd5b505afa1580156111a2573d6000803e3d6000fd5b505050506040513d601f19601f820116820180604052508101906111c69190612ab8565b945050505050611203565b6040517f8bb120b500000000000000000000000000000000000000000000000000000000815260040160405180910390fd5b5b809150509392505050565b600060149054906101000a900460ff161561125f576040517f08c379a000000000000000000000000000000000000000000000000000000000815260040161125690613014565b60405180910390fd5b6001600060146101000a81548160ff02191690831515021790555060008054906101000a900473ffffffffffffffffffffffffffffffffffffffff1673ffffffffffffffffffffffffffffffffffffffff16637663f82284846040518363ffffffff1660e01b81526004016112d5929190612998565b60206040518083038186803b1580156112ed57600080fd5b505afa158015611301573d6000803e3d6000fd5b505050506040513d601f19601f8201168201806040525081019061132591906129f9565b15611bd75760008060009054906101000a900473ffffffffffffffffffffffffffffffffffffffff1673ffffffffffffffffffffffffffffffffffffffff16638b273a6885856040518363ffffffff1660e01b8152600401611388929190612998565b60206040518083038186803b1580156113a057600080fd5b505afa1580156113b4573d6000803e3d6000fd5b505050506040513d601f19601f820116820180604052508101906113d89190612a76565b905060008373ffffffffffffffffffffffffffffffffffffffff166370a08231306040518263ffffffff1660e01b815260040161141591906128fe565b60206040518083038186803b15801561142d57600080fd5b505afa158015611441573d6000803e3d6000fd5b505050506040513d601f19601f820116820180604052508101906114659190612ab8565b90508473ffffffffffffffffffffffffffffffffffffffff168273ffffffffffffffffffffffffffffffffffffffff1663ce5efee36040518163ffffffff1660e01b815260040160206040518083038186803b1580156114c457600080fd5b505afa1580156114d8573d6000803e3d6000fd5b505050506040513d601f19601f820116820180604052508101906114fc9190613034565b73ffffffffffffffffffffffffffffffffffffffff161415611745578473ffffffffffffffffffffffffffffffffffffffff166323b872dd3330866040518463ffffffff1660e01b815260040161155593929190613061565b602060405180830381600087803b15801561156f57600080fd5b505af1158015611583573d6000803e3d6000fd5b505050506040513d601f19601f820116820180604052508101906115a791906129f9565b508473ffffffffffffffffffffffffffffffffffffffff1663095ea7b383856040518363ffffffff1660e01b81526004016115e3929190612f8e565b602060405180830381600087803b1580156115fd57600080fd5b505af1158015611611573d6000803e3d6000fd5b505050506040513d601f19601f8201168201806040525081019061163591906129f9565b508173ffffffffffffffffffffffffffffffffffffffff16634257dc4c8373ffffffffffffffffffffffffffffffffffffffff166354cf2aeb6040518163ffffffff1660e01b815260040160206040518083038186803b15801561169857600080fd5b505afa1580156116ac573d6000803e3d6000fd5b505050506040513d601f19601f820116820180604052508101906116d09190612ab8565b856040518363ffffffff1660e01b81526004016116ed91906128d4565b6020604051808303818588803b15801561170657600080fd5b505af115801561171a573d6000803e3d6000fd5b50505050506040513d601f19601f8201168201806040525081019061173f9190612ab8565b5061196e565b8473ffffffffffffffffffffffffffffffffffffffff166323b872dd3330866040518463ffffffff1660e01b815260040161178293929190613061565b602060405180830381600087803b15801561179c57600080fd5b505af11580156117b0573d6000803e3d6000fd5b505050506040513d601f19601f820116820180604052508101906117d491906129f9565b508473ffffffffffffffffffffffffffffffffffffffff1663095ea7b383856040518363ffffffff1660e01b8152600401611810929190612f8e565b602060405180830381600087803b15801561182a57600080fd5b505af115801561183e573d6000803e3d6000fd5b505050506040513d601f19601f8201168201806040525081019061186291906129f9565b508173ffffffffffffffffffffffffffffffffffffffff1663dc1716248373ffffffffffffffffffffffffffffffffffffffff166354cf2aeb6040518163ffffffff1660e01b815260040160206040518083038186803b1580156118c557600080fd5b505afa1580156118d9573d6000803e3d6000fd5b505050506040513d601f19601f820116820180604052508101906118fd9190612ab8565b856040518363ffffffff1660e01b815260040161191a91906128d4565b6020604051808303818588803b15801561193357600080fd5b505af1158015611947573d6000803e3d6000fd5b50505050506040513d601f19601f8201168201806040525081019061196c9190612ab8565b505b6000818573ffffffffffffffffffffffffffffffffffffffff166370a08231306040518263ffffffff1660e01b81526004016119aa91906128fe565b60206040518083038186803b1580156119c257600080fd5b505afa1580156119d6573d6000803e3d6000fd5b505050506040513d601f19601f820116820180604052508101906119fa9190612ab8565b611a049190613098565b90508473ffffffffffffffffffffffffffffffffffffffff1663a9059cbb33836040518363ffffffff1660e01b8152600401611a41929190612f8e565b602060405180830381600087803b158015611a5b57600080fd5b505af1158015611a6f573d6000803e3d6000fd5b505050506040513d601f19601f82011682018060405250810190611a9391906129f9565b5060008373ffffffffffffffffffffffffffffffffffffffff166354cf2aeb6040518163ffffffff1660e01b815260040160206040518083038186803b158015611adc57600080fd5b505afa158015611af0573d6000803e3d6000fd5b505050506040513d601f19601f82011682018060405250810190611b149190612ab8565b34611b1f9190613098565b905060003373ffffffffffffffffffffffffffffffffffffffff1682604051611b47906130fd565b60006040518083038185875af1925050503d8060008114611b84576040519150601f19603f3d011682016040523d82523d6000602084013e611b89565b606091505b5050905080611bcd576040517f08c379a0000000000000000000000000000000000000000000000000000000008152600401611bc49061315e565b60405180910390fd5b505050505061275a565b600073ffffffffffffffffffffffffffffffffffffffff16611bf98484610619565b73ffffffffffffffffffffffffffffffffffffffff1614612727576000611c208484610619565b905060008060009054906101000a900473ffffffffffffffffffffffffffffffffffffffff1673ffffffffffffffffffffffffffffffffffffffff16638b273a6886846040518363ffffffff1660e01b8152600401611c80929190612998565b60206040518083038186803b158015611c9857600080fd5b505afa158015611cac573d6000803e3d6000fd5b505050506040513d601f19601f82011682018060405250810190611cd09190612a76565b905060008060009054906101000a900473ffffffffffffffffffffffffffffffffffffffff1673ffffffffffffffffffffffffffffffffffffffff16638b273a6886856040518363ffffffff1660e01b8152600401611d30929190612998565b60206040518083038186803b158015611d4857600080fd5b505afa158015611d5c573d6000803e3d6000fd5b505050506040513d601f19601f82011682018060405250810190611d809190612a76565b905060008673ffffffffffffffffffffffffffffffffffffffff166323b872dd3330886040518463ffffffff1660e01b8152600401611dc193929190613061565b602060405180830381600087803b158015611ddb57600080fd5b505af1158015611def573d6000803e3d6000fd5b505050506040513d601f19601f82011682018060405250810190611e1391906129f9565b508673ffffffffffffffffffffffffffffffffffffffff1663095ea7b384876040518363ffffffff1660e01b8152600401611e4f929190612f8e565b602060405180830381600087803b158015611e6957600080fd5b505af1158015611e7d573d6000803e3d6000fd5b505050506040513d601f19601f82011682018060405250810190611ea191906129f9565b508673ffffffffffffffffffffffffffffffffffffffff168373ffffffffffffffffffffffffffffffffffffffff1663ce5efee36040518163ffffffff1660e01b815260040160206040518083038186803b158015611eff57600080fd5b505afa158015611f13573d6000803e3d6000fd5b505050506040513d601f19601f82011682018060405250810190611f379190613034565b73ffffffffffffffffffffffffffffffffffffffff161415612063578273ffffffffffffffffffffffffffffffffffffffff16634257dc4c8473ffffffffffffffffffffffffffffffffffffffff166354cf2aeb6040518163ffffffff1660e01b815260040160206040518083038186803b158015611fb557600080fd5b505afa158015611fc9573d6000803e3d6000fd5b505050506040513d601f19601f82011682018060405250810190611fed9190612ab8565b876040518363ffffffff1660e01b815260040161200a91906128d4565b6020604051808303818588803b15801561202357600080fd5b505af1158015612037573d6000803e3d6000fd5b50505050506040513d601f19601f8201168201806040525081019061205c9190612ab8565b905061216f565b8273ffffffffffffffffffffffffffffffffffffffff1663dc1716248473ffffffffffffffffffffffffffffffffffffffff166354cf2aeb6040518163ffffffff1660e01b815260040160206040518083038186803b1580156120c557600080fd5b505afa1580156120d9573d6000803e3d6000fd5b505050506040513d601f19601f820116820180604052508101906120fd9190612ab8565b876040518363ffffffff1660e01b815260040161211a91906128d4565b6020604051808303818588803b15801561213357600080fd5b505af1158015612147573d6000803e3d6000fd5b50505050506040513d601f19601f8201168201806040525081019061216c9190612ab8565b90505b60008473ffffffffffffffffffffffffffffffffffffffff1663095ea7b384846040518363ffffffff1660e01b81526004016121ac929190612f8e565b602060405180830381600087803b1580156121c657600080fd5b505af11580156121da573d6000803e3d6000fd5b505050506040513d601f19601f820116820180604052508101906121fe91906129f9565b508473ffffffffffffffffffffffffffffffffffffffff168373ffffffffffffffffffffffffffffffffffffffff1663ce5efee36040518163ffffffff1660e01b815260040160206040518083038186803b15801561225c57600080fd5b505afa158015612270573d6000803e3d6000fd5b505050506040513d601f19601f820116820180604052508101906122949190613034565b73ffffffffffffffffffffffffffffffffffffffff1614156123c0578273ffffffffffffffffffffffffffffffffffffffff16634257dc4c8473ffffffffffffffffffffffffffffffffffffffff166354cf2aeb6040518163ffffffff1660e01b815260040160206040518083038186803b15801561231257600080fd5b505afa158015612326573d6000803e3d6000fd5b505050506040513d601f19601f8201168201806040525081019061234a9190612ab8565b846040518363ffffffff1660e01b815260040161236791906128d4565b6020604051808303818588803b15801561238057600080fd5b505af1158015612394573d6000803e3d6000fd5b50505050506040513d601f19601f820116820180604052508101906123b99190612ab8565b90506124cc565b8273ffffffffffffffffffffffffffffffffffffffff1663dc1716248473ffffffffffffffffffffffffffffffffffffffff166354cf2aeb6040518163ffffffff1660e01b815260040160206040518083038186803b15801561242257600080fd5b505afa158015612436573d6000803e3d6000fd5b505050506040513d601f19601f8201168201806040525081019061245a9190612ab8565b846040518363ffffffff1660e01b815260040161247791906128d4565b6020604051808303818588803b15801561249057600080fd5b505af11580156124a4573d6000803e3d6000fd5b50505050506040513d601f19601f820116820180604052508101906124c99190612ab8565b90505b8673ffffffffffffffffffffffffffffffffffffffff1663a9059cbb33836040518363ffffffff1660e01b8152600401612507929190612f8e565b602060405180830381600087803b15801561252157600080fd5b505af1158015612535573d6000803e3d6000fd5b505050506040513d601f19601f8201168201806040525081019061255991906129f9565b5060008373ffffffffffffffffffffffffffffffffffffffff166354cf2aeb6040518163ffffffff1660e01b815260040160206040518083038186803b1580156125a257600080fd5b505afa1580156125b6573d6000803e3d6000fd5b505050506040513d601f19601f820116820180604052508101906125da9190612ab8565b8573ffffffffffffffffffffffffffffffffffffffff166354cf2aeb6040518163ffffffff1660e01b815260040160206040518083038186803b15801561262057600080fd5b505afa158015612634573d6000803e3d6000fd5b505050506040513d601f19601f820116820180604052508101906126589190612ab8565b346126639190613098565b61266d9190613098565b905060003373ffffffffffffffffffffffffffffffffffffffff1682604051612695906130fd565b60006040518083038185875af1925050503d80600081146126d2576040519150601f19603f3d011682016040523d82523d6000602084013e6126d7565b606091505b505090508061271b576040517f08c379a00000000000000000000000000000000000000000000000000000000081526004016127129061315e565b60405180910390fd5b50505050505050612759565b6040517f8bb120b500000000000000000000000000000000000000000000000000000000815260040160405180910390fd5b5b60008060146101000a81548160ff021916908315150217905550505050565b6000808273ffffffffffffffffffffffffffffffffffffffff1663feaf968c6040518163ffffffff1660e01b815260040160a06040518083038186803b1580156127c257600080fd5b505afa1580156127d6573d6000803e3d6000fd5b505050506040513d601f19601f820116820180604052508101906127fa91906131ec565b50505091505080915050919050565b6000604051905090565b600080fd5b600080fd5b600073ffffffffffffffffffffffffffffffffffffffff82169050919050565b60006128488261281d565b9050919050565b6128588161283d565b811461286357600080fd5b50565b6000813590506128758161284f565b92915050565b6000806040838503121561289257612891612813565b5b60006128a085828601612866565b92505060206128b185828601612866565b9150509250929050565b6000819050919050565b6128ce816128bb565b82525050565b60006020820190506128e960008301846128c5565b92915050565b6128f88161283d565b82525050565b600060208201905061291360008301846128ef565b92915050565b612922816128bb565b811461292d57600080fd5b50565b60008135905061293f81612919565b92915050565b60008060006060848603121561295e5761295d612813565b5b600061296c86828701612866565b935050602061297d86828701612866565b925050604061298e86828701612930565b9150509250925092565b60006040820190506129ad60008301856128ef565b6129ba60208301846128ef565b9392505050565b60008115159050919050565b6129d6816129c1565b81146129e157600080fd5b50565b6000815190506129f3816129cd565b92915050565b600060208284031215612a0f57612a0e612813565b5b6000612a1d848285016129e4565b91505092915050565b6000612a318261281d565b9050919050565b6000612a4382612a26565b9050919050565b612a5381612a38565b8114612a5e57600080fd5b50565b600081519050612a7081612a4a565b92915050565b600060208284031215612a8c57612a8b612813565b5b6000612a9a84828501612a61565b91505092915050565b600081519050612ab281612919565b92915050565b600060208284031215612ace57612acd612813565b5b6000612adc84828501612aa3565b91505092915050565b7f4e487b7100000000000000000000000000000000000000000000000000000000600052601160045260246000fd5b6000612b1f826128bb565b9150612b2a836128bb565b9250827fffffffffffffffffffffffffffffffffffffffffffffffffffffffffffffffff03821115612b5f57612b5e612ae5565b5b828201905092915050565b600080fd5b6000601f19601f8301169050919050565b7f4e487b7100000000000000000000000000000000000000000000000000000000600052604160045260246000fd5b612bb882612b6f565b810181811067ffffffffffffffff82111715612bd757612bd6612b80565b5b80604052505050565b6000612bea612809565b9050612bf68282612baf565b919050565b600067ffffffffffffffff821115612c1657612c15612b80565b5b602082029050602081019050919050565b600080fd5b600081519050612c3b8161284f565b92915050565b6000612c54612c4f84612bfb565b612be0565b90508083825260208201905060208402830185811115612c7757612c76612c27565b5b835b81811015612ca05780612c8c8882612c2c565b845260208401935050602081019050612c79565b5050509392505050565b600082601f830112612cbf57612cbe612b6a565b5b8151612ccf848260208601612c41565b91505092915050565b600060208284031215612cee57612ced612813565b5b600082015167ffffffffffffffff811115612d0c57612d0b612818565b5b612d1884828501612caa565b91505092915050565b7f4e487b7100000000000000000000000000000000000000000000000000000000600052603260045260246000fd5b60008060408385031215612d6757612d66612813565b5b6000612d7585828601612c2c565b9250506020612d8685828601612c2c565b9150509250929050565b6000819050919050565b6000612da582612d90565b9150612db083612d90565b9250817f7fffffffffffffffffffffffffffffffffffffffffffffffffffffffffffffff03831360008312151615612deb57612dea612ae5565b5b817f8000000000000000000000000000000000000000000000000000000000000000038312600083121615612e2357612e22612ae5565b5b828201905092915050565b6000612e3982612d90565b9150612e4483612d90565b9250827f7fffffffffffffffffffffffffffffffffffffffffffffffffffffffffffffff0482116000841360008413161615612e8357612e82612ae5565b5b817f80000000000000000000000000000000000000000000000000000000000000000583126000841260008413161615612ec057612ebf612ae5565b5b827f80000000000000000000000000000000000000000000000000000000000000000582126000841360008412161615612efd57612efc612ae5565b5b827f7fffffffffffffffffffffffffffffffffffffffffffffffffffffffffffffff0582126000841260008412161615612f3a57612f39612ae5565b5b828202905092915050565b6000612f50826128bb565b91507fffffffffffffffffffffffffffffffffffffffffffffffffffffffffffffffff821415612f8357612f82612ae5565b5b600182019050919050565b6000604082019050612fa360008301856128ef565b612fb060208301846128c5565b9392505050565b600082825260208201905092915050565b7f4e6f2072652d656e7472616e6379000000000000000000000000000000000000600082015250565b6000612ffe600e83612fb7565b915061300982612fc8565b602082019050919050565b6000602082019050818103600083015261302d81612ff1565b9050919050565b60006020828403121561304a57613049612813565b5b600061305884828501612c2c565b91505092915050565b600060608201905061307660008301866128ef565b61308360208301856128ef565b61309060408301846128c5565b949350505050565b60006130a3826128bb565b91506130ae836128bb565b9250828210156130c1576130c0612ae5565b5b828203905092915050565b600081905092915050565b50565b60006130e76000836130cc565b91506130f2826130d7565b600082019050919050565b6000613108826130da565b9150819050919050565b7f4661696c656420746f2073656e64204574686572000000000000000000000000600082015250565b6000613148601483612fb7565b915061315382613112565b602082019050919050565b600060208201905081810360008301526131778161313b565b9050919050565b600069ffffffffffffffffffff82169050919050565b61319d8161317e565b81146131a857600080fd5b50565b6000815190506131ba81613194565b92915050565b6131c981612d90565b81146131d457600080fd5b50565b6000815190506131e6816131c0565b92915050565b600080600080600060a0868803121561320857613207612813565b5b6000613216888289016131ab565b9550506020613227888289016131d7565b945050604061323888828901612aa3565b935050606061324988828901612aa3565b925050608061325a888289016131ab565b915050929550929590935056fea26469706673582212207dd266db3f0566c7c8e88d0ee7ecf1baccf7973ed69efa2681967fe6ea229b4064736f6c63430008090033",
  "devdoc": {
    "details": "This contract facilitates token swaps by interacting with liquidity pools. It supports direct swaps between two tokens in a single pool, or routed swaps through an intermediary token. Utilizes the PoolTracker contract to find liquidity pools and perform the necessary asset exchanges.",
    "kind": "dev",
    "methods": {
      "constructor": {
        "params": {
          "tracker": "The PoolTracker contract address."
        }
      },
      "getSwapAmount(address,address,uint256)": {
        "details": "Considers direct swaps and routed swaps through an intermediary token, utilizing PoolTracker for calculations.",
        "params": {
          "address1": "The token being sold.",
          "address2": "The token being bought.",
          "inputAmount": "The amount of `address1` tokens to swap."
        },
        "returns": {
          "_0": "output The estimated amount of `address2` tokens to be received."
        }
      },
      "getSwapFee(address,address)": {
        "details": "Calculates the total swap fee, accounting for both direct and routed swaps, by querying the associated pools.",
        "params": {
          "address1": "The source token address.",
          "address2": "The destination token address."
        },
        "returns": {
          "_0": "fee The total swap fee for the transaction."
        }
      },
      "swapAsset(address,address,uint256)": {
        "details": "This function supports direct swaps between tokens in a single pool or routed swaps through an intermediary token. Uses PoolTracker to determine the best swap path and perform the exchange.",
        "params": {
          "address1": "The token being sold by the user.",
          "address2": "The token being purchased by the user.",
          "inputAmount": "The amount of `address1` tokens to swap."
        }
      },
      "tokenToRoute(address,address)": {
        "details": "Determines the optimal routing token for a swap between two tokens, based on available liquidity and price feeds.",
        "params": {
          "address1": "The address of the first token.",
          "address2": "The address of the second token."
        },
        "returns": {
          "_0": "address The address of the optimal routing token."
        }
      }
    },
    "title": "SwapRouter",
    "version": 1
  },
  "userdoc": {
    "kind": "user",
    "methods": {
      "constructor": {
        "notice": "Constructs the SwapRouter and initializes the PoolTracker reference."
      },
      "getSwapAmount(address,address,uint256)": {
        "notice": "Estimates the output amount for a swap from `address1` to `address2` given an `inputAmount` of `address1`."
      },
      "getSwapFee(address,address)": {
        "notice": "Retrieves the swap fee required for a swap between `address1` and `address2`."
      },
      "swapAsset(address,address,uint256)": {
        "notice": "Swaps `inputAmount` of `address1` tokens for `address2` tokens."
      }
    },
    "version": 1
  },
  "storageLayout": {
    "storage": [
      {
        "astId": 2414,
        "contract": "contracts/Dex/WeaveSwap.sol:SwapRouter",
        "label": "poolTracker",
        "offset": 0,
        "slot": "0",
        "type": "t_contract(PoolTracker)2389"
      },
      {
        "astId": 2416,
        "contract": "contracts/Dex/WeaveSwap.sol:SwapRouter",
        "label": "locked",
        "offset": 20,
        "slot": "0",
        "type": "t_bool"
      }
    ],
    "types": {
      "t_bool": {
        "encoding": "inplace",
        "label": "bool",
        "numberOfBytes": "1"
      },
      "t_contract(PoolTracker)2389": {
        "encoding": "inplace",
        "label": "contract PoolTracker",
        "numberOfBytes": "20"
      }
    }
  }
}