{
  "address": "0x9fE46736679d2D9a65F0992F2272dE9f3c7fa6e0",
  "abi": [
    {
      "inputs": [
        {
          "internalType": "address",
          "name": "tracker",
          "type": "address"
        }
      ],
      "stateMutability": "nonpayable",
      "type": "constructor"
    },
    {
      "inputs": [],
      "name": "SwapRouter_tokensCantBeSwapped",
      "type": "error"
    },
    {
      "anonymous": false,
      "inputs": [
        {
          "indexed": false,
          "internalType": "address",
          "name": "userAddress",
          "type": "address"
        },
        {
          "indexed": false,
          "internalType": "address",
          "name": "address1",
          "type": "address"
        },
        {
          "indexed": false,
          "internalType": "address",
          "name": "address2",
          "type": "address"
        },
        {
          "indexed": false,
          "internalType": "uint256",
          "name": "address1Amount",
          "type": "uint256"
        },
        {
          "indexed": false,
          "internalType": "uint256",
          "name": "address2Amount",
          "type": "uint256"
        }
      ],
      "name": "swap",
      "type": "event"
    },
    {
      "inputs": [
        {
          "internalType": "address",
          "name": "address1",
          "type": "address"
        },
        {
          "internalType": "address",
          "name": "address2",
          "type": "address"
        },
        {
          "internalType": "uint256",
          "name": "inputAmount",
          "type": "uint256"
        }
      ],
      "name": "getSwapAmount",
      "outputs": [
        {
          "internalType": "uint256",
          "name": "",
          "type": "uint256"
        }
      ],
      "stateMutability": "view",
      "type": "function"
    },
    {
      "inputs": [
        {
          "internalType": "address",
          "name": "address1",
          "type": "address"
        },
        {
          "internalType": "address",
          "name": "address2",
          "type": "address"
        },
        {
          "internalType": "uint256",
          "name": "inputAmount",
          "type": "uint256"
        }
      ],
      "name": "swapAsset",
      "outputs": [],
      "stateMutability": "nonpayable",
      "type": "function"
    }
  ],
  "transactionHash": "0x182e02d7980277c3389db71b09161629345b2c7f74c2b852930d820de3621636",
  "args": [
    "0xe7f1725E7734CE288F8367e1Bb143E90bb3F0512"
  ],
  "numDeployments": 1,
  "solcInputHash": "6099a49f1005e52c72e7816be8f89ab8",
  "bytecode": "0x60806040523480156200001157600080fd5b5060405162002022380380620020228339818101604052810190620000379190620000e8565b806000806101000a81548173ffffffffffffffffffffffffffffffffffffffff021916908373ffffffffffffffffffffffffffffffffffffffff160217905550506200011a565b600080fd5b600073ffffffffffffffffffffffffffffffffffffffff82169050919050565b6000620000b08262000083565b9050919050565b620000c281620000a3565b8114620000ce57600080fd5b50565b600081519050620000e281620000b7565b92915050565b6000602082840312156200010157620001006200007e565b5b60006200011184828501620000d1565b91505092915050565b611ef8806200012a6000396000f3fe608060405234801561001057600080fd5b50600436106100365760003560e01c8063635bc0c21461003b578063fe9f5c051461006b575b600080fd5b61005560048036038101906100509190611b4c565b610087565b6040516100629190611bae565b60405180910390f35b61008560048036038101906100809190611b4c565b6106ce565b005b60008060008054906101000a900473ffffffffffffffffffffffffffffffffffffffff1673ffffffffffffffffffffffffffffffffffffffff16637663f82286866040518363ffffffff1660e01b81526004016100e5929190611bd8565b60206040518083038186803b1580156100fd57600080fd5b505afa158015610111573d6000803e3d6000fd5b505050506040513d601f19601f820116820180604052508101906101359190611c39565b1561027d5760008060009054906101000a900473ffffffffffffffffffffffffffffffffffffffff1673ffffffffffffffffffffffffffffffffffffffff16638b273a6887876040518363ffffffff1660e01b8152600401610198929190611bd8565b60206040518083038186803b1580156101b057600080fd5b505afa1580156101c4573d6000803e3d6000fd5b505050506040513d601f19601f820116820180604052508101906101e89190611cb6565b90508073ffffffffffffffffffffffffffffffffffffffff166328da1aef87866040518363ffffffff1660e01b8152600401610225929190611ce3565b60206040518083038186803b15801561023d57600080fd5b505afa158015610251573d6000803e3d6000fd5b505050506040513d601f19601f820116820180604052508101906102759190611d21565b9150506106c3565b600073ffffffffffffffffffffffffffffffffffffffff1660008054906101000a900473ffffffffffffffffffffffffffffffffffffffff1673ffffffffffffffffffffffffffffffffffffffff16635553246087876040518363ffffffff1660e01b81526004016102f0929190611bd8565b60206040518083038186803b15801561030857600080fd5b505afa15801561031c573d6000803e3d6000fd5b505050506040513d601f19601f820116820180604052508101906103409190611d63565b73ffffffffffffffffffffffffffffffffffffffff16146106905760008060009054906101000a900473ffffffffffffffffffffffffffffffffffffffff1673ffffffffffffffffffffffffffffffffffffffff16635553246087876040518363ffffffff1660e01b81526004016103b9929190611bd8565b60206040518083038186803b1580156103d157600080fd5b505afa1580156103e5573d6000803e3d6000fd5b505050506040513d601f19601f820116820180604052508101906104099190611d63565b905060008060009054906101000a900473ffffffffffffffffffffffffffffffffffffffff1673ffffffffffffffffffffffffffffffffffffffff16638b273a6888846040518363ffffffff1660e01b8152600401610469929190611bd8565b60206040518083038186803b15801561048157600080fd5b505afa158015610495573d6000803e3d6000fd5b505050506040513d601f19601f820116820180604052508101906104b99190611cb6565b905060008060009054906101000a900473ffffffffffffffffffffffffffffffffffffffff1673ffffffffffffffffffffffffffffffffffffffff16638b273a6888856040518363ffffffff1660e01b8152600401610519929190611bd8565b60206040518083038186803b15801561053157600080fd5b505afa158015610545573d6000803e3d6000fd5b505050506040513d601f19601f820116820180604052508101906105699190611cb6565b905060008273ffffffffffffffffffffffffffffffffffffffff166328da1aef8a896040518363ffffffff1660e01b81526004016105a8929190611ce3565b60206040518083038186803b1580156105c057600080fd5b505afa1580156105d4573d6000803e3d6000fd5b505050506040513d601f19601f820116820180604052508101906105f89190611d21565b90508173ffffffffffffffffffffffffffffffffffffffff166328da1aef85836040518363ffffffff1660e01b8152600401610635929190611ce3565b60206040518083038186803b15801561064d57600080fd5b505afa158015610661573d6000803e3d6000fd5b505050506040513d601f19601f820116820180604052508101906106859190611d21565b9450505050506106c2565b6040517f8bb120b500000000000000000000000000000000000000000000000000000000815260040160405180910390fd5b5b809150509392505050565b600060149054906101000a900460ff161561071e576040517f08c379a000000000000000000000000000000000000000000000000000000000815260040161071590611ded565b60405180910390fd5b6001600060146101000a81548160ff02191690831515021790555060008054906101000a900473ffffffffffffffffffffffffffffffffffffffff1673ffffffffffffffffffffffffffffffffffffffff16637663f82284846040518363ffffffff1660e01b8152600401610794929190611bd8565b60206040518083038186803b1580156107ac57600080fd5b505afa1580156107c0573d6000803e3d6000fd5b505050506040513d601f19601f820116820180604052508101906107e49190611c39565b15610e1d5760008060009054906101000a900473ffffffffffffffffffffffffffffffffffffffff1673ffffffffffffffffffffffffffffffffffffffff16638b273a6885856040518363ffffffff1660e01b8152600401610847929190611bd8565b60206040518083038186803b15801561085f57600080fd5b505afa158015610873573d6000803e3d6000fd5b505050506040513d601f19601f820116820180604052508101906108979190611cb6565b905060008373ffffffffffffffffffffffffffffffffffffffff166370a08231306040518263ffffffff1660e01b81526004016108d49190611e0d565b60206040518083038186803b1580156108ec57600080fd5b505afa158015610900573d6000803e3d6000fd5b505050506040513d601f19601f820116820180604052508101906109249190611d21565b90508473ffffffffffffffffffffffffffffffffffffffff168273ffffffffffffffffffffffffffffffffffffffff1663ce5efee36040518163ffffffff1660e01b815260040160206040518083038186803b15801561098357600080fd5b505afa158015610997573d6000803e3d6000fd5b505050506040513d601f19601f820116820180604052508101906109bb9190611d63565b73ffffffffffffffffffffffffffffffffffffffff161415610b65578473ffffffffffffffffffffffffffffffffffffffff166323b872dd3330866040518463ffffffff1660e01b8152600401610a1493929190611e28565b602060405180830381600087803b158015610a2e57600080fd5b505af1158015610a42573d6000803e3d6000fd5b505050506040513d601f19601f82011682018060405250810190610a669190611c39565b508473ffffffffffffffffffffffffffffffffffffffff1663095ea7b383856040518363ffffffff1660e01b8152600401610aa2929190611ce3565b602060405180830381600087803b158015610abc57600080fd5b505af1158015610ad0573d6000803e3d6000fd5b505050506040513d601f19601f82011682018060405250810190610af49190611c39565b508173ffffffffffffffffffffffffffffffffffffffff16634257dc4c846040518263ffffffff1660e01b8152600401610b2e9190611bae565b600060405180830381600087803b158015610b4857600080fd5b505af1158015610b5c573d6000803e3d6000fd5b50505050610cef565b8473ffffffffffffffffffffffffffffffffffffffff166323b872dd3330866040518463ffffffff1660e01b8152600401610ba293929190611e28565b602060405180830381600087803b158015610bbc57600080fd5b505af1158015610bd0573d6000803e3d6000fd5b505050506040513d601f19601f82011682018060405250810190610bf49190611c39565b508473ffffffffffffffffffffffffffffffffffffffff1663095ea7b383856040518363ffffffff1660e01b8152600401610c30929190611ce3565b602060405180830381600087803b158015610c4a57600080fd5b505af1158015610c5e573d6000803e3d6000fd5b505050506040513d601f19601f82011682018060405250810190610c829190611c39565b508173ffffffffffffffffffffffffffffffffffffffff1663dc171624846040518263ffffffff1660e01b8152600401610cbc9190611bae565b600060405180830381600087803b158015610cd657600080fd5b505af1158015610cea573d6000803e3d6000fd5b505050505b6000818573ffffffffffffffffffffffffffffffffffffffff166370a08231306040518263ffffffff1660e01b8152600401610d2b9190611e0d565b60206040518083038186803b158015610d4357600080fd5b505afa158015610d57573d6000803e3d6000fd5b505050506040513d601f19601f82011682018060405250810190610d7b9190611d21565b610d859190611e8e565b90508473ffffffffffffffffffffffffffffffffffffffff1663a9059cbb33836040518363ffffffff1660e01b8152600401610dc2929190611ce3565b602060405180830381600087803b158015610ddc57600080fd5b505af1158015610df0573d6000803e3d6000fd5b505050506040513d601f19601f82011682018060405250810190610e149190611c39565b50505050611a94565b600073ffffffffffffffffffffffffffffffffffffffff1660008054906101000a900473ffffffffffffffffffffffffffffffffffffffff1673ffffffffffffffffffffffffffffffffffffffff16635553246085856040518363ffffffff1660e01b8152600401610e90929190611bd8565b60206040518083038186803b158015610ea857600080fd5b505afa158015610ebc573d6000803e3d6000fd5b505050506040513d601f19601f82011682018060405250810190610ee09190611d63565b73ffffffffffffffffffffffffffffffffffffffff1614611a615760008060009054906101000a900473ffffffffffffffffffffffffffffffffffffffff1673ffffffffffffffffffffffffffffffffffffffff16635553246085856040518363ffffffff1660e01b8152600401610f59929190611bd8565b60206040518083038186803b158015610f7157600080fd5b505afa158015610f85573d6000803e3d6000fd5b505050506040513d601f19601f82011682018060405250810190610fa99190611d63565b905060008060009054906101000a900473ffffffffffffffffffffffffffffffffffffffff1673ffffffffffffffffffffffffffffffffffffffff16638b273a6886846040518363ffffffff1660e01b8152600401611009929190611bd8565b60206040518083038186803b15801561102157600080fd5b505afa158015611035573d6000803e3d6000fd5b505050506040513d601f19601f820116820180604052508101906110599190611cb6565b905060008060009054906101000a900473ffffffffffffffffffffffffffffffffffffffff1673ffffffffffffffffffffffffffffffffffffffff16638b273a6886856040518363ffffffff1660e01b81526004016110b9929190611bd8565b60206040518083038186803b1580156110d157600080fd5b505afa1580156110e5573d6000803e3d6000fd5b505050506040513d601f19601f820116820180604052508101906111099190611cb6565b905060008373ffffffffffffffffffffffffffffffffffffffff166370a08231306040518263ffffffff1660e01b81526004016111469190611e0d565b60206040518083038186803b15801561115e57600080fd5b505afa158015611172573d6000803e3d6000fd5b505050506040513d601f19601f820116820180604052508101906111969190611d21565b905060008673ffffffffffffffffffffffffffffffffffffffff166370a08231306040518263ffffffff1660e01b81526004016111d39190611e0d565b60206040518083038186803b1580156111eb57600080fd5b505afa1580156111ff573d6000803e3d6000fd5b505050506040513d601f19601f820116820180604052508101906112239190611d21565b90508773ffffffffffffffffffffffffffffffffffffffff168473ffffffffffffffffffffffffffffffffffffffff1663ce5efee36040518163ffffffff1660e01b815260040160206040518083038186803b15801561128257600080fd5b505afa158015611296573d6000803e3d6000fd5b505050506040513d601f19601f820116820180604052508101906112ba9190611d63565b73ffffffffffffffffffffffffffffffffffffffff161415611464578773ffffffffffffffffffffffffffffffffffffffff166323b872dd3330896040518463ffffffff1660e01b815260040161131393929190611e28565b602060405180830381600087803b15801561132d57600080fd5b505af1158015611341573d6000803e3d6000fd5b505050506040513d601f19601f820116820180604052508101906113659190611c39565b508773ffffffffffffffffffffffffffffffffffffffff1663095ea7b385886040518363ffffffff1660e01b81526004016113a1929190611ce3565b602060405180830381600087803b1580156113bb57600080fd5b505af11580156113cf573d6000803e3d6000fd5b505050506040513d601f19601f820116820180604052508101906113f39190611c39565b508373ffffffffffffffffffffffffffffffffffffffff16634257dc4c876040518263ffffffff1660e01b815260040161142d9190611bae565b600060405180830381600087803b15801561144757600080fd5b505af115801561145b573d6000803e3d6000fd5b505050506115ee565b8773ffffffffffffffffffffffffffffffffffffffff166323b872dd3330896040518463ffffffff1660e01b81526004016114a193929190611e28565b602060405180830381600087803b1580156114bb57600080fd5b505af11580156114cf573d6000803e3d6000fd5b505050506040513d601f19601f820116820180604052508101906114f39190611c39565b508773ffffffffffffffffffffffffffffffffffffffff1663095ea7b385886040518363ffffffff1660e01b815260040161152f929190611ce3565b602060405180830381600087803b15801561154957600080fd5b505af115801561155d573d6000803e3d6000fd5b505050506040513d601f19601f820116820180604052508101906115819190611c39565b508373ffffffffffffffffffffffffffffffffffffffff1663dc171624876040518263ffffffff1660e01b81526004016115bb9190611bae565b600060405180830381600087803b1580156115d557600080fd5b505af11580156115e9573d6000803e3d6000fd5b505050505b6000828673ffffffffffffffffffffffffffffffffffffffff166370a08231306040518263ffffffff1660e01b815260040161162a9190611e0d565b60206040518083038186803b15801561164257600080fd5b505afa158015611656573d6000803e3d6000fd5b505050506040513d601f19601f8201168201806040525081019061167a9190611d21565b6116849190611e8e565b90508873ffffffffffffffffffffffffffffffffffffffff168473ffffffffffffffffffffffffffffffffffffffff1663ce5efee36040518163ffffffff1660e01b815260040160206040518083038186803b1580156116e357600080fd5b505afa1580156116f7573d6000803e3d6000fd5b505050506040513d601f19601f8201168201806040525081019061171b9190611d63565b73ffffffffffffffffffffffffffffffffffffffff161415611835578573ffffffffffffffffffffffffffffffffffffffff1663095ea7b385836040518363ffffffff1660e01b8152600401611772929190611ce3565b602060405180830381600087803b15801561178c57600080fd5b505af11580156117a0573d6000803e3d6000fd5b505050506040513d601f19601f820116820180604052508101906117c49190611c39565b508373ffffffffffffffffffffffffffffffffffffffff16634257dc4c826040518263ffffffff1660e01b81526004016117fe9190611bae565b600060405180830381600087803b15801561181857600080fd5b505af115801561182c573d6000803e3d6000fd5b5050505061192f565b8573ffffffffffffffffffffffffffffffffffffffff1663095ea7b385836040518363ffffffff1660e01b8152600401611870929190611ce3565b602060405180830381600087803b15801561188a57600080fd5b505af115801561189e573d6000803e3d6000fd5b505050506040513d601f19601f820116820180604052508101906118c29190611c39565b508373ffffffffffffffffffffffffffffffffffffffff1663dc171624826040518263ffffffff1660e01b81526004016118fc9190611bae565b600060405180830381600087803b15801561191657600080fd5b505af115801561192a573d6000803e3d6000fd5b505050505b6000828973ffffffffffffffffffffffffffffffffffffffff166370a08231306040518263ffffffff1660e01b815260040161196b9190611e0d565b60206040518083038186803b15801561198357600080fd5b505afa158015611997573d6000803e3d6000fd5b505050506040513d601f19601f820116820180604052508101906119bb9190611d21565b6119c59190611e8e565b90508873ffffffffffffffffffffffffffffffffffffffff1663a9059cbb33836040518363ffffffff1660e01b8152600401611a02929190611ce3565b602060405180830381600087803b158015611a1c57600080fd5b505af1158015611a30573d6000803e3d6000fd5b505050506040513d601f19601f82011682018060405250810190611a549190611c39565b5050505050505050611a93565b6040517f8bb120b500000000000000000000000000000000000000000000000000000000815260040160405180910390fd5b5b60008060146101000a81548160ff021916908315150217905550505050565b600080fd5b600073ffffffffffffffffffffffffffffffffffffffff82169050919050565b6000611ae382611ab8565b9050919050565b611af381611ad8565b8114611afe57600080fd5b50565b600081359050611b1081611aea565b92915050565b6000819050919050565b611b2981611b16565b8114611b3457600080fd5b50565b600081359050611b4681611b20565b92915050565b600080600060608486031215611b6557611b64611ab3565b5b6000611b7386828701611b01565b9350506020611b8486828701611b01565b9250506040611b9586828701611b37565b9150509250925092565b611ba881611b16565b82525050565b6000602082019050611bc36000830184611b9f565b92915050565b611bd281611ad8565b82525050565b6000604082019050611bed6000830185611bc9565b611bfa6020830184611bc9565b9392505050565b60008115159050919050565b611c1681611c01565b8114611c2157600080fd5b50565b600081519050611c3381611c0d565b92915050565b600060208284031215611c4f57611c4e611ab3565b5b6000611c5d84828501611c24565b91505092915050565b6000611c7182611ab8565b9050919050565b6000611c8382611c66565b9050919050565b611c9381611c78565b8114611c9e57600080fd5b50565b600081519050611cb081611c8a565b92915050565b600060208284031215611ccc57611ccb611ab3565b5b6000611cda84828501611ca1565b91505092915050565b6000604082019050611cf86000830185611bc9565b611d056020830184611b9f565b9392505050565b600081519050611d1b81611b20565b92915050565b600060208284031215611d3757611d36611ab3565b5b6000611d4584828501611d0c565b91505092915050565b600081519050611d5d81611aea565b92915050565b600060208284031215611d7957611d78611ab3565b5b6000611d8784828501611d4e565b91505092915050565b600082825260208201905092915050565b7f4e6f2072652d656e7472616e6379000000000000000000000000000000000000600082015250565b6000611dd7600e83611d90565b9150611de282611da1565b602082019050919050565b60006020820190508181036000830152611e0681611dca565b9050919050565b6000602082019050611e226000830184611bc9565b92915050565b6000606082019050611e3d6000830186611bc9565b611e4a6020830185611bc9565b611e576040830184611b9f565b949350505050565b7f4e487b7100000000000000000000000000000000000000000000000000000000600052601160045260246000fd5b6000611e9982611b16565b9150611ea483611b16565b925082821015611eb757611eb6611e5f565b5b82820390509291505056fea26469706673582212201bda4c67b508ce2de754394109b6aa8801572be46fb09c0fdad83dfc8d254b3964736f6c63430008090033",
  "devdoc": {
    "kind": "dev",
    "methods": {},
    "version": 1
  },
  "userdoc": {
    "kind": "user",
    "methods": {},
    "version": 1
  },
  "storageLayout": {
    "storage": [
      {
        "astId": 2597,
        "contract": "contracts/Dex/WeaveSwap.sol:SwapRouter",
        "label": "poolTracker",
        "offset": 0,
        "slot": "0",
        "type": "t_contract(PoolTracker)2575"
      },
      {
        "astId": 2611,
        "contract": "contracts/Dex/WeaveSwap.sol:SwapRouter",
        "label": "locked",
        "offset": 20,
        "slot": "0",
        "type": "t_bool"
      }
    ],
    "types": {
      "t_bool": {
        "encoding": "inplace",
        "label": "bool",
        "numberOfBytes": "1"
      },
      "t_contract(PoolTracker)2575": {
        "encoding": "inplace",
        "label": "contract PoolTracker",
        "numberOfBytes": "20"
      }
    }
  }
}