{
  "address": "0x1044E8b79B873f09Dc2c0665532c267D470c8E0c",
  "abi": [
    {
      "inputs": [],
      "stateMutability": "nonpayable",
      "type": "constructor"
    },
    {
      "inputs": [],
      "name": "PoolTracker_addressNotAllowed",
      "type": "error"
    },
    {
      "inputs": [],
      "name": "PoolTracker_pairAlreadyExists",
      "type": "error"
    },
    {
      "anonymous": false,
      "inputs": [
        {
          "indexed": false,
          "internalType": "contract LiquidityPool",
          "name": "pool",
          "type": "address"
        },
        {
          "indexed": false,
          "internalType": "address",
          "name": "assetOne",
          "type": "address"
        },
        {
          "indexed": false,
          "internalType": "address",
          "name": "assetTwo",
          "type": "address"
        }
      ],
      "name": "poolCreated",
      "type": "event"
    },
    {
      "inputs": [
        {
          "internalType": "address",
          "name": "tokenAddress",
          "type": "address"
        },
        {
          "internalType": "address",
          "name": "priceFeed",
          "type": "address"
        }
      ],
      "name": "addRoutingAddress",
      "outputs": [],
      "stateMutability": "nonpayable",
      "type": "function"
    },
    {
      "inputs": [
        {
          "internalType": "address",
          "name": "_assetOneAddress",
          "type": "address"
        },
        {
          "internalType": "address",
          "name": "_assetTwoAddress",
          "type": "address"
        },
        {
          "internalType": "uint256",
          "name": "amountOne",
          "type": "uint256"
        },
        {
          "internalType": "uint256",
          "name": "amountTwo",
          "type": "uint256"
        }
      ],
      "name": "createPool",
      "outputs": [],
      "stateMutability": "nonpayable",
      "type": "function"
    },
    {
      "inputs": [
        {
          "internalType": "address",
          "name": "token1",
          "type": "address"
        },
        {
          "internalType": "address",
          "name": "token2",
          "type": "address"
        }
      ],
      "name": "exists",
      "outputs": [
        {
          "internalType": "bool",
          "name": "",
          "type": "bool"
        }
      ],
      "stateMutability": "view",
      "type": "function"
    },
    {
      "inputs": [
        {
          "internalType": "address",
          "name": "",
          "type": "address"
        },
        {
          "internalType": "address",
          "name": "",
          "type": "address"
        }
      ],
      "name": "pairToPool",
      "outputs": [
        {
          "internalType": "contract LiquidityPool",
          "name": "",
          "type": "address"
        }
      ],
      "stateMutability": "view",
      "type": "function"
    },
    {
      "inputs": [
        {
          "internalType": "address",
          "name": "",
          "type": "address"
        },
        {
          "internalType": "uint256",
          "name": "",
          "type": "uint256"
        }
      ],
      "name": "poolOwner",
      "outputs": [
        {
          "internalType": "contract LiquidityPool",
          "name": "",
          "type": "address"
        }
      ],
      "stateMutability": "view",
      "type": "function"
    },
    {
      "inputs": [
        {
          "internalType": "address",
          "name": "",
          "type": "address"
        },
        {
          "internalType": "uint256",
          "name": "",
          "type": "uint256"
        }
      ],
      "name": "poolPairs",
      "outputs": [
        {
          "internalType": "address",
          "name": "",
          "type": "address"
        }
      ],
      "stateMutability": "view",
      "type": "function"
    },
    {
      "inputs": [
        {
          "internalType": "uint256",
          "name": "",
          "type": "uint256"
        }
      ],
      "name": "routingAddresses",
      "outputs": [
        {
          "internalType": "address",
          "name": "tokenAddress",
          "type": "address"
        },
        {
          "internalType": "address",
          "name": "priceFeed",
          "type": "address"
        }
      ],
      "stateMutability": "view",
      "type": "function"
    },
    {
      "inputs": [
        {
          "internalType": "address",
          "name": "tokenAddress",
          "type": "address"
        }
      ],
      "name": "tokenExists",
      "outputs": [
        {
          "internalType": "bool",
          "name": "",
          "type": "bool"
        }
      ],
      "stateMutability": "view",
      "type": "function"
    },
    {
      "inputs": [
        {
          "internalType": "address",
          "name": "address1",
          "type": "address"
        },
        {
          "internalType": "address",
          "name": "address2",
          "type": "address"
        }
      ],
      "name": "tokenToRoute",
      "outputs": [
        {
          "internalType": "address",
          "name": "",
          "type": "address"
        }
      ],
      "stateMutability": "view",
      "type": "function"
    },
    {
      "inputs": [
        {
          "internalType": "uint256",
          "name": "",
          "type": "uint256"
        }
      ],
      "name": "tokens",
      "outputs": [
        {
          "internalType": "address",
          "name": "",
          "type": "address"
        }
      ],
      "stateMutability": "view",
      "type": "function"
    }
  ],
  "transactionHash": "0x08f89d99249aae3e57bae61a83e1178e74d6011013b2eacce2740838cb2f7004",
  "args": [],
  "numDeployments": 1,
  "solcInputHash": "b8e632be12782690bad8935fb1463051",
  "bytecode": "0x608060405234801561001057600080fd5b50336000806101000a81548173ffffffffffffffffffffffffffffffffffffffff021916908373ffffffffffffffffffffffffffffffffffffffff1602179055506151a6806100606000396000f3fe60806040523480156200001157600080fd5b5060043610620000ac5760003560e01c80638aad070f116200006f5780638aad070f14620001935780638b273a6814620001c95780638c75d89d14620001ff578063930186f21462000235578063b33f78ca146200026c57620000ac565b80634f64b2be14620000b15780635553246014620000e75780636fbe6fea146200011d5780637663f822146200013d578063884db0631462000173575b600080fd5b620000cf6004803603810190620000c9919062001b12565b620002a2565b604051620000de919062001b89565b60405180910390f35b620001056004803603810190620000ff919062001bd7565b620002e2565b60405162000114919062001b89565b60405180910390f35b6200013b600480360381019062000135919062001bd7565b62000ad8565b005b6200015b600480360381019062000155919062001bd7565b62000f2f565b6040516200016a919062001c3b565b60405180910390f35b6200019160048036038101906200018b919062001c58565b62001059565b005b620001b16004803603810190620001ab919062001cca565b620018bb565b604051620001c0919062001d7c565b60405180910390f35b620001e76004803603810190620001e1919062001bd7565b6200190a565b604051620001f6919062001d7c565b60405180910390f35b6200021d600480360381019062000217919062001cca565b6200194c565b6040516200022c919062001b89565b60405180910390f35b6200025360048036038101906200024d919062001b12565b6200199b565b6040516200026392919062001d99565b60405180910390f35b6200028a600480360381019062000284919062001dc6565b62001a10565b60405162000299919062001c3b565b60405180910390f35b60038181548110620002b357600080fd5b906000526020600020016000915054906101000a900473ffffffffffffffffffffffffffffffffffffffff1681565b600080600160008573ffffffffffffffffffffffffffffffffffffffff1673ffffffffffffffffffffffffffffffffffffffff168152602001908152602001600020805480602002602001604051908101604052809291908181526020018280548015620003a657602002820191906000526020600020905b8160009054906101000a900473ffffffffffffffffffffffffffffffffffffffff1673ffffffffffffffffffffffffffffffffffffffff16815260200190600101908083116200035b575b505050505090506000600160008573ffffffffffffffffffffffffffffffffffffffff1673ffffffffffffffffffffffffffffffffffffffff1681526020019081526020016000208054806020026020016040519081016040528092919081815260200182805480156200047057602002820191906000526020600020905b8160009054906101000a900473ffffffffffffffffffffffffffffffffffffffff1673ffffffffffffffffffffffffffffffffffffffff168152602001906001019080831162000425575b5050505050905060008060005b845181101562000aca5760005b845181101562000ab357848181518110620004aa57620004a962001df8565b5b602002602001015173ffffffffffffffffffffffffffffffffffffffff16868381518110620004de57620004dd62001df8565b5b602002602001015173ffffffffffffffffffffffffffffffffffffffff16141562000a9d5760005b60058054905081101562000a9b578683815181106200052a576200052962001df8565b5b602002602001015173ffffffffffffffffffffffffffffffffffffffff16600582815481106200055f576200055e62001df8565b5b906000526020600020906002020160000160009054906101000a900473ffffffffffffffffffffffffffffffffffffffff1673ffffffffffffffffffffffffffffffffffffffff16141562000a8557600060058281548110620005c757620005c662001df8565b5b906000526020600020906002020160010160009054906101000a900473ffffffffffffffffffffffffffffffffffffffff1673ffffffffffffffffffffffffffffffffffffffff1663feaf968c6040518163ffffffff1660e01b815260040160a06040518083038186803b1580156200063f57600080fd5b505afa15801562000654573d6000803e3d6000fd5b505050506040513d601f19601f820116820180604052508101906200067a919062001ec0565b505050915050600080600260008e73ffffffffffffffffffffffffffffffffffffffff1673ffffffffffffffffffffffffffffffffffffffff168152602001908152602001600020600060058681548110620006db57620006da62001df8565b5b906000526020600020906002020160000160009054906101000a900473ffffffffffffffffffffffffffffffffffffffff1673ffffffffffffffffffffffffffffffffffffffff1673ffffffffffffffffffffffffffffffffffffffff16815260200190815260200160002060009054906101000a900473ffffffffffffffffffffffffffffffffffffffff1690506000600260008e73ffffffffffffffffffffffffffffffffffffffff1673ffffffffffffffffffffffffffffffffffffffff168152602001908152602001600020600060058781548110620007c457620007c362001df8565b5b906000526020600020906002020160000160009054906101000a900473ffffffffffffffffffffffffffffffffffffffff1673ffffffffffffffffffffffffffffffffffffffff1673ffffffffffffffffffffffffffffffffffffffff16815260200190815260200160002060009054906101000a900473ffffffffffffffffffffffffffffffffffffffff1690506000600586815481106200086c576200086b62001df8565b5b906000526020600020906002020160000160009054906101000a900473ffffffffffffffffffffffffffffffffffffffff1673ffffffffffffffffffffffffffffffffffffffff166370a08231846040518263ffffffff1660e01b8152600401620008d8919062001b89565b60206040518083038186803b158015620008f157600080fd5b505afa15801562000906573d6000803e3d6000fd5b505050506040513d601f19601f820116820180604052508101906200092c919062001f48565b905060006005878154811062000947576200094662001df8565b5b906000526020600020906002020160000160009054906101000a900473ffffffffffffffffffffffffffffffffffffffff1673ffffffffffffffffffffffffffffffffffffffff166370a08231846040518263ffffffff1660e01b8152600401620009b3919062001b89565b60206040518083038186803b158015620009cc57600080fd5b505afa158015620009e1573d6000803e3d6000fd5b505050506040513d601f19601f8201168201806040525081019062000a07919062001f48565b905085818362000a18919062001fa9565b62000a24919062002047565b94508985131562000a7e576005878154811062000a465762000a4562001df8565b5b906000526020600020906002020160000160009054906101000a900473ffffffffffffffffffffffffffffffffffffffff169a508499505b5050505050505b808062000a92906200216e565b91505062000506565b505b808062000aaa906200216e565b9150506200048a565b50808062000ac1906200216e565b9150506200047d565b508194505050505092915050565b60008054906101000a900473ffffffffffffffffffffffffffffffffffffffff1673ffffffffffffffffffffffffffffffffffffffff163373ffffffffffffffffffffffffffffffffffffffff161462000b5e576040517fa3da448900000000000000000000000000000000000000000000000000000000815260040160405180910390fd5b6000600580549050141562000c6f57600560405180604001604052808473ffffffffffffffffffffffffffffffffffffffff1681526020018373ffffffffffffffffffffffffffffffffffffffff16815250908060018154018082558091505060019003906000526020600020906002020160009091909190915060008201518160000160006101000a81548173ffffffffffffffffffffffffffffffffffffffff021916908373ffffffffffffffffffffffffffffffffffffffff16021790555060208201518160010160006101000a81548173ffffffffffffffffffffffffffffffffffffffff021916908373ffffffffffffffffffffffffffffffffffffffff160217905550505062000f2b565b60005b60058054905081101562000f29578273ffffffffffffffffffffffffffffffffffffffff166005828154811062000cae5762000cad62001df8565b5b906000526020600020906002020160000160009054906101000a900473ffffffffffffffffffffffffffffffffffffffff1673ffffffffffffffffffffffffffffffffffffffff16141562000dfa5760405180604001604052808473ffffffffffffffffffffffffffffffffffffffff1681526020018373ffffffffffffffffffffffffffffffffffffffff168152506005828154811062000d555762000d5462001df8565b5b906000526020600020906002020160008201518160000160006101000a81548173ffffffffffffffffffffffffffffffffffffffff021916908373ffffffffffffffffffffffffffffffffffffffff16021790555060208201518160010160006101000a81548173ffffffffffffffffffffffffffffffffffffffff021916908373ffffffffffffffffffffffffffffffffffffffff16021790555090505062000f29565b600160058054905062000e0e9190620021bc565b81141562000f1357600560405180604001604052808573ffffffffffffffffffffffffffffffffffffffff1681526020018473ffffffffffffffffffffffffffffffffffffffff16815250908060018154018082558091505060019003906000526020600020906002020160009091909190915060008201518160000160006101000a81548173ffffffffffffffffffffffffffffffffffffffff021916908373ffffffffffffffffffffffffffffffffffffffff16021790555060208201518160010160006101000a81548173ffffffffffffffffffffffffffffffffffffffff021916908373ffffffffffffffffffffffffffffffffffffffff16021790555050505b808062000f20906200216e565b91505062000c72565b505b5050565b60008060005b600160008673ffffffffffffffffffffffffffffffffffffffff1673ffffffffffffffffffffffffffffffffffffffff168152602001908152602001600020805490508110156200104e578373ffffffffffffffffffffffffffffffffffffffff16600160008773ffffffffffffffffffffffffffffffffffffffff1673ffffffffffffffffffffffffffffffffffffffff168152602001908152602001600020828154811062000feb5762000fea62001df8565b5b9060005260206000200160009054906101000a900473ffffffffffffffffffffffffffffffffffffffff1673ffffffffffffffffffffffffffffffffffffffff1614156200103857600191505b808062001045906200216e565b91505062000f35565b508091505092915050565b600060149054906101000a900460ff1615620010ac576040517f08c379a0000000000000000000000000000000000000000000000000000000008152600401620010a39062002258565b60405180910390fd5b6001600060146101000a81548160ff021916908315150217905550620010d3848462000f2f565b156200110b576040517f2f5f48b800000000000000000000000000000000000000000000000000000000815260040160405180910390fd5b8373ffffffffffffffffffffffffffffffffffffffff166323b872dd3330856040518463ffffffff1660e01b81526004016200114a939291906200228b565b602060405180830381600087803b1580156200116557600080fd5b505af11580156200117a573d6000803e3d6000fd5b505050506040513d601f19601f82011682018060405250810190620011a09190620022f9565b508273ffffffffffffffffffffffffffffffffffffffff166323b872dd3330846040518463ffffffff1660e01b8152600401620011e0939291906200228b565b602060405180830381600087803b158015620011fb57600080fd5b505af115801562001210573d6000803e3d6000fd5b505050506040513d601f19601f82011682018060405250810190620012369190620022f9565b5060008484604051620012499062001ac4565b6200125692919062001d99565b604051809103906000f08015801562001273573d6000803e3d6000fd5b5090508473ffffffffffffffffffffffffffffffffffffffff1663095ea7b382856040518363ffffffff1660e01b8152600401620012b39291906200232b565b602060405180830381600087803b158015620012ce57600080fd5b505af1158015620012e3573d6000803e3d6000fd5b505050506040513d601f19601f82011682018060405250810190620013099190620022f9565b508373ffffffffffffffffffffffffffffffffffffffff1663095ea7b382846040518363ffffffff1660e01b8152600401620013479291906200232b565b602060405180830381600087803b1580156200136257600080fd5b505af115801562001377573d6000803e3d6000fd5b505050506040513d601f19601f820116820180604052508101906200139d9190620022f9565b508073ffffffffffffffffffffffffffffffffffffffff1663a40f4fa184846040518363ffffffff1660e01b8152600401620013db92919062002358565b600060405180830381600087803b158015620013f657600080fd5b505af11580156200140b573d6000803e3d6000fd5b50505050600460003373ffffffffffffffffffffffffffffffffffffffff1673ffffffffffffffffffffffffffffffffffffffff168152602001908152602001600020819080600181540180825580915050600190039060005260206000200160009091909190916101000a81548173ffffffffffffffffffffffffffffffffffffffff021916908373ffffffffffffffffffffffffffffffffffffffff160217905550600160008673ffffffffffffffffffffffffffffffffffffffff1673ffffffffffffffffffffffffffffffffffffffff168152602001908152602001600020849080600181540180825580915050600190039060005260206000200160009091909190916101000a81548173ffffffffffffffffffffffffffffffffffffffff021916908373ffffffffffffffffffffffffffffffffffffffff160217905550600160008573ffffffffffffffffffffffffffffffffffffffff1673ffffffffffffffffffffffffffffffffffffffff168152602001908152602001600020859080600181540180825580915050600190039060005260206000200160009091909190916101000a81548173ffffffffffffffffffffffffffffffffffffffff021916908373ffffffffffffffffffffffffffffffffffffffff16021790555080600260008773ffffffffffffffffffffffffffffffffffffffff1673ffffffffffffffffffffffffffffffffffffffff16815260200190815260200160002060008673ffffffffffffffffffffffffffffffffffffffff1673ffffffffffffffffffffffffffffffffffffffff16815260200190815260200160002060006101000a81548173ffffffffffffffffffffffffffffffffffffffff021916908373ffffffffffffffffffffffffffffffffffffffff16021790555080600260008673ffffffffffffffffffffffffffffffffffffffff1673ffffffffffffffffffffffffffffffffffffffff16815260200190815260200160002060008773ffffffffffffffffffffffffffffffffffffffff1673ffffffffffffffffffffffffffffffffffffffff16815260200190815260200160002060006101000a81548173ffffffffffffffffffffffffffffffffffffffff021916908373ffffffffffffffffffffffffffffffffffffffff16021790555060001515620017748662001a10565b15151415620017e1576003859080600181540180825580915050600190039060005260206000200160009091909190916101000a81548173ffffffffffffffffffffffffffffffffffffffff021916908373ffffffffffffffffffffffffffffffffffffffff1602179055505b60001515620017f08562001a10565b151514156200185d576003849080600181540180825580915050600190039060005260206000200160009091909190916101000a81548173ffffffffffffffffffffffffffffffffffffffff021916908373ffffffffffffffffffffffffffffffffffffffff1602179055505b7f1bfa76d353829689440900638fb4e4d604519997726fa1ee0f885e3df12ed7f8818686604051620018929392919062002385565b60405180910390a15060008060146101000a81548160ff02191690831515021790555050505050565b60046020528160005260406000208181548110620018d857600080fd5b906000526020600020016000915091509054906101000a900473ffffffffffffffffffffffffffffffffffffffff1681565b60026020528160005260406000206020528060005260406000206000915091509054906101000a900473ffffffffffffffffffffffffffffffffffffffff1681565b600160205281600052604060002081815481106200196957600080fd5b906000526020600020016000915091509054906101000a900473ffffffffffffffffffffffffffffffffffffffff1681565b60058181548110620019ac57600080fd5b90600052602060002090600202016000915090508060000160009054906101000a900473ffffffffffffffffffffffffffffffffffffffff16908060010160009054906101000a900473ffffffffffffffffffffffffffffffffffffffff16905082565b60008060005b60038054905081101562001aba576003818154811062001a3b5762001a3a62001df8565b5b9060005260206000200160009054906101000a900473ffffffffffffffffffffffffffffffffffffffff1673ffffffffffffffffffffffffffffffffffffffff168473ffffffffffffffffffffffffffffffffffffffff16141562001aa4576001915062001aba565b808062001ab1906200216e565b91505062001a16565b5080915050919050565b612dae80620023c383390190565b600080fd5b6000819050919050565b62001aec8162001ad7565b811462001af857600080fd5b50565b60008135905062001b0c8162001ae1565b92915050565b60006020828403121562001b2b5762001b2a62001ad2565b5b600062001b3b8482850162001afb565b91505092915050565b600073ffffffffffffffffffffffffffffffffffffffff82169050919050565b600062001b718262001b44565b9050919050565b62001b838162001b64565b82525050565b600060208201905062001ba0600083018462001b78565b92915050565b62001bb18162001b64565b811462001bbd57600080fd5b50565b60008135905062001bd18162001ba6565b92915050565b6000806040838503121562001bf15762001bf062001ad2565b5b600062001c018582860162001bc0565b925050602062001c148582860162001bc0565b9150509250929050565b60008115159050919050565b62001c358162001c1e565b82525050565b600060208201905062001c52600083018462001c2a565b92915050565b6000806000806080858703121562001c755762001c7462001ad2565b5b600062001c858782880162001bc0565b945050602062001c988782880162001bc0565b935050604062001cab8782880162001afb565b925050606062001cbe8782880162001afb565b91505092959194509250565b6000806040838503121562001ce45762001ce362001ad2565b5b600062001cf48582860162001bc0565b925050602062001d078582860162001afb565b9150509250929050565b6000819050919050565b600062001d3c62001d3662001d308462001b44565b62001d11565b62001b44565b9050919050565b600062001d508262001d1b565b9050919050565b600062001d648262001d43565b9050919050565b62001d768162001d57565b82525050565b600060208201905062001d93600083018462001d6b565b92915050565b600060408201905062001db0600083018562001b78565b62001dbf602083018462001b78565b9392505050565b60006020828403121562001ddf5762001dde62001ad2565b5b600062001def8482850162001bc0565b91505092915050565b7f4e487b7100000000000000000000000000000000000000000000000000000000600052603260045260246000fd5b600069ffffffffffffffffffff82169050919050565b62001e488162001e27565b811462001e5457600080fd5b50565b60008151905062001e688162001e3d565b92915050565b6000819050919050565b62001e838162001e6e565b811462001e8f57600080fd5b50565b60008151905062001ea38162001e78565b92915050565b60008151905062001eba8162001ae1565b92915050565b600080600080600060a0868803121562001edf5762001ede62001ad2565b5b600062001eef8882890162001e57565b955050602062001f028882890162001e92565b945050604062001f158882890162001ea9565b935050606062001f288882890162001ea9565b925050608062001f3b8882890162001e57565b9150509295509295909350565b60006020828403121562001f615762001f6062001ad2565b5b600062001f718482850162001ea9565b91505092915050565b7f4e487b7100000000000000000000000000000000000000000000000000000000600052601160045260246000fd5b600062001fb68262001e6e565b915062001fc38362001e6e565b9250817f7fffffffffffffffffffffffffffffffffffffffffffffffffffffffffffffff0383136000831215161562002001576200200062001f7a565b5b817f80000000000000000000000000000000000000000000000000000000000000000383126000831216156200203c576200203b62001f7a565b5b828201905092915050565b6000620020548262001e6e565b9150620020618362001e6e565b9250827f7fffffffffffffffffffffffffffffffffffffffffffffffffffffffffffffff0482116000841360008413161615620020a357620020a262001f7a565b5b817f80000000000000000000000000000000000000000000000000000000000000000583126000841260008413161615620020e357620020e262001f7a565b5b827f8000000000000000000000000000000000000000000000000000000000000000058212600084136000841216161562002123576200212262001f7a565b5b827f7fffffffffffffffffffffffffffffffffffffffffffffffffffffffffffffff058212600084126000841216161562002163576200216262001f7a565b5b828202905092915050565b60006200217b8262001ad7565b91507fffffffffffffffffffffffffffffffffffffffffffffffffffffffffffffffff821415620021b157620021b062001f7a565b5b600182019050919050565b6000620021c98262001ad7565b9150620021d68362001ad7565b925082821015620021ec57620021eb62001f7a565b5b828203905092915050565b600082825260208201905092915050565b7f4e6f2072652d656e7472616e6379000000000000000000000000000000000000600082015250565b600062002240600e83620021f7565b91506200224d8262002208565b602082019050919050565b60006020820190508181036000830152620022738162002231565b9050919050565b620022858162001ad7565b82525050565b6000606082019050620022a2600083018662001b78565b620022b1602083018562001b78565b620022c060408301846200227a565b949350505050565b620022d38162001c1e565b8114620022df57600080fd5b50565b600081519050620022f381620022c8565b92915050565b60006020828403121562002312576200231162001ad2565b5b60006200232284828501620022e2565b91505092915050565b600060408201905062002342600083018562001b78565b6200235160208301846200227a565b9392505050565b60006040820190506200236f60008301856200227a565b6200237e60208301846200227a565b9392505050565b60006060820190506200239c600083018662001d6b565b620023ab602083018562001b78565b620023ba604083018462001b78565b94935050505056fe60806040523480156200001157600080fd5b5060405162002dae38038062002dae833981810160405281019062000037919062000179565b816000806101000a81548173ffffffffffffffffffffffffffffffffffffffff021916908373ffffffffffffffffffffffffffffffffffffffff16021790555080600160006101000a81548173ffffffffffffffffffffffffffffffffffffffff021916908373ffffffffffffffffffffffffffffffffffffffff16021790555033600660006101000a81548173ffffffffffffffffffffffffffffffffffffffff021916908373ffffffffffffffffffffffffffffffffffffffff16021790555066038d7ea4c680006005819055505050620001c0565b600080fd5b600073ffffffffffffffffffffffffffffffffffffffff82169050919050565b6000620001418262000114565b9050919050565b620001538162000134565b81146200015f57600080fd5b50565b600081519050620001738162000148565b92915050565b600080604083850312156200019357620001926200010f565b5b6000620001a38582860162000162565b9250506020620001b68582860162000162565b9150509250929050565b612bde80620001d06000396000f3fe6080604052600436106101e75760003560e01c80638da5cb5b11610102578063aa03f2ed11610095578063e35ba8ab11610064578063e35ba8ab1461074a578063e4a7672614610775578063f318e5571461079e578063ffebfc8c146107c95761021e565b8063aa03f2ed146106ad578063ce5efee3146106d8578063d4cadf6814610703578063dc1716241461072e5761021e565b8063a04f6639116100d1578063a04f663914610603578063a40f4fa11461062e578063a875480314610657578063a97533b8146106825761021e565b80638da5cb5b1461053557806395cc4c5e146105605780639a61c36a1461059d5780639c8f9f23146105da5761021e565b806340702adc1161017a578063696c613111610149578063696c61311461047b5780637c262871146104a457806381bace7d146104bb5780638477a634146104f85761021e565b806340702adc146103de5780634257dc4c146104095780634d2d757c1461042557806354cf2aeb146104505761021e565b806328593984116101b6578063285939841461030e57806328da1aef146103395780632d4ce66914610376578063405eae91146103b35761021e565b80630910a51014610250578063131a6f011461027b5780631a686502146102a657806324aabb92146102d15761021e565b3661021e576040517fdfaf840900000000000000000000000000000000000000000000000000000000815260040160405180910390fd5b6040517fdfaf840900000000000000000000000000000000000000000000000000000000815260040160405180910390fd5b34801561025c57600080fd5b50610265610806565b604051610272919061265d565b60405180910390f35b34801561028757600080fd5b50610290610810565b60405161029d919061265d565b60405180910390f35b3480156102b257600080fd5b506102bb6108c2565b6040516102c8919061265d565b60405180910390f35b3480156102dd57600080fd5b506102f860048036038101906102f391906126db565b6108c8565b604051610305919061265d565b60405180910390f35b34801561031a57600080fd5b506103236108e0565b604051610330919061265d565b60405180910390f35b34801561034557600080fd5b50610360600480360381019061035b9190612734565b6108e6565b60405161036d919061265d565b60405180910390f35b34801561038257600080fd5b5061039d600480360381019061039891906126db565b610a55565b6040516103aa919061265d565b60405180910390f35b3480156103bf57600080fd5b506103c8610ae7565b6040516103d5919061278f565b60405180910390f35b3480156103ea57600080fd5b506103f3610b96565b604051610400919061265d565b60405180910390f35b610423600480360381019061041e91906127aa565b610b9c565b005b34801561043157600080fd5b5061043a610fc8565b604051610447919061278f565b60405180910390f35b34801561045c57600080fd5b50610465611031565b604051610472919061265d565b60405180910390f35b34801561048757600080fd5b506104a2600480360381019061049d91906127aa565b611037565b005b3480156104b057600080fd5b506104b961104f565b005b3480156104c757600080fd5b506104e260048036038101906104dd91906126db565b6112e4565b6040516104ef919061265d565b60405180910390f35b34801561050457600080fd5b5061051f600480360381019061051a91906126db565b6113ed565b60405161052c919061265d565b60405180910390f35b34801561054157600080fd5b5061054a611405565b60405161055791906127e6565b60405180910390f35b34801561056c57600080fd5b5061058760048036038101906105829190612734565b61142b565b604051610594919061265d565b60405180910390f35b3480156105a957600080fd5b506105c460048036038101906105bf91906126db565b611514565b6040516105d1919061265d565b60405180910390f35b3480156105e657600080fd5b5061060160048036038101906105fc91906127aa565b61152c565b005b34801561060f57600080fd5b50610618611ad8565b604051610625919061265d565b60405180910390f35b34801561063a57600080fd5b5061065560048036038101906106509190612801565b611ae2565b005b34801561066357600080fd5b5061066c611de7565b60405161067991906127e6565b60405180910390f35b34801561068e57600080fd5b50610697611e0d565b6040516106a4919061265d565b60405180910390f35b3480156106b957600080fd5b506106c2611e41565b6040516106cf919061265d565b60405180910390f35b3480156106e457600080fd5b506106ed611ef2565b6040516106fa91906127e6565b60405180910390f35b34801561070f57600080fd5b50610718611f16565b604051610725919061265d565b60405180910390f35b610748600480360381019061074391906127aa565b611f20565b005b34801561075657600080fd5b5061075f61234c565b60405161076c919061265d565b60405180910390f35b34801561078157600080fd5b5061079c60048036038101906107979190612841565b612380565b005b3480156107aa57600080fd5b506107b3612624565b6040516107c0919061265d565b60405180910390f35b3480156107d557600080fd5b506107f060048036038101906107eb91906126db565b61262c565b6040516107fd919061265d565b60405180910390f35b6000600354905090565b6000600160009054906101000a900473ffffffffffffffffffffffffffffffffffffffff1673ffffffffffffffffffffffffffffffffffffffff166370a08231306040518263ffffffff1660e01b815260040161086d91906127e6565b60206040518083038186803b15801561088557600080fd5b505afa158015610899573d6000803e3d6000fd5b505050506040513d601f19601f820116820180604052508101906108bd91906128a9565b905090565b60035481565b60076020528060005260406000206000915090505481565b60045481565b60008060009054906101000a900473ffffffffffffffffffffffffffffffffffffffff1673ffffffffffffffffffffffffffffffffffffffff168373ffffffffffffffffffffffffffffffffffffffff16141561098257600082610948611e41565b6109529190612905565b9050600081600354610964919061298a565b90508061096f610810565b61097991906129bb565b92505050610a4f565b600160009054906101000a900473ffffffffffffffffffffffffffffffffffffffff1673ffffffffffffffffffffffffffffffffffffffff168373ffffffffffffffffffffffffffffffffffffffff161415610a1d576000826109e3610810565b6109ed9190612905565b90506000816003546109ff919061298a565b905080610a0a611e41565b610a1491906129bb565b92505050610a4f565b6040517fd526485500000000000000000000000000000000000000000000000000000000815260040160405180910390fd5b92915050565b60008173ffffffffffffffffffffffffffffffffffffffff166370a08231306040518263ffffffff1660e01b8152600401610a9091906127e6565b60206040518083038186803b158015610aa857600080fd5b505afa158015610abc573d6000803e3d6000fd5b505050506040513d601f19601f82011682018060405250810190610ae091906128a9565b9050919050565b6000600960003373ffffffffffffffffffffffffffffffffffffffff1673ffffffffffffffffffffffffffffffffffffffff1681526020019081526020016000205060004290508062015180600960003373ffffffffffffffffffffffffffffffffffffffff1673ffffffffffffffffffffffffffffffffffffffff16815260200190815260200160002054610b7d9190612905565b1015610b8d576001915050610b93565b60009150505b90565b60025481565b600660149054906101000a900460ff1615610bec576040517f08c379a0000000000000000000000000000000000000000000000000000000008152600401610be390612a4c565b60405180910390fd5b6001600660146101000a81548160ff021916908315150217905550610c0f611e41565b8110610c8e573373ffffffffffffffffffffffffffffffffffffffff166108fc349081150290604051600060405180830381858888f19350505050158015610c5b573d6000803e3d6000fd5b506040517fe45bfdc700000000000000000000000000000000000000000000000000000000815260040160405180910390fd5b600554341015610cca576040517fb08ede0900000000000000000000000000000000000000000000000000000000815260040160405180910390fd5b60055460046000828254610cde9190612905565b92505081905550600060055434610cf591906129bb565b90506000610d01610810565b9050600083610d0e611e41565b610d189190612905565b9050600081600354610d2a919061298a565b905060008184610d3a91906129bb565b905060008054906101000a900473ffffffffffffffffffffffffffffffffffffffff1673ffffffffffffffffffffffffffffffffffffffff166323b872dd3330896040518463ffffffff1660e01b8152600401610d9993929190612a6c565b602060405180830381600087803b158015610db357600080fd5b505af1158015610dc7573d6000803e3d6000fd5b505050506040513d601f19601f82011682018060405250810190610deb9190612acf565b50600160009054906101000a900473ffffffffffffffffffffffffffffffffffffffff1673ffffffffffffffffffffffffffffffffffffffff1663a9059cbb33836040518363ffffffff1660e01b8152600401610e49929190612afc565b602060405180830381600087803b158015610e6357600080fd5b505af1158015610e77573d6000803e3d6000fd5b505050506040513d601f19601f82011682018060405250810190610e9b9190612acf565b503373ffffffffffffffffffffffffffffffffffffffff166108fc869081150290604051600060405180830381858888f19350505050158015610ee2573d6000803e3d6000fd5b507f6f32bb515641ec539b66bf327d21765de8c4200f94d348cee1dc835bb7532ab160008054906101000a900473ffffffffffffffffffffffffffffffffffffffff16610f2d611e0d565b604051610f3b929190612afc565b60405180910390a17f6f32bb515641ec539b66bf327d21765de8c4200f94d348cee1dc835bb7532ab1600160009054906101000a900473ffffffffffffffffffffffffffffffffffffffff16610f8f61234c565b604051610f9d929190612afc565b60405180910390a150505050506000600660146101000a81548160ff02191690831515021790555050565b60006301e13380600a60003373ffffffffffffffffffffffffffffffffffffffff1673ffffffffffffffffffffffffffffffffffffffff168152602001908152602001600020546110199190612905565b421115611029576001905061102e565b600090505b90565b60055481565b600660009054906101000a9050508060058190555050565b6000151561105b610ae7565b15151415611095576040517ffdbfe33900000000000000000000000000000000000000000000000000000000815260040160405180910390fd5b42600960003373ffffffffffffffffffffffffffffffffffffffff1673ffffffffffffffffffffffffffffffffffffffff168152602001908152602001600020819055506000600860003373ffffffffffffffffffffffffffffffffffffffff1673ffffffffffffffffffffffffffffffffffffffff16815260200190815260200160002054905060006003546064600760003373ffffffffffffffffffffffffffffffffffffffff1673ffffffffffffffffffffffffffffffffffffffff1681526020019081526020016000205461116e9190612b25565b611178919061298a565b905060006064828360648661118d9190612b25565b611197919061298a565b6004546111a491906129bb565b6111ae9190612b25565b6111b8919061298a565b9050478111156111f4576040517fbf0ebd8400000000000000000000000000000000000000000000000000000000815260040160405180910390fd5b80600860003373ffffffffffffffffffffffffffffffffffffffff1673ffffffffffffffffffffffffffffffffffffffff16815260200190815260200160002060008282546112439190612905565b925050819055503373ffffffffffffffffffffffffffffffffffffffff166108fc829081150290604051600060405180830381858888f19350505050158015611290573d6000803e3d6000fd5b503373ffffffffffffffffffffffffffffffffffffffff167fbf630ce062dbeaeb6c23a21390208b25de2ac16fb8502eab6054a70d9e34b8ec826040516112d7919061265d565b60405180910390a2505050565b6000600660009054906101000a900473ffffffffffffffffffffffffffffffffffffffff1673ffffffffffffffffffffffffffffffffffffffff163373ffffffffffffffffffffffffffffffffffffffff161415801561136f57503373ffffffffffffffffffffffffffffffffffffffff168273ffffffffffffffffffffffffffffffffffffffff16145b156113a6576040517f2ffae41300000000000000000000000000000000000000000000000000000000815260040160405180910390fd5b600760008373ffffffffffffffffffffffffffffffffffffffff1673ffffffffffffffffffffffffffffffffffffffff168152602001908152602001600020549050919050565b600a6020528060005260406000206000915090505481565b600660009054906101000a900473ffffffffffffffffffffffffffffffffffffffff1681565b60008060008054906101000a900473ffffffffffffffffffffffffffffffffffffffff1673ffffffffffffffffffffffffffffffffffffffff168473ffffffffffffffffffffffffffffffffffffffff1614156114b65761148a611e41565b670de0b6b3a764000061149b610810565b6114a59190612b25565b6114af919061298a565b90506114e6565b6114be610810565b670de0b6b3a76400006114cf611e41565b6114d99190612b25565b6114e3919061298a565b90505b6000670de0b6b3a764000082856114fd9190612b25565b611507919061298a565b9050809250505092915050565b60086020528060005260406000206000915090505481565b600660149054906101000a900460ff161561157c576040517f08c379a000000000000000000000000000000000000000000000000000000000815260040161157390612a4c565b60405180910390fd5b6001600660146101000a81548160ff0219169083151502179055506000600760003373ffffffffffffffffffffffffffffffffffffffff1673ffffffffffffffffffffffffffffffffffffffff1681526020019081526020016000205490506000600354670de0b6b3a7640000836115f49190612b25565b6115fe919061298a565b90506000606484836116109190612b25565b61161a919061298a565b90506000670de0b6b3a764000061162f611e41565b8361163a9190612b25565b611644919061298a565b90506000670de0b6b3a7640000611659610810565b846116649190612b25565b61166e919061298a565b9050600660009054906101000a900473ffffffffffffffffffffffffffffffffffffffff1673ffffffffffffffffffffffffffffffffffffffff163373ffffffffffffffffffffffffffffffffffffffff161480156116d85750600015156116d4610fc8565b1515145b801561173a575060025481836116ee9190612b25565b600760003373ffffffffffffffffffffffffffffffffffffffff1673ffffffffffffffffffffffffffffffffffffffff1681526020019081526020016000205461173891906129bb565b105b15611771576040517fbf0ebd8400000000000000000000000000000000000000000000000000000000815260040160405180910390fd5b8160008054906101000a900473ffffffffffffffffffffffffffffffffffffffff1673ffffffffffffffffffffffffffffffffffffffff166370a08231306040518263ffffffff1660e01b81526004016117cb91906127e6565b60206040518083038186803b1580156117e357600080fd5b505afa1580156117f7573d6000803e3d6000fd5b505050506040513d601f19601f8201168201806040525081019061181b91906128a9565b10806118d0575080600160009054906101000a900473ffffffffffffffffffffffffffffffffffffffff1673ffffffffffffffffffffffffffffffffffffffff166370a08231306040518263ffffffff1660e01b815260040161187e91906127e6565b60206040518083038186803b15801561189657600080fd5b505afa1580156118aa573d6000803e3d6000fd5b505050506040513d601f19601f820116820180604052508101906118ce91906128a9565b105b15611907576040517fbf0ebd8400000000000000000000000000000000000000000000000000000000815260040160405180910390fd5b60008054906101000a900473ffffffffffffffffffffffffffffffffffffffff1673ffffffffffffffffffffffffffffffffffffffff1663a9059cbb33846040518363ffffffff1660e01b8152600401611962929190612afc565b602060405180830381600087803b15801561197c57600080fd5b505af1158015611990573d6000803e3d6000fd5b505050506040513d601f19601f820116820180604052508101906119b49190612acf565b50600160009054906101000a900473ffffffffffffffffffffffffffffffffffffffff1673ffffffffffffffffffffffffffffffffffffffff1663a9059cbb33836040518363ffffffff1660e01b8152600401611a12929190612afc565b602060405180830381600087803b158015611a2c57600080fd5b505af1158015611a40573d6000803e3d6000fd5b505050506040513d601f19601f82011682018060405250810190611a649190612acf565b503373ffffffffffffffffffffffffffffffffffffffff167fbad053f5b243c76f17611a28d4554167bd09e3491be13032dd4af620e8e228728383604051611aad929190612b7f565b60405180910390a250505050506000600660146101000a81548160ff02191690831515021790555050565b6000600454905090565b600660009054906101000a9050506000600a6000600660009054906101000a900473ffffffffffffffffffffffffffffffffffffffff1673ffffffffffffffffffffffffffffffffffffffff1673ffffffffffffffffffffffffffffffffffffffff168152602001908152602001600020541115611b8c576040517f17ebf42200000000000000000000000000000000000000000000000000000000815260040160405180910390fd5b42600a60003373ffffffffffffffffffffffffffffffffffffffff1673ffffffffffffffffffffffffffffffffffffffff1681526020019081526020016000208190555060008054906101000a900473ffffffffffffffffffffffffffffffffffffffff1673ffffffffffffffffffffffffffffffffffffffff166323b872dd3330856040518463ffffffff1660e01b8152600401611c2d93929190612a6c565b602060405180830381600087803b158015611c4757600080fd5b505af1158015611c5b573d6000803e3d6000fd5b505050506040513d601f19601f82011682018060405250810190611c7f9190612acf565b50600160009054906101000a900473ffffffffffffffffffffffffffffffffffffffff1673ffffffffffffffffffffffffffffffffffffffff166323b872dd3330846040518463ffffffff1660e01b8152600401611cdf93929190612a6c565b602060405180830381600087803b158015611cf957600080fd5b505af1158015611d0d573d6000803e3d6000fd5b505050506040513d601f19601f82011682018060405250810190611d319190612acf565b508082611d3e9190612b25565b600281905550600254600381905550600254600760003373ffffffffffffffffffffffffffffffffffffffff1673ffffffffffffffffffffffffffffffffffffffff168152602001908152602001600020819055503373ffffffffffffffffffffffffffffffffffffffff167fb27d7e2f60a2022903d49f653fbb6f06e4fd14fd5f2291655fb7c499645ba6148383604051611ddb929190612b7f565b60405180910390a25050565b600160009054906101000a900473ffffffffffffffffffffffffffffffffffffffff1681565b6000611e17611e41565b670de0b6b3a7640000611e28610810565b611e329190612b25565b611e3c919061298a565b905090565b60008060009054906101000a900473ffffffffffffffffffffffffffffffffffffffff1673ffffffffffffffffffffffffffffffffffffffff166370a08231306040518263ffffffff1660e01b8152600401611e9d91906127e6565b60206040518083038186803b158015611eb557600080fd5b505afa158015611ec9573d6000803e3d6000fd5b505050506040513d601f19601f82011682018060405250810190611eed91906128a9565b905090565b60008054906101000a900473ffffffffffffffffffffffffffffffffffffffff1681565b6000600554905090565b600660149054906101000a900460ff1615611f70576040517f08c379a0000000000000000000000000000000000000000000000000000000008152600401611f6790612a4c565b60405180910390fd5b6001600660146101000a81548160ff021916908315150217905550611f93610810565b8110612012573373ffffffffffffffffffffffffffffffffffffffff166108fc349081150290604051600060405180830381858888f19350505050158015611fdf573d6000803e3d6000fd5b506040517fe45bfdc700000000000000000000000000000000000000000000000000000000815260040160405180910390fd5b60055434101561204e576040517fb08ede0900000000000000000000000000000000000000000000000000000000815260040160405180910390fd5b600554600460008282546120629190612905565b9250508190555060006005543461207991906129bb565b90506000612085611e41565b9050600083612092610810565b61209c9190612905565b90506000816003546120ae919061298a565b9050600081846120be91906129bb565b9050600160009054906101000a900473ffffffffffffffffffffffffffffffffffffffff1673ffffffffffffffffffffffffffffffffffffffff166323b872dd3330896040518463ffffffff1660e01b815260040161211f93929190612a6c565b602060405180830381600087803b15801561213957600080fd5b505af115801561214d573d6000803e3d6000fd5b505050506040513d601f19601f820116820180604052508101906121719190612acf565b5060008054906101000a900473ffffffffffffffffffffffffffffffffffffffff1673ffffffffffffffffffffffffffffffffffffffff1663a9059cbb33836040518363ffffffff1660e01b81526004016121cd929190612afc565b602060405180830381600087803b1580156121e757600080fd5b505af11580156121fb573d6000803e3d6000fd5b505050506040513d601f19601f8201168201806040525081019061221f9190612acf565b503373ffffffffffffffffffffffffffffffffffffffff166108fc869081150290604051600060405180830381858888f19350505050158015612266573d6000803e3d6000fd5b507f6f32bb515641ec539b66bf327d21765de8c4200f94d348cee1dc835bb7532ab160008054906101000a900473ffffffffffffffffffffffffffffffffffffffff166122b1611e0d565b6040516122bf929190612afc565b60405180910390a17f6f32bb515641ec539b66bf327d21765de8c4200f94d348cee1dc835bb7532ab1600160009054906101000a900473ffffffffffffffffffffffffffffffffffffffff1661231361234c565b604051612321929190612afc565b60405180910390a150505050506000600660146101000a81548160ff02191690831515021790555050565b6000612356610810565b670de0b6b3a7640000612367611e41565b6123719190612b25565b61237b919061298a565b905090565b600660149054906101000a900460ff16156123d0576040517f08c379a00000000000000000000000000000000000000000000000000000000081526004016123c790612a4c565b60405180910390fd5b6001600660146101000a81548160ff0219169083151502179055508173ffffffffffffffffffffffffffffffffffffffff166323b872dd3330612413878661142b565b6040518463ffffffff1660e01b815260040161243193929190612a6c565b602060405180830381600087803b15801561244b57600080fd5b505af115801561245f573d6000803e3d6000fd5b505050506040513d601f19601f820116820180604052508101906124839190612acf565b508273ffffffffffffffffffffffffffffffffffffffff166323b872dd3330846040518463ffffffff1660e01b81526004016124c193929190612a6c565b602060405180830381600087803b1580156124db57600080fd5b505af11580156124ef573d6000803e3d6000fd5b505050506040513d601f19601f820116820180604052508101906125139190612acf565b5061251e838261142b565b816125299190612b25565b600760003373ffffffffffffffffffffffffffffffffffffffff1673ffffffffffffffffffffffffffffffffffffffff16815260200190815260200160002060008282546125779190612905565b92505081905550612588838261142b565b816125939190612b25565b600360008282546125a49190612905565b925050819055503373ffffffffffffffffffffffffffffffffffffffff167fb27d7e2f60a2022903d49f653fbb6f06e4fd14fd5f2291655fb7c499645ba6146125ed858461142b565b836040516125fc929190612b7f565b60405180910390a26000600660146101000a81548160ff021916908315150217905550505050565b600047905090565b60096020528060005260406000206000915090505481565b6000819050919050565b61265781612644565b82525050565b6000602082019050612672600083018461264e565b92915050565b600080fd5b600073ffffffffffffffffffffffffffffffffffffffff82169050919050565b60006126a88261267d565b9050919050565b6126b88161269d565b81146126c357600080fd5b50565b6000813590506126d5816126af565b92915050565b6000602082840312156126f1576126f0612678565b5b60006126ff848285016126c6565b91505092915050565b61271181612644565b811461271c57600080fd5b50565b60008135905061272e81612708565b92915050565b6000806040838503121561274b5761274a612678565b5b6000612759858286016126c6565b925050602061276a8582860161271f565b9150509250929050565b60008115159050919050565b61278981612774565b82525050565b60006020820190506127a46000830184612780565b92915050565b6000602082840312156127c0576127bf612678565b5b60006127ce8482850161271f565b91505092915050565b6127e08161269d565b82525050565b60006020820190506127fb60008301846127d7565b92915050565b6000806040838503121561281857612817612678565b5b60006128268582860161271f565b92505060206128378582860161271f565b9150509250929050565b60008060006060848603121561285a57612859612678565b5b6000612868868287016126c6565b9350506020612879868287016126c6565b925050604061288a8682870161271f565b9150509250925092565b6000815190506128a381612708565b92915050565b6000602082840312156128bf576128be612678565b5b60006128cd84828501612894565b91505092915050565b7f4e487b7100000000000000000000000000000000000000000000000000000000600052601160045260246000fd5b600061291082612644565b915061291b83612644565b9250827fffffffffffffffffffffffffffffffffffffffffffffffffffffffffffffffff038211156129505761294f6128d6565b5b828201905092915050565b7f4e487b7100000000000000000000000000000000000000000000000000000000600052601260045260246000fd5b600061299582612644565b91506129a083612644565b9250826129b0576129af61295b565b5b828204905092915050565b60006129c682612644565b91506129d183612644565b9250828210156129e4576129e36128d6565b5b828203905092915050565b600082825260208201905092915050565b7f4e6f2072652d656e7472616e6379000000000000000000000000000000000000600082015250565b6000612a36600e836129ef565b9150612a4182612a00565b602082019050919050565b60006020820190508181036000830152612a6581612a29565b9050919050565b6000606082019050612a8160008301866127d7565b612a8e60208301856127d7565b612a9b604083018461264e565b949350505050565b612aac81612774565b8114612ab757600080fd5b50565b600081519050612ac981612aa3565b92915050565b600060208284031215612ae557612ae4612678565b5b6000612af384828501612aba565b91505092915050565b6000604082019050612b1160008301856127d7565b612b1e602083018461264e565b9392505050565b6000612b3082612644565b9150612b3b83612644565b9250817fffffffffffffffffffffffffffffffffffffffffffffffffffffffffffffffff0483118215151615612b7457612b736128d6565b5b828202905092915050565b6000604082019050612b94600083018561264e565b612ba1602083018461264e565b939250505056fea26469706673582212202db185f7361ff67772dc329422834ca7d7cc89185987c1523abfa619a8a9547164736f6c63430008090033a264697066735822122062a26af2f4491586721a5f1581c1a939e357c80921f6d5b37107fbff4457748b64736f6c63430008090033",
  "devdoc": {
    "kind": "dev",
    "methods": {},
    "version": 1
  },
  "userdoc": {
    "kind": "user",
    "methods": {},
    "version": 1
  },
  "storageLayout": {
    "storage": [
      {
        "astId": 2742,
        "contract": "contracts/PoolTracker.sol:PoolTracker",
        "label": "owner",
        "offset": 0,
        "slot": "0",
        "type": "t_address"
      },
      {
        "astId": 2753,
        "contract": "contracts/PoolTracker.sol:PoolTracker",
        "label": "locked",
        "offset": 20,
        "slot": "0",
        "type": "t_bool"
      },
      {
        "astId": 2786,
        "contract": "contracts/PoolTracker.sol:PoolTracker",
        "label": "poolPairs",
        "offset": 0,
        "slot": "1",
        "type": "t_mapping(t_address,t_array(t_address)dyn_storage)"
      },
      {
        "astId": 2793,
        "contract": "contracts/PoolTracker.sol:PoolTracker",
        "label": "pairToPool",
        "offset": 0,
        "slot": "2",
        "type": "t_mapping(t_address,t_mapping(t_address,t_contract(LiquidityPool)2729))"
      },
      {
        "astId": 2796,
        "contract": "contracts/PoolTracker.sol:PoolTracker",
        "label": "tokens",
        "offset": 0,
        "slot": "3",
        "type": "t_array(t_address)dyn_storage"
      },
      {
        "astId": 2802,
        "contract": "contracts/PoolTracker.sol:PoolTracker",
        "label": "poolOwner",
        "offset": 0,
        "slot": "4",
        "type": "t_mapping(t_address,t_array(t_contract(LiquidityPool)2729)dyn_storage)"
      },
      {
        "astId": 3048,
        "contract": "contracts/PoolTracker.sol:PoolTracker",
        "label": "routingAddresses",
        "offset": 0,
        "slot": "5",
        "type": "t_array(t_struct(routingAddress)3044_storage)dyn_storage"
      }
    ],
    "types": {
      "t_address": {
        "encoding": "inplace",
        "label": "address",
        "numberOfBytes": "20"
      },
      "t_array(t_address)dyn_storage": {
        "base": "t_address",
        "encoding": "dynamic_array",
        "label": "address[]",
        "numberOfBytes": "32"
      },
      "t_array(t_contract(LiquidityPool)2729)dyn_storage": {
        "base": "t_contract(LiquidityPool)2729",
        "encoding": "dynamic_array",
        "label": "contract LiquidityPool[]",
        "numberOfBytes": "32"
      },
      "t_array(t_struct(routingAddress)3044_storage)dyn_storage": {
        "base": "t_struct(routingAddress)3044_storage",
        "encoding": "dynamic_array",
        "label": "struct PoolTracker.routingAddress[]",
        "numberOfBytes": "32"
      },
      "t_bool": {
        "encoding": "inplace",
        "label": "bool",
        "numberOfBytes": "1"
      },
      "t_contract(LiquidityPool)2729": {
        "encoding": "inplace",
        "label": "contract LiquidityPool",
        "numberOfBytes": "20"
      },
      "t_mapping(t_address,t_array(t_address)dyn_storage)": {
        "encoding": "mapping",
        "key": "t_address",
        "label": "mapping(address => address[])",
        "numberOfBytes": "32",
        "value": "t_array(t_address)dyn_storage"
      },
      "t_mapping(t_address,t_array(t_contract(LiquidityPool)2729)dyn_storage)": {
        "encoding": "mapping",
        "key": "t_address",
        "label": "mapping(address => contract LiquidityPool[])",
        "numberOfBytes": "32",
        "value": "t_array(t_contract(LiquidityPool)2729)dyn_storage"
      },
      "t_mapping(t_address,t_contract(LiquidityPool)2729)": {
        "encoding": "mapping",
        "key": "t_address",
        "label": "mapping(address => contract LiquidityPool)",
        "numberOfBytes": "32",
        "value": "t_contract(LiquidityPool)2729"
      },
      "t_mapping(t_address,t_mapping(t_address,t_contract(LiquidityPool)2729))": {
        "encoding": "mapping",
        "key": "t_address",
        "label": "mapping(address => mapping(address => contract LiquidityPool))",
        "numberOfBytes": "32",
        "value": "t_mapping(t_address,t_contract(LiquidityPool)2729)"
      },
      "t_struct(routingAddress)3044_storage": {
        "encoding": "inplace",
        "label": "struct PoolTracker.routingAddress",
        "members": [
          {
            "astId": 3041,
            "contract": "contracts/PoolTracker.sol:PoolTracker",
            "label": "tokenAddress",
            "offset": 0,
            "slot": "0",
            "type": "t_address"
          },
          {
            "astId": 3043,
            "contract": "contracts/PoolTracker.sol:PoolTracker",
            "label": "priceFeed",
            "offset": 0,
            "slot": "1",
            "type": "t_address"
          }
        ],
        "numberOfBytes": "64"
      }
    }
  }
}